{
  "_format": "hh-sol-artifact-1",
  "contractName": "Dist",
  "sourceName": "contracts/Dist.sol",
  "abi": [
    {
      "inputs": [
        {
          "internalType": "address[]",
          "name": "recipients",
          "type": "address[]"
        },
        {
          "internalType": "uint256[]",
          "name": "values",
          "type": "uint256[]"
        }
      ],
      "name": "distribute",
      "outputs": [],
      "stateMutability": "nonpayable",
      "type": "function"
    },
    {
      "inputs": [],
      "name": "fundContract",
      "outputs": [],
      "stateMutability": "payable",
      "type": "function"
    }
  ],
  "bytecode": "0x608060405234801561001057600080fd5b50610357806100206000396000f3fe6080604052600436106100295760003560e01c80632929abe61461002e578063bd097e211461004e575b600080fd5b34801561003a57600080fd5b5061004e610049366004610215565b610050565b005b60005b825181101561013a574782828151811061006f5761006f6102e4565b602002602001015111156100bc5760405162461bcd60e51b815260206004820152601060248201526f6e6f7420656e6f7567682066756e647360801b604482015260640160405180910390fd5b8281815181106100ce576100ce6102e4565b60200260200101516001600160a01b03166108fc8383815181106100f4576100f46102e4565b60200260200101519081150290604051600060405180830381858888f19350505050158015610127573d6000803e3d6000fd5b5080610132816102fa565b915050610053565b505050565b634e487b7160e01b600052604160045260246000fd5b604051601f8201601f1916810167ffffffffffffffff8111828210171561017e5761017e61013f565b604052919050565b600067ffffffffffffffff8211156101a0576101a061013f565b5060051b60200190565b600082601f8301126101bb57600080fd5b813560206101d06101cb83610186565b610155565b82815260059290921b840181019181810190868411156101ef57600080fd5b8286015b8481101561020a57803583529183019183016101f3565b509695505050505050565b6000806040838503121561022857600080fd5b823567ffffffffffffffff8082111561024057600080fd5b818501915085601f83011261025457600080fd5b813560206102646101cb83610186565b82815260059290921b8401810191818101908984111561028357600080fd5b948201945b838610156102b75785356001600160a01b03811681146102a85760008081fd5b82529482019490820190610288565b965050860135925050808211156102cd57600080fd5b506102da858286016101aa565b9150509250929050565b634e487b7160e01b600052603260045260246000fd5b60006001820161031a57634e487b7160e01b600052601160045260246000fd5b506001019056fea2646970667358221220b8326c9f418141b54822c851fc2f2c8cd303020b7e8be9cec6c2322460bfe7b164736f6c63430008140033",
  "linkReferences": {},
  "deployedLinkReferences": {}
}