{
  "_format": "hh-sol-artifact-1",
  "contractName": "RNat",
  "sourceName": "contracts/rNat/implementation/RNat.sol",
  "abi": [
    {
      "inputs": [
        {
          "internalType": "contract IGovernanceSettings",
          "name": "_governanceSettings",
          "type": "address"
        },
        {
          "internalType": "address",
          "name": "_initialGovernance",
          "type": "address"
        },
        {
          "internalType": "address",
          "name": "_addressUpdater",
          "type": "address"
        },
        {
          "internalType": "string",
          "name": "_name",
          "type": "string"
        },
        {
          "internalType": "string",
          "name": "_symbol",
          "type": "string"
        },
        {
          "internalType": "uint8",
          "name": "_decimals",
          "type": "uint8"
        },
        {
          "internalType": "address",
          "name": "_manager",
          "type": "address"
        },
        {
          "internalType": "uint256",
          "name": "_firstMonthStartTs",
          "type": "uint256"
        }
      ],
      "stateMutability": "nonpayable",
      "type": "constructor"
    },
    {
      "inputs": [],
      "name": "ReentrancyGuardReentrantCall",
      "type": "error"
    },
    {
      "anonymous": false,
      "inputs": [
        {
          "indexed": true,
          "internalType": "address",
          "name": "owner",
          "type": "address"
        },
        {
          "indexed": true,
          "internalType": "address",
          "name": "spender",
          "type": "address"
        },
        {
          "indexed": false,
          "internalType": "uint256",
          "name": "value",
          "type": "uint256"
        }
      ],
      "name": "Approval",
      "type": "event"
    },
    {
      "anonymous": false,
      "inputs": [
        {
          "indexed": false,
          "internalType": "uint256[]",
          "name": "projectIds",
          "type": "uint256[]"
        },
        {
          "indexed": false,
          "internalType": "bool",
          "name": "disabled",
          "type": "bool"
        }
      ],
      "name": "ClaimingPermissionUpdated",
      "type": "event"
    },
    {
      "anonymous": false,
      "inputs": [
        {
          "indexed": false,
          "internalType": "uint256",
          "name": "authorizedAmountWei",
          "type": "uint256"
        }
      ],
      "name": "DailyAuthorizedIncentiveSet",
      "type": "event"
    },
    {
      "anonymous": false,
      "inputs": [
        {
          "indexed": false,
          "internalType": "uint256[]",
          "name": "projectIds",
          "type": "uint256[]"
        },
        {
          "indexed": false,
          "internalType": "bool",
          "name": "disabled",
          "type": "bool"
        }
      ],
      "name": "DistributionPermissionUpdated",
      "type": "event"
    },
    {
      "anonymous": false,
      "inputs": [
        {
          "indexed": false,
          "internalType": "bytes4",
          "name": "selector",
          "type": "bytes4"
        },
        {
          "indexed": false,
          "internalType": "uint256",
          "name": "allowedAfterTimestamp",
          "type": "uint256"
        },
        {
          "indexed": false,
          "internalType": "bytes",
          "name": "encodedCall",
          "type": "bytes"
        }
      ],
      "name": "GovernanceCallTimelocked",
      "type": "event"
    },
    {
      "anonymous": false,
      "inputs": [
        {
          "indexed": false,
          "internalType": "address",
          "name": "initialGovernance",
          "type": "address"
        }
      ],
      "name": "GovernanceInitialised",
      "type": "event"
    },
    {
      "anonymous": false,
      "inputs": [
        {
          "indexed": false,
          "internalType": "address",
          "name": "governanceSettings",
          "type": "address"
        }
      ],
      "name": "GovernedProductionModeEntered",
      "type": "event"
    },
    {
      "anonymous": false,
      "inputs": [
        {
          "indexed": false,
          "internalType": "uint256",
          "name": "amountReceivedWei",
          "type": "uint256"
        }
      ],
      "name": "IncentiveReceived",
      "type": "event"
    },
    {
      "anonymous": false,
      "inputs": [
        {
          "indexed": false,
          "internalType": "address",
          "name": "libraryAddress",
          "type": "address"
        }
      ],
      "name": "LibraryAddressSet",
      "type": "event"
    },
    {
      "anonymous": false,
      "inputs": [
        {
          "indexed": true,
          "internalType": "uint256",
          "name": "id",
          "type": "uint256"
        },
        {
          "indexed": false,
          "internalType": "string",
          "name": "name",
          "type": "string"
        },
        {
          "indexed": false,
          "internalType": "address",
          "name": "distributor",
          "type": "address"
        },
        {
          "indexed": false,
          "internalType": "bool",
          "name": "currentMonthDistributionEnabled",
          "type": "bool"
        }
      ],
      "name": "ProjectAdded",
      "type": "event"
    },
    {
      "anonymous": false,
      "inputs": [
        {
          "indexed": true,
          "internalType": "uint256",
          "name": "id",
          "type": "uint256"
        },
        {
          "indexed": false,
          "internalType": "string",
          "name": "name",
          "type": "string"
        },
        {
          "indexed": false,
          "internalType": "address",
          "name": "distributor",
          "type": "address"
        },
        {
          "indexed": false,
          "internalType": "bool",
          "name": "currentMonthDistributionEnabled",
          "type": "bool"
        }
      ],
      "name": "ProjectUpdated",
      "type": "event"
    },
    {
      "anonymous": false,
      "inputs": [
        {
          "indexed": false,
          "internalType": "address",
          "name": "owner",
          "type": "address"
        },
        {
          "indexed": false,
          "internalType": "contract IRNatDelegationAccount",
          "name": "delegationAccount",
          "type": "address"
        }
      ],
      "name": "RNatDelegationAccountCreated",
      "type": "event"
    },
    {
      "anonymous": false,
      "inputs": [
        {
          "indexed": true,
          "internalType": "uint256",
          "name": "projectId",
          "type": "uint256"
        },
        {
          "indexed": true,
          "internalType": "uint256",
          "name": "month",
          "type": "uint256"
        },
        {
          "indexed": false,
          "internalType": "uint128",
          "name": "amount",
          "type": "uint128"
        }
      ],
      "name": "RewardsAssigned",
      "type": "event"
    },
    {
      "anonymous": false,
      "inputs": [
        {
          "indexed": true,
          "internalType": "uint256",
          "name": "projectId",
          "type": "uint256"
        },
        {
          "indexed": true,
          "internalType": "uint256",
          "name": "month",
          "type": "uint256"
        },
        {
          "indexed": true,
          "internalType": "address",
          "name": "owner",
          "type": "address"
        },
        {
          "indexed": false,
          "internalType": "uint128",
          "name": "amount",
          "type": "uint128"
        }
      ],
      "name": "RewardsClaimed",
      "type": "event"
    },
    {
      "anonymous": false,
      "inputs": [
        {
          "indexed": true,
          "internalType": "uint256",
          "name": "projectId",
          "type": "uint256"
        },
        {
          "indexed": true,
          "internalType": "uint256",
          "name": "month",
          "type": "uint256"
        },
        {
          "indexed": false,
          "internalType": "address[]",
          "name": "recipients",
          "type": "address[]"
        },
        {
          "indexed": false,
          "internalType": "uint128[]",
          "name": "amounts",
          "type": "uint128[]"
        }
      ],
      "name": "RewardsDistributed",
      "type": "event"
    },
    {
      "anonymous": false,
      "inputs": [
        {
          "indexed": true,
          "internalType": "uint256",
          "name": "projectId",
          "type": "uint256"
        },
        {
          "indexed": true,
          "internalType": "uint256",
          "name": "month",
          "type": "uint256"
        },
        {
          "indexed": false,
          "internalType": "uint128",
          "name": "amount",
          "type": "uint128"
        }
      ],
      "name": "RewardsUnassigned",
      "type": "event"
    },
    {
      "anonymous": false,
      "inputs": [
        {
          "indexed": false,
          "internalType": "bytes4",
          "name": "selector",
          "type": "bytes4"
        },
        {
          "indexed": false,
          "internalType": "uint256",
          "name": "timestamp",
          "type": "uint256"
        }
      ],
      "name": "TimelockedGovernanceCallCanceled",
      "type": "event"
    },
    {
      "anonymous": false,
      "inputs": [
        {
          "indexed": false,
          "internalType": "bytes4",
          "name": "selector",
          "type": "bytes4"
        },
        {
          "indexed": false,
          "internalType": "uint256",
          "name": "timestamp",
          "type": "uint256"
        }
      ],
      "name": "TimelockedGovernanceCallExecuted",
      "type": "event"
    },
    {
      "anonymous": false,
      "inputs": [
        {
          "indexed": true,
          "internalType": "address",
          "name": "from",
          "type": "address"
        },
        {
          "indexed": true,
          "internalType": "address",
          "name": "to",
          "type": "address"
        },
        {
          "indexed": false,
          "internalType": "uint256",
          "name": "value",
          "type": "uint256"
        }
      ],
      "name": "Transfer",
      "type": "event"
    },
    {
      "anonymous": false,
      "inputs": [
        {
          "indexed": false,
          "internalType": "address",
          "name": "recipient",
          "type": "address"
        },
        {
          "indexed": false,
          "internalType": "uint128",
          "name": "amount",
          "type": "uint128"
        }
      ],
      "name": "UnassignedRewardsWithdrawn",
      "type": "event"
    },
    {
      "anonymous": false,
      "inputs": [
        {
          "indexed": true,
          "internalType": "uint256",
          "name": "projectId",
          "type": "uint256"
        },
        {
          "indexed": true,
          "internalType": "uint256",
          "name": "month",
          "type": "uint256"
        },
        {
          "indexed": false,
          "internalType": "uint128",
          "name": "amount",
          "type": "uint128"
        }
      ],
      "name": "UnclaimedRewardsUnassigned",
      "type": "event"
    },
    {
      "inputs": [],
      "name": "MONTH",
      "outputs": [
        {
          "internalType": "uint256",
          "name": "",
          "type": "uint256"
        }
      ],
      "stateMutability": "view",
      "type": "function"
    },
    {
      "inputs": [
        {
          "internalType": "string[]",
          "name": "_names",
          "type": "string[]"
        },
        {
          "internalType": "address[]",
          "name": "_distributors",
          "type": "address[]"
        },
        {
          "internalType": "bool[]",
          "name": "_currentMonthDistributionEnabledList",
          "type": "bool[]"
        }
      ],
      "name": "addProjects",
      "outputs": [],
      "stateMutability": "nonpayable",
      "type": "function"
    },
    {
      "inputs": [
        {
          "internalType": "address",
          "name": "",
          "type": "address"
        },
        {
          "internalType": "address",
          "name": "",
          "type": "address"
        }
      ],
      "name": "allowance",
      "outputs": [
        {
          "internalType": "uint256",
          "name": "",
          "type": "uint256"
        }
      ],
      "stateMutability": "pure",
      "type": "function"
    },
    {
      "inputs": [
        {
          "internalType": "address",
          "name": "",
          "type": "address"
        },
        {
          "internalType": "uint256",
          "name": "",
          "type": "uint256"
        }
      ],
      "name": "approve",
      "outputs": [
        {
          "internalType": "bool",
          "name": "",
          "type": "bool"
        }
      ],
      "stateMutability": "pure",
      "type": "function"
    },
    {
      "inputs": [
        {
          "internalType": "uint256",
          "name": "_month",
          "type": "uint256"
        },
        {
          "internalType": "uint256[]",
          "name": "_projectIds",
          "type": "uint256[]"
        },
        {
          "internalType": "uint128[]",
          "name": "_amountsWei",
          "type": "uint128[]"
        }
      ],
      "name": "assignRewards",
      "outputs": [],
      "stateMutability": "nonpayable",
      "type": "function"
    },
    {
      "inputs": [
        {
          "internalType": "address",
          "name": "_owner",
          "type": "address"
        }
      ],
      "name": "balanceOf",
      "outputs": [
        {
          "internalType": "uint256",
          "name": "",
          "type": "uint256"
        }
      ],
      "stateMutability": "view",
      "type": "function"
    },
    {
      "inputs": [
        {
          "internalType": "bytes4",
          "name": "_selector",
          "type": "bytes4"
        }
      ],
      "name": "cancelGovernanceCall",
      "outputs": [],
      "stateMutability": "nonpayable",
      "type": "function"
    },
    {
      "inputs": [
        {
          "internalType": "uint256[]",
          "name": "_projectIds",
          "type": "uint256[]"
        },
        {
          "internalType": "uint256",
          "name": "_month",
          "type": "uint256"
        }
      ],
      "name": "claimRewards",
      "outputs": [
        {
          "internalType": "uint128",
          "name": "_claimedRewardsWei",
          "type": "uint128"
        }
      ],
      "stateMutability": "nonpayable",
      "type": "function"
    },
    {
      "inputs": [],
      "name": "claimSetupManager",
      "outputs": [
        {
          "internalType": "contract IIClaimSetupManager",
          "name": "",
          "type": "address"
        }
      ],
      "stateMutability": "view",
      "type": "function"
    },
    {
      "inputs": [],
      "name": "decimals",
      "outputs": [
        {
          "internalType": "uint8",
          "name": "",
          "type": "uint8"
        }
      ],
      "stateMutability": "view",
      "type": "function"
    },
    {
      "inputs": [
        {
          "internalType": "uint256[]",
          "name": "_projectIds",
          "type": "uint256[]"
        }
      ],
      "name": "disableClaiming",
      "outputs": [],
      "stateMutability": "nonpayable",
      "type": "function"
    },
    {
      "inputs": [
        {
          "internalType": "uint256[]",
          "name": "_projectIds",
          "type": "uint256[]"
        }
      ],
      "name": "disableDistribution",
      "outputs": [],
      "stateMutability": "nonpayable",
      "type": "function"
    },
    {
      "inputs": [
        {
          "internalType": "uint256",
          "name": "_projectId",
          "type": "uint256"
        },
        {
          "internalType": "uint256",
          "name": "_month",
          "type": "uint256"
        },
        {
          "internalType": "address[]",
          "name": "_recipients",
          "type": "address[]"
        },
        {
          "internalType": "uint128[]",
          "name": "_amountsWei",
          "type": "uint128[]"
        }
      ],
      "name": "distributeRewards",
      "outputs": [],
      "stateMutability": "nonpayable",
      "type": "function"
    },
    {
      "inputs": [
        {
          "internalType": "uint256[]",
          "name": "_projectIds",
          "type": "uint256[]"
        }
      ],
      "name": "enableClaiming",
      "outputs": [],
      "stateMutability": "nonpayable",
      "type": "function"
    },
    {
      "inputs": [
        {
          "internalType": "uint256[]",
          "name": "_projectIds",
          "type": "uint256[]"
        }
      ],
      "name": "enableDistribution",
      "outputs": [],
      "stateMutability": "nonpayable",
      "type": "function"
    },
    {
      "inputs": [],
      "name": "enableIncentivePool",
      "outputs": [],
      "stateMutability": "nonpayable",
      "type": "function"
    },
    {
      "inputs": [
        {
          "internalType": "bytes4",
          "name": "_selector",
          "type": "bytes4"
        }
      ],
      "name": "executeGovernanceCall",
      "outputs": [],
      "stateMutability": "nonpayable",
      "type": "function"
    },
    {
      "inputs": [],
      "name": "firstMonthStartTs",
      "outputs": [
        {
          "internalType": "uint256",
          "name": "",
          "type": "uint256"
        }
      ],
      "stateMutability": "view",
      "type": "function"
    },
    {
      "inputs": [],
      "name": "fundingAddress",
      "outputs": [
        {
          "internalType": "address",
          "name": "",
          "type": "address"
        }
      ],
      "stateMutability": "view",
      "type": "function"
    },
    {
      "inputs": [],
      "name": "getAddressUpdater",
      "outputs": [
        {
          "internalType": "address",
          "name": "_addressUpdater",
          "type": "address"
        }
      ],
      "stateMutability": "view",
      "type": "function"
    },
    {
      "inputs": [
        {
          "internalType": "address",
          "name": "_owner",
          "type": "address"
        }
      ],
      "name": "getBalancesOf",
      "outputs": [
        {
          "internalType": "uint256",
          "name": "_wNatBalance",
          "type": "uint256"
        },
        {
          "internalType": "uint256",
          "name": "_rNatBalance",
          "type": "uint256"
        },
        {
          "internalType": "uint256",
          "name": "_lockedBalance",
          "type": "uint256"
        }
      ],
      "stateMutability": "view",
      "type": "function"
    },
    {
      "inputs": [
        {
          "internalType": "uint256",
          "name": "_projectId",
          "type": "uint256"
        },
        {
          "internalType": "address",
          "name": "_owner",
          "type": "address"
        }
      ],
      "name": "getClaimableRewards",
      "outputs": [
        {
          "internalType": "uint128",
          "name": "",
          "type": "uint128"
        }
      ],
      "stateMutability": "view",
      "type": "function"
    },
    {
      "inputs": [],
      "name": "getContractName",
      "outputs": [
        {
          "internalType": "string",
          "name": "",
          "type": "string"
        }
      ],
      "stateMutability": "pure",
      "type": "function"
    },
    {
      "inputs": [],
      "name": "getCurrentMonth",
      "outputs": [
        {
          "internalType": "uint256",
          "name": "",
          "type": "uint256"
        }
      ],
      "stateMutability": "view",
      "type": "function"
    },
    {
      "inputs": [],
      "name": "getExpectedBalance",
      "outputs": [
        {
          "internalType": "uint256",
          "name": "",
          "type": "uint256"
        }
      ],
      "stateMutability": "view",
      "type": "function"
    },
    {
      "inputs": [],
      "name": "getIncentivePoolAddress",
      "outputs": [
        {
          "internalType": "address",
          "name": "",
          "type": "address"
        }
      ],
      "stateMutability": "view",
      "type": "function"
    },
    {
      "inputs": [],
      "name": "getIncentivePoolReceiverInfo",
      "outputs": [
        {
          "internalType": "uint256",
          "name": "_totalIncentiveAuthorizedWei",
          "type": "uint256"
        },
        {
          "internalType": "uint256",
          "name": "_totalIncentiveReceivedWei",
          "type": "uint256"
        },
        {
          "internalType": "uint256",
          "name": "_lastIncentiveAuthorizationReceivedTs",
          "type": "uint256"
        },
        {
          "internalType": "uint256",
          "name": "_dailyAuthorizedIncentive",
          "type": "uint256"
        }
      ],
      "stateMutability": "view",
      "type": "function"
    },
    {
      "inputs": [
        {
          "internalType": "uint256",
          "name": "_projectId",
          "type": "uint256"
        },
        {
          "internalType": "uint256",
          "name": "_month",
          "type": "uint256"
        },
        {
          "internalType": "address",
          "name": "_owner",
          "type": "address"
        }
      ],
      "name": "getOwnerRewardsInfo",
      "outputs": [
        {
          "internalType": "uint128",
          "name": "_assignedRewards",
          "type": "uint128"
        },
        {
          "internalType": "uint128",
          "name": "_claimedRewards",
          "type": "uint128"
        },
        {
          "internalType": "bool",
          "name": "_claimable",
          "type": "bool"
        }
      ],
      "stateMutability": "view",
      "type": "function"
    },
    {
      "inputs": [
        {
          "internalType": "uint256",
          "name": "_projectId",
          "type": "uint256"
        }
      ],
      "name": "getProjectInfo",
      "outputs": [
        {
          "internalType": "string",
          "name": "_name",
          "type": "string"
        },
        {
          "internalType": "address",
          "name": "_distributor",
          "type": "address"
        },
        {
          "internalType": "bool",
          "name": "_currentMonthDistributionEnabled",
          "type": "bool"
        },
        {
          "internalType": "bool",
          "name": "_distributionDisabled",
          "type": "bool"
        },
        {
          "internalType": "bool",
          "name": "_claimingDisabled",
          "type": "bool"
        },
        {
          "internalType": "uint128",
          "name": "_totalAssignedRewards",
          "type": "uint128"
        },
        {
          "internalType": "uint128",
          "name": "_totalDistributedRewards",
          "type": "uint128"
        },
        {
          "internalType": "uint128",
          "name": "_totalClaimedRewards",
          "type": "uint128"
        },
        {
          "internalType": "uint128",
          "name": "_totalUnassignedUnclaimedRewards",
          "type": "uint128"
        },
        {
          "internalType": "uint256[]",
          "name": "_monthsWithRewards",
          "type": "uint256[]"
        }
      ],
      "stateMutability": "view",
      "type": "function"
    },
    {
      "inputs": [
        {
          "internalType": "uint256",
          "name": "_projectId",
          "type": "uint256"
        },
        {
          "internalType": "uint256",
          "name": "_month",
          "type": "uint256"
        }
      ],
      "name": "getProjectRewardsInfo",
      "outputs": [
        {
          "internalType": "uint128",
          "name": "_assignedRewards",
          "type": "uint128"
        },
        {
          "internalType": "uint128",
          "name": "_distributedRewards",
          "type": "uint128"
        },
        {
          "internalType": "uint128",
          "name": "_claimedRewards",
          "type": "uint128"
        },
        {
          "internalType": "uint128",
          "name": "_unassignedUnclaimedRewards",
          "type": "uint128"
        }
      ],
      "stateMutability": "view",
      "type": "function"
    },
    {
      "inputs": [],
      "name": "getProjectsBasicInfo",
      "outputs": [
        {
          "internalType": "string[]",
          "name": "_names",
          "type": "string[]"
        },
        {
          "internalType": "bool[]",
          "name": "_claimingDisabled",
          "type": "bool[]"
        }
      ],
      "stateMutability": "view",
      "type": "function"
    },
    {
      "inputs": [],
      "name": "getProjectsCount",
      "outputs": [
        {
          "internalType": "uint256",
          "name": "",
          "type": "uint256"
        }
      ],
      "stateMutability": "view",
      "type": "function"
    },
    {
      "inputs": [
        {
          "internalType": "address",
          "name": "_owner",
          "type": "address"
        }
      ],
      "name": "getRNatDelegationAccount",
      "outputs": [
        {
          "internalType": "contract IRNatDelegationAccount",
          "name": "",
          "type": "address"
        }
      ],
      "stateMutability": "view",
      "type": "function"
    },
    {
      "inputs": [],
      "name": "getRewardsInfo",
      "outputs": [
        {
          "internalType": "uint256",
          "name": "_totalAssignableRewards",
          "type": "uint256"
        },
        {
          "internalType": "uint256",
          "name": "_totalAssignedRewards",
          "type": "uint256"
        },
        {
          "internalType": "uint256",
          "name": "_totalClaimedRewards",
          "type": "uint256"
        },
        {
          "internalType": "uint256",
          "name": "_totalWithdrawnRewards",
          "type": "uint256"
        },
        {
          "internalType": "uint256",
          "name": "_totalWithdrawnAssignableRewards",
          "type": "uint256"
        }
      ],
      "stateMutability": "view",
      "type": "function"
    },
    {
      "inputs": [],
      "name": "getTokenPoolSupplyData",
      "outputs": [
        {
          "internalType": "uint256",
          "name": "_lockedFundsWei",
          "type": "uint256"
        },
        {
          "internalType": "uint256",
          "name": "_totalInflationAuthorizedWei",
          "type": "uint256"
        },
        {
          "internalType": "uint256",
          "name": "_totalClaimedWei",
          "type": "uint256"
        }
      ],
      "stateMutability": "view",
      "type": "function"
    },
    {
      "inputs": [],
      "name": "governance",
      "outputs": [
        {
          "internalType": "address",
          "name": "",
          "type": "address"
        }
      ],
      "stateMutability": "view",
      "type": "function"
    },
    {
      "inputs": [],
      "name": "governanceSettings",
      "outputs": [
        {
          "internalType": "contract IGovernanceSettings",
          "name": "",
          "type": "address"
        }
      ],
      "stateMutability": "view",
      "type": "function"
    },
    {
      "inputs": [],
      "name": "governanceVP",
      "outputs": [
        {
          "internalType": "contract IGovernanceVotePower",
          "name": "",
          "type": "address"
        }
      ],
      "stateMutability": "view",
      "type": "function"
    },
    {
      "inputs": [],
      "name": "incentivePoolEnabled",
      "outputs": [
        {
          "internalType": "bool",
          "name": "",
          "type": "bool"
        }
      ],
      "stateMutability": "view",
      "type": "function"
    },
    {
      "inputs": [
        {
          "internalType": "contract IGovernanceSettings",
          "name": "_governanceSettings",
          "type": "address"
        },
        {
          "internalType": "address",
          "name": "_initialGovernance",
          "type": "address"
        }
      ],
      "name": "initialise",
      "outputs": [],
      "stateMutability": "nonpayable",
      "type": "function"
    },
    {
      "inputs": [
        {
          "internalType": "address",
          "name": "_address",
          "type": "address"
        }
      ],
      "name": "isExecutor",
      "outputs": [
        {
          "internalType": "bool",
          "name": "",
          "type": "bool"
        }
      ],
      "stateMutability": "view",
      "type": "function"
    },
    {
      "inputs": [],
      "name": "libraryAddress",
      "outputs": [
        {
          "internalType": "address",
          "name": "",
          "type": "address"
        }
      ],
      "stateMutability": "view",
      "type": "function"
    },
    {
      "inputs": [],
      "name": "manager",
      "outputs": [
        {
          "internalType": "address",
          "name": "",
          "type": "address"
        }
      ],
      "stateMutability": "view",
      "type": "function"
    },
    {
      "inputs": [],
      "name": "name",
      "outputs": [
        {
          "internalType": "string",
          "name": "",
          "type": "string"
        }
      ],
      "stateMutability": "view",
      "type": "function"
    },
    {
      "inputs": [],
      "name": "productionMode",
      "outputs": [
        {
          "internalType": "bool",
          "name": "",
          "type": "bool"
        }
      ],
      "stateMutability": "view",
      "type": "function"
    },
    {
      "inputs": [],
      "name": "receiveIncentive",
      "outputs": [],
      "stateMutability": "payable",
      "type": "function"
    },
    {
      "inputs": [],
      "name": "receiveRewards",
      "outputs": [],
      "stateMutability": "payable",
      "type": "function"
    },
    {
      "inputs": [
        {
          "internalType": "address[]",
          "name": "_executors",
          "type": "address[]"
        }
      ],
      "name": "setClaimExecutors",
      "outputs": [],
      "stateMutability": "payable",
      "type": "function"
    },
    {
      "inputs": [
        {
          "internalType": "uint256",
          "name": "_toAuthorizeWei",
          "type": "uint256"
        }
      ],
      "name": "setDailyAuthorizedIncentive",
      "outputs": [],
      "stateMutability": "nonpayable",
      "type": "function"
    },
    {
      "inputs": [
        {
          "internalType": "address",
          "name": "_fundingAddress",
          "type": "address"
        }
      ],
      "name": "setFundingAddress",
      "outputs": [],
      "stateMutability": "nonpayable",
      "type": "function"
    },
    {
      "inputs": [
        {
          "internalType": "address",
          "name": "_libraryAddress",
          "type": "address"
        }
      ],
      "name": "setLibraryAddress",
      "outputs": [],
      "stateMutability": "nonpayable",
      "type": "function"
    },
    {
      "inputs": [
        {
          "internalType": "address",
          "name": "_manager",
          "type": "address"
        }
      ],
      "name": "setManager",
      "outputs": [],
      "stateMutability": "nonpayable",
      "type": "function"
    },
    {
      "inputs": [],
      "name": "switchToProductionMode",
      "outputs": [],
      "stateMutability": "nonpayable",
      "type": "function"
    },
    {
      "inputs": [],
      "name": "symbol",
      "outputs": [
        {
          "internalType": "string",
          "name": "",
          "type": "string"
        }
      ],
      "stateMutability": "view",
      "type": "function"
    },
    {
      "inputs": [
        {
          "internalType": "bytes4",
          "name": "selector",
          "type": "bytes4"
        }
      ],
      "name": "timelockedCalls",
      "outputs": [
        {
          "internalType": "uint256",
          "name": "allowedAfterTimestamp",
          "type": "uint256"
        },
        {
          "internalType": "bytes",
          "name": "encodedCall",
          "type": "bytes"
        }
      ],
      "stateMutability": "view",
      "type": "function"
    },
    {
      "inputs": [],
      "name": "totalSupply",
      "outputs": [
        {
          "internalType": "uint256",
          "name": "",
          "type": "uint256"
        }
      ],
      "stateMutability": "view",
      "type": "function"
    },
    {
      "inputs": [
        {
          "internalType": "address",
          "name": "",
          "type": "address"
        },
        {
          "internalType": "uint256",
          "name": "",
          "type": "uint256"
        }
      ],
      "name": "transfer",
      "outputs": [
        {
          "internalType": "bool",
          "name": "",
          "type": "bool"
        }
      ],
      "stateMutability": "pure",
      "type": "function"
    },
    {
      "inputs": [
        {
          "internalType": "contract IERC20",
          "name": "_token",
          "type": "address"
        },
        {
          "internalType": "uint256",
          "name": "_amount",
          "type": "uint256"
        }
      ],
      "name": "transferExternalToken",
      "outputs": [],
      "stateMutability": "nonpayable",
      "type": "function"
    },
    {
      "inputs": [
        {
          "internalType": "address",
          "name": "",
          "type": "address"
        },
        {
          "internalType": "address",
          "name": "",
          "type": "address"
        },
        {
          "internalType": "uint256",
          "name": "",
          "type": "uint256"
        }
      ],
      "name": "transferFrom",
      "outputs": [
        {
          "internalType": "bool",
          "name": "",
          "type": "bool"
        }
      ],
      "stateMutability": "pure",
      "type": "function"
    },
    {
      "inputs": [
        {
          "internalType": "uint256",
          "name": "_projectId",
          "type": "uint256"
        },
        {
          "internalType": "uint256[]",
          "name": "_months",
          "type": "uint256[]"
        }
      ],
      "name": "unassignRewards",
      "outputs": [],
      "stateMutability": "nonpayable",
      "type": "function"
    },
    {
      "inputs": [
        {
          "internalType": "uint256",
          "name": "_projectId",
          "type": "uint256"
        },
        {
          "internalType": "uint256[]",
          "name": "_months",
          "type": "uint256[]"
        }
      ],
      "name": "unassignUnclaimedRewards",
      "outputs": [],
      "stateMutability": "nonpayable",
      "type": "function"
    },
    {
      "inputs": [
        {
          "internalType": "bytes32[]",
          "name": "_contractNameHashes",
          "type": "bytes32[]"
        },
        {
          "internalType": "address[]",
          "name": "_contractAddresses",
          "type": "address[]"
        }
      ],
      "name": "updateContractAddresses",
      "outputs": [],
      "stateMutability": "nonpayable",
      "type": "function"
    },
    {
      "inputs": [
        {
          "internalType": "uint256",
          "name": "_projectId",
          "type": "uint256"
        },
        {
          "internalType": "string",
          "name": "_name",
          "type": "string"
        },
        {
          "internalType": "address",
          "name": "_distributor",
          "type": "address"
        },
        {
          "internalType": "bool",
          "name": "_currentMonthDistributionEnabled",
          "type": "bool"
        }
      ],
      "name": "updateProject",
      "outputs": [],
      "stateMutability": "nonpayable",
      "type": "function"
    },
    {
      "inputs": [],
      "name": "wNat",
      "outputs": [
        {
          "internalType": "contract IWNat",
          "name": "",
          "type": "address"
        }
      ],
      "stateMutability": "view",
      "type": "function"
    },
    {
      "inputs": [
        {
          "internalType": "uint128",
          "name": "_amount",
          "type": "uint128"
        },
        {
          "internalType": "bool",
          "name": "_wrap",
          "type": "bool"
        }
      ],
      "name": "withdraw",
      "outputs": [],
      "stateMutability": "nonpayable",
      "type": "function"
    },
    {
      "inputs": [
        {
          "internalType": "bool",
          "name": "_wrap",
          "type": "bool"
        }
      ],
      "name": "withdrawAll",
      "outputs": [],
      "stateMutability": "nonpayable",
      "type": "function"
    },
    {
      "inputs": [
        {
          "internalType": "address",
          "name": "_recipient",
          "type": "address"
        },
        {
          "internalType": "uint128",
          "name": "_amount",
          "type": "uint128"
        }
      ],
      "name": "withdrawUnassignedRewards",
      "outputs": [],
      "stateMutability": "nonpayable",
      "type": "function"
    }
  ],
  "bytecode": "0x60c06040523480156200001157600080fd5b50604051620062b8380380620062b88339810160408190526200003491620003da565b858089896200004482826200012e565b50620000709050817f714f205b2abd25bef1d06a1af944e38c113fe6160375c4e1d6d5cf28848e771955565b5050600160085542811115620000cd5760405162461bcd60e51b815260206004820152601f60248201527f6669727374206d6f6e746820737461727420696e20746865206675747572650060448201526064015b60405180910390fd5b620000d882620002a3565b6009620000e686826200054a565b50600a620000f585826200054a565b5060ff90921660a052601280546001600160a01b039092166001600160a01b031990921691909117905560805250620006169350505050565b600054600160a01b900460ff16156200018a5760405162461bcd60e51b815260206004820152601460248201527f696e697469616c6973656420213d2066616c73650000000000000000000000006044820152606401620000c4565b6001600160a01b038216620001e25760405162461bcd60e51b815260206004820152601860248201527f676f7665726e616e63652073657474696e6773207a65726f00000000000000006044820152606401620000c4565b6001600160a01b0381166200022d5760405162461bcd60e51b815260206004820152601060248201526f5f676f7665726e616e6365207a65726f60801b6044820152606401620000c4565b600080546001600160a01b038481166001600160a81b031990921691909117600160a01b17909155600180549183166001600160a01b0319909216821790556040519081527f9789733827840833afc031fb2ef9ab6894271f77bad2085687cf4ae5c7bee4db9060200160405180910390a15050565b6001600160a01b038116620002ea5760405162461bcd60e51b815260206004820152600c60248201526b61646472657373207a65726f60a01b6044820152606401620000c4565b50565b6001600160a01b0381168114620002ea57600080fd5b80516200031081620002ed565b919050565b634e487b7160e01b600052604160045260246000fd5b600082601f8301126200033d57600080fd5b81516001600160401b03808211156200035a576200035a62000315565b604051601f8301601f19908116603f0116810190828211818310171562000385576200038562000315565b81604052838152602092508683858801011115620003a257600080fd5b600091505b83821015620003c65785820183015181830184015290820190620003a7565b600093810190920192909252949350505050565b600080600080600080600080610100898b031215620003f857600080fd5b88516200040581620002ed565b60208a01519098506200041881620002ed565b60408a01519097506200042b81620002ed565b60608a01519096506001600160401b03808211156200044957600080fd5b620004578c838d016200032b565b965060808b01519150808211156200046e57600080fd5b506200047d8b828c016200032b565b94505060a089015160ff811681146200049557600080fd5b9250620004a560c08a0162000303565b915060e089015190509295985092959890939650565b600181811c90821680620004d057607f821691505b602082108103620004f157634e487b7160e01b600052602260045260246000fd5b50919050565b601f8211156200054557600081815260208120601f850160051c81016020861015620005205750805b601f850160051c820191505b8181101562000541578281556001016200052c565b5050505b505050565b81516001600160401b0381111562000566576200056662000315565b6200057e81620005778454620004bb565b84620004f7565b602080601f831160018114620005b657600084156200059d5750858301515b600019600386901b1c1916600185901b17855562000541565b600085815260208120601f198616915b82811015620005e757888601518255948401946001909101908401620005c6565b5085821015620006065787850151600019600388901b60f8161c191681555b5050505050600190811b01905550565b60805160a051615c606200065860003960006105b50152600081816107f201528181610ff101528181612c67015281816133ae0152613d010152615c606000f3fe6080604052600436106103e45760003560e01c80638a31472611610208578063d3b7bfb411610118578063de6feb78116100ab578063eb23070e1161007a578063eb23070e14610c85578063ef88bf1314610ca5578063f5a9838314610cc5578063f5f5ba7214610cda578063fabf596814610d0757600080fd5b8063de6feb7814610c0f578063debfda3014610c2f578063e17f212e14610c4f578063e4a8f18b14610c7057600080fd5b8063d808f743116100e7578063d808f74314610b67578063dc905d5b14610bba578063dd62ed3e14610bda578063ddd1b67e14610bfa57600080fd5b8063d3b7bfb414610aed578063d5999a5c14610b0d578063d6ab3b7f14610b24578063d7dd16ff14610b4457600080fd5b8063ab60df901161019b578063b816f5131161016a578063b816f51314610a34578063b92f3d5414610a54578063c4db961914610a74578063cb12b3a014610a94578063d0ebdbe714610acd57600080fd5b8063ab60df9014610985578063ad523fe1146109a5578063af04cd3b146109ff578063b00c0b7614610a1457600080fd5b80639cb93f57116101d75780639cb93f571461090a5780639edbf0071461092a578063a50d5f3d1461094a578063a9059cbb1461096a57600080fd5b80638a314726146108a25780638f2b3605146108c25780639119c494146108e257806395d89b41146108f557600080fd5b80634863ba1711610303578063631cbe3c1161029657806368e79c6f1161026557806368e79c6f146107e05780636f76339c1461081457806370a082311461083457806374e6310e14610854578063899fd1641461088257600080fd5b8063631cbe3c14610778578063679adc881461078057806367a3fde7146107a057806367fc4029146107c057600080fd5b80635aa6e675116102d25780635aa6e6751461070e5780635c039af2146107235780635ff270791461073857806362354e031461075857600080fd5b80634863ba1714610692578063489a8a47146106b25780635267a15d146106d257806353b1e2581461070657600080fd5b80632dafdbbf1161037b57806336116ad51161034a57806336116ad5146105e95780633be976bf146106315780633e6afd7b14610651578063481c6a751461067257600080fd5b80632dafdbbf146105335780632dc573341461056357806330147b7714610583578063313ce567146105a357600080fd5b806318160ddd116103b757806318160ddd146104ae578063190a3ba4146104d15780631c1c6fe5146104f157806323b872dd1461051357600080fd5b806306fdde03146103e9578063095ea7b3146104145780630ac4d982146104445780630f1d1e3114610476575b600080fd5b3480156103f557600080fd5b506103fe610d3d565b60405161040b9190614cdf565b60405180910390f35b34801561042057600080fd5b5061043461042f366004614d07565b610dcb565b604051901515815260200161040b565b34801561045057600080fd5b506007546001600160a01b03165b6040516001600160a01b03909116815260200161040b565b34801561048257600080fd5b50610496610491366004614d7e565b610e14565b6040516001600160801b03909116815260200161040b565b3480156104ba57600080fd5b506104c3610f7c565b60405190815260200161040b565b3480156104dd57600080fd5b5061045e6104ec366004614dc9565b610fac565b3480156104fd57600080fd5b5061051161050c366004614df4565b610fbd565b005b34801561051f57600080fd5b5061043461052e366004614e11565b61111d565b34801561053f57600080fd5b50610548611161565b6040805193845260208401929092529082015260600161040b565b34801561056f57600080fd5b5061051161057e366004614e52565b6111c1565b34801561058f57600080fd5b5061051161059e366004614fa8565b61155a565b3480156105af57600080fd5b506105d77f000000000000000000000000000000000000000000000000000000000000000081565b60405160ff909116815260200161040b565b3480156105f557600080fd5b50610609610604366004614fe4565b6115f7565b604080516001600160801b03948516815293909216602084015215159082015260600161040b565b34801561063d57600080fd5b5061051161064c36600461501d565b611687565b34801561065d57600080fd5b50600d5461043490600160801b900460ff1681565b34801561067e57600080fd5b5060125461045e906001600160a01b031681565b34801561069e57600080fd5b506105116106ad366004614dc9565b611896565b3480156106be57600080fd5b506105116106cd366004614d07565b611963565b3480156106de57600080fd5b507f714f205b2abd25bef1d06a1af944e38c113fe6160375c4e1d6d5cf28848e77195461045e565b6105116119ee565b34801561071a57600080fd5b5061045e611a54565b34801561072f57600080fd5b50610511611af0565b34801561074457600080fd5b50610511610753366004615097565b611b3f565b34801561076457600080fd5b5060005461045e906001600160a01b031681565b610511611dc5565b34801561078c57600080fd5b5061051161079b366004614dc9565b611e69565b3480156107ac57600080fd5b506105116107bb3660046150c1565b611eb8565b3480156107cc57600080fd5b506105116107db366004615097565b612365565b3480156107ec57600080fd5b506104c37f000000000000000000000000000000000000000000000000000000000000000081565b34801561082057600080fd5b5061051161082f36600461513a565b612446565b34801561084057600080fd5b506104c361084f366004614dc9565b612749565b34801561086057600080fd5b5061087461086f366004615097565b6127b5565b60405161040b929190615180565b34801561088e57600080fd5b5060105461045e906001600160a01b031681565b3480156108ae57600080fd5b506105116108bd366004614fa8565b61285a565b3480156108ce57600080fd5b506105116108dd3660046151ae565b6128df565b6105116108f03660046151e7565b612b30565b34801561090157600080fd5b506103fe612b9d565b34801561091657600080fd5b50610511610925366004614fa8565b612baa565b34801561093657600080fd5b50600f5461045e906001600160a01b031681565b34801561095657600080fd5b50610511610965366004615228565b612c33565b34801561097657600080fd5b5061043461052e366004614d07565b34801561099157600080fd5b506104966109a0366004615256565b612d9f565b3480156109b157600080fd5b50600b54600c54600d54604080516001600160801b038086168252600160801b958690048116602083015280851692820192909252939092048216606084015216608082015260a00161040b565b348015610a0b57600080fd5b506104c3612ec7565b348015610a2057600080fd5b50610511610a2f3660046152df565b612ed1565b348015610a4057600080fd5b5060115461045e906001600160a01b031681565b348015610a6057600080fd5b50610511610a6f36600461513a565b612fac565b348015610a8057600080fd5b50600e5461045e906001600160a01b031681565b348015610aa057600080fd5b5060035460045460055460065460408051948552602085019390935291830152606082015260800161040b565b348015610ad957600080fd5b50610511610ae8366004614dc9565b613289565b348015610af957600080fd5b5060135461045e906001600160a01b031681565b348015610b1957600080fd5b506104c362278d0081565b348015610b3057600080fd5b50610548610b3f366004614dc9565b6132bc565b348015610b5057600080fd5b50610b59613433565b60405161040b92919061538d565b348015610b7357600080fd5b50610b87610b8236600461542a565b613611565b604080516001600160801b039586168152938516602085015291841691830191909152909116606082015260800161040b565b348015610bc657600080fd5b50610511610bd5366004614fa8565b613665565b348015610be657600080fd5b506104c3610bf536600461544c565b6136ee565b348015610c0657600080fd5b506104c3613739565b348015610c1b57600080fd5b50610511610c2a36600461547a565b613743565b348015610c3b57600080fd5b50610434610c4a366004614dc9565b613795565b348015610c5b57600080fd5b5060005461043490600160a81b900460ff1681565b348015610c7c57600080fd5b506014546104c3565b348015610c9157600080fd5b50610511610ca0366004615493565b613818565b348015610cb157600080fd5b50610511610cc036600461544c565b6138b4565b348015610cd157600080fd5b50610511613a1a565b348015610ce657600080fd5b506040805180820190915260048152631493985d60e21b60208201526103fe565b348015610d1357600080fd5b50610d27610d2236600461547a565b613ae0565b60405161040b9a99989796959493929190615571565b60098054610d4a906155fa565b80601f0160208091040260200160405190810160405280929190818152602001828054610d76906155fa565b8015610dc35780601f10610d9857610100808354040283529160200191610dc3565b820191906000526020600020905b815481529060010190602001808311610da657829003601f168201915b505050505081565b60405162461bcd60e51b8152602060048201526016602482015275185c1c1c9bdd985b081b9bdd081cdd5c1c1bdc9d195960521b60448201526000906064015b60405180910390fd5b6000610e1e613c64565b610e26613ccc565b6000610e30613cf6565b905080831115610e785760405162461bcd60e51b81526020600482015260136024820152726d6f6e746820696e207468652066757475726560681b6044820152606401610e0b565b60005b84811015610ec457610ea6868683818110610e9857610e98615634565b905060200201358584613d30565b610eb09084615660565b925080610ebc81615687565b915050610e7b565b50600c8054839190600090610ee39084906001600160801b0316615660565b92506101000a8154816001600160801b0302191690836001600160801b03160217905550336001600160a01b031660006001600160a01b03167fddf252ad1be2c89b69c2b068fc378daa952ba7f163c4a11628f55a4df523b3ef84604051610f5a91906001600160801b0391909116815260200190565b60405180910390a350610f6d6001600855565b610f7561416b565b9392505050565b600c54600090610f9e906001600160801b03600160801b8204811691166156a0565b6001600160801b0316905090565b6000610fb7826141b2565b92915050565b610fc5613c64565b6000610fcf614217565b600f54604051631474538b60e21b81526001600160a01b0391821660048201527f0000000000000000000000000000000000000000000000000000000000000000602482015284151560448201529116906351d14e2c906064016020604051808303816000875af1158015611048573d6000803e3d6000fd5b505050506040513d601f19601f8201168201806040525081019061106c91906156c0565b905080600c60108282829054906101000a90046001600160801b03166110929190615660565b92506101000a8154816001600160801b0302191690836001600160801b0316021790555060006001600160a01b0316336001600160a01b03167fddf252ad1be2c89b69c2b068fc378daa952ba7f163c4a11628f55a4df523b3ef8360405161110991906001600160801b0391909116815260200190565b60405180910390a35061111a61416b565b50565b60405162461bcd60e51b81526020600482015260166024820152751d1c985b9cd9995c881b9bdd081cdd5c1c1bdc9d195960521b6044820152600090606401610e0b565b600d54600b5460009182918291611184916001600160801b039182169116615660565b600d54600c546001600160801b039283169550600094506111b19291821691600160801b90910416615660565b6001600160801b03169050909192565b8281146111e05760405162461bcd60e51b8152600401610e0b906156dd565b60006111eb876144c5565b90506111f681614536565b6000611200613cf6565b905061120d876001615707565b81148061122f57506001820154600160a01b900460ff16801561122f57508681145b61127b5760405162461bcd60e51b815260206004820152601f60248201527f646973747269627574696f6e20666f72206d6f6e74682064697361626c6564006044820152606401610e0b565b60018201546001600160a01b031633146112ca5760405162461bcd60e51b815260206004820152601060248201526f37b7363c903234b9ba3934b13aba37b960811b6044820152606401610e0b565b60008781526004830160205260408120815b87811015611404576113138989838181106112f9576112f9615634565b905060200201602081019061130e9190614dc9565b61458a565b86868281811061132557611325615634565b905060200201602081019061133a919061571a565b8260020160008b8b8581811061135257611352615634565b90506020020160208101906113679190614dc9565b6001600160a01b0316815260208101919091526040016000908120805490919061139b9084906001600160801b0316615660565b92506101000a8154816001600160801b0302191690836001600160801b031602179055508686828181106113d1576113d1615634565b90506020020160208101906113e6919061571a565b6113f09084615660565b9250806113fc81615687565b9150506112dc565b5080546001600160801b0380821691611426918591600160801b900416615660565b6001600160801b0316111561147d5760405162461bcd60e51b815260206004820152601860248201527f657863656564732061737369676e6564207265776172647300000000000000006044820152606401610e0b565b8054829082906010906114a1908490600160801b90046001600160801b0316615660565b92506101000a8154816001600160801b0302191690836001600160801b03160217905550818460020160108282829054906101000a90046001600160801b03166114eb9190615660565b92506101000a8154816001600160801b0302191690836001600160801b03160217905550888a7fd6d0645796a75512d193f0777de35db76867294cabe5495f80180876f6af2c518a8a8a8a6040516115469493929190615775565b60405180910390a350505050505050505050565b6115626145cf565b60005b81518110156115b957600061159283838151811061158557611585615634565b60200260200101516144c5565b600101805460ff60a81b1916600160a81b17905550806115b181615687565b915050611565565b507fb70968995a4c1e44f87ceefe95859ff83302d137a4c16289b2852e6c9f3a59838160016040516115ec9291906157da565b60405180910390a150565b600080600080611606876144c5565b9050611610613cf6565b8611156116285760008060009350935093505061167e565b600086815260048201602090815260408083206001600160a01b03891684526002019091529020546001909101546001600160801b038083169550600160801b9092049091169250600160b01b900460ff161590505b93509350939050565b61168f6145cf565b848314801561169d57508481145b6116b95760405162461bcd60e51b8152600401610e0b906156dd565b60005b8581101561188d576116d98585838181106112f9576112f9615634565b60148054600181018083556000838152919290839081106116fc576116fc615634565b9060005260206000209060070201905088888481811061171e5761171e615634565b905060200281019061173091906157fe565b829161173d919083615892565b5086868481811061175057611750615634565b90506020020160208101906117659190614dc9565b6001820180546001600160a01b0319166001600160a01b039290921691909117905584848481811061179957611799615634565b90506020020160208101906117ae9190614df4565b600182018054911515600160a01b0260ff60a01b19909216919091179055817fbb0a7330b774a82e3f64257cf07307a3d9466d2c9c45cc6f2ba7c39b746301378a8a8681811061180057611800615634565b905060200281019061181291906157fe565b8a8a8881811061182457611824615634565b90506020020160208101906118399190614dc9565b89898981811061184b5761184b615634565b90506020020160208101906118609190614df4565b604051611870949392919061597b565b60405180910390a25050808061188590615687565b9150506116bc565b50505050505050565b600054600160b01b900460ff16806118b85750600054600160a81b900460ff16155b15611958576118c5614618565b803b63ffffffff1661190a5760405162461bcd60e51b815260206004820152600e60248201526d1b9bdd08184818dbdb9d1c9858dd60921b6044820152606401610e0b565b601180546001600160a01b0319166001600160a01b0383169081179091556040519081527fe88d6753e299a05129ac6a16302484e9cf5aa95c7d045575196b97ec5282ee9d906020016115ec565b61111a600036614650565b61196b613ccc565b611973614217565b600f546040516317de921960e11b81526001600160a01b039182166004820152848216602482015260448101849052911690632fbd243290606401600060405180830381600087803b1580156119c857600080fd5b505af11580156119dc573d6000803e3d6000fd5b505050506119ea6001600855565b5050565b6119f6613c64565b6119fe61478d565b34600454611a0c9190615707565b600455611a176147dd565b6040513481527f315f313628a86fd313dacf173d9ea6d987a528c9c0c7161c5571099645198b4d9060200160405180910390a1611a5261416b565b565b60008054600160a81b900460ff16611a7657506001546001600160a01b031690565b60008054906101000a90046001600160a01b03166001600160a01b031663732524946040518163ffffffff1660e01b8152600401602060405180830381865afa158015611ac7573d6000803e3d6000fd5b505050506040513d601f19601f82011682018060405250810190611aeb91906159b0565b905090565b600054600160b01b900460ff1680611b125750600054600160a81b900460ff16155b15611b3457611b1f614618565b600d805460ff60801b1916600160801b179055565b611a52600036614650565b611b4833613795565b611b845760405162461bcd60e51b815260206004820152600d60248201526c37b7363c9032bc32b1baba37b960991b6044820152606401610e0b565b6001600160e01b0319811660009081526002602052604081208054909103611bee5760405162461bcd60e51b815260206004820152601a60248201527f74696d656c6f636b3a20696e76616c69642073656c6563746f720000000000006044820152606401610e0b565b8054421015611c3f5760405162461bcd60e51b815260206004820152601960248201527f74696d656c6f636b3a206e6f7420616c6c6f77656420796574000000000000006044820152606401610e0b565b6000816001018054611c50906155fa565b80601f0160208091040260200160405190810160405280929190818152602001828054611c7c906155fa565b8015611cc95780601f10611c9e57610100808354040283529160200191611cc9565b820191906000526020600020905b815481529060010190602001808311611cac57829003601f168201915b505050506001600160e01b0319851660009081526002602052604081208181559293509050611cfb6001830182614c45565b50506000805460ff60b01b1916600160b01b1781556040513090611d209084906159cd565b6000604051808303816000865af19150503d8060008114611d5d576040519150601f19603f3d011682016040523d82523d6000602084013e611d62565b606091505b50506000805460ff60b01b19169055604080516001600160e01b0319871681524260208201529192507fa7326b57fc9cfe267aaea5e7f0b01757154d265620a0585819416ee9ddd2c438910160405180910390a1611dbf81614821565b50505050565b611dcd613c64565b6013546001600160a01b03163314611e1f5760405162461bcd60e51b81526020600482015260156024820152746e6f7420612066756e64696e67206164647265737360581b6044820152606401610e0b565b600b8054349190600090611e3d9084906001600160801b0316615660565b92506101000a8154816001600160801b0302191690836001600160801b03160217905550611a5261416b565b600054600160b01b900460ff1680611e8b5750600054600160a81b900460ff16155b1561195857611e98614618565b601380546001600160a01b0383166001600160a01b031990911617905550565b611ec06145cf565b611ec8613cf6565b611ed3866001615707565b1015611f215760405162461bcd60e51b815260206004820152601960248201527f6d6f6e746820746f6f2066617220696e207468652070617374000000000000006044820152606401610e0b565b828114611f405760405162461bcd60e51b8152600401610e0b906156dd565b6000805b8481101561229b576000611f6f878784818110611f6357611f63615634565b905060200201356144c5565b9050611f7a81614536565b848483818110611f8c57611f8c615634565b9050602002016020810190611fa1919061571a565b600282018054600090611fbe9084906001600160801b0316615660565b82546001600160801b039182166101009390930a9283029190920219909116179055506000888152600482016020526040902085858481811061200357612003615634565b9050602002016020810190612018919061571a565b815482906000906120339084906001600160801b0316615660565b92506101000a8154816001600160801b0302191690836001600160801b0316021790555085858481811061206957612069615634565b905060200201602081019061207e919061571a565b6120889085615660565b60058301549094508015806120c5575089600584016120a86001846159e9565b815481106120b8576120b8615634565b9060005260206000200154105b156120e95760058301805460018101825560009182526020909120018a9055612208565b600081118015612122575089600584016121046001846159e9565b8154811061211457612114615634565b906000526020600020015410155b156121395780612131816159fc565b9150506120e9565b8983600501828154811061214f5761214f615634565b906000526020600020015414612208576005830180546001908101808355600092835261217c91906159e9565b90505b818111156121e457600584016121966001836159e9565b815481106121a6576121a6615634565b90600052602060002001548460050182815481106121c6576121c6615634565b600091825260209091200155806121dc816159fc565b91505061217f565b50898360050182815481106121fb576121fb615634565b6000918252602090912001555b8989898681811061221b5761221b615634565b905060200201357fc9dfdb5ed8fa6de49575d26514d4301e875c50a796b1563948d63b5c99a4537489898881811061225557612255615634565b905060200201602081019061226a919061571a565b6040516001600160801b03909116815260200160405180910390a3505050808061229390615687565b915050611f44565b50600b546001600160801b03808216916122be918491600160801b900416615660565b6001600160801b031611156123155760405162461bcd60e51b815260206004820152601a60248201527f657863656564732061737369676e61626c6520726577617264730000000000006044820152606401610e0b565b80600b60108282829054906101000a90046001600160801b03166123399190615660565b92506101000a8154816001600160801b0302191690836001600160801b03160217905550505050505050565b61236d61483e565b6001600160e01b0319811660009081526002602052604081205490036123d55760405162461bcd60e51b815260206004820152601a60248201527f74696d656c6f636b3a20696e76616c69642073656c6563746f720000000000006044820152606401610e0b565b604080516001600160e01b0319831681524260208201527f7735b2391c38a81419c513e30ca578db7158eadd7101511b23e221c654d19cf8910160405180910390a16001600160e01b031981166000908152600260205260408120818155906124416001830182614c45565b505050565b6012546001600160a01b03163314806124775750612462611a54565b6001600160a01b0316336001600160a01b0316145b6124c35760405162461bcd60e51b815260206004820152601a60248201527f6f6e6c79206d616e61676572206f7220676f7665726e616e63650000000000006044820152606401610e0b565b60006124ce836144c5565b905060006124da613cf6565b90506000805b84518110156126b557828582815181106124fc576124fc615634565b602002602001015160016125109190615707565b108061254a57506001840154600160a81b900460ff16801561254a5750612535611a54565b6001600160a01b0316336001600160a01b0316145b6125965760405162461bcd60e51b815260206004820152601860248201527f756e61737369676e6d656e74206e6f7420616c6c6f77656400000000000000006044820152606401610e0b565b60008460040160008784815181106125b0576125b0615634565b6020908102919091018101518252810191909152604001600090812080549092506125ed906001600160801b03600160801b8204811691166156a0565b82549091508190839060009061260d9084906001600160801b03166156a0565b92506101000a8154816001600160801b0302191690836001600160801b03160217905550808461263d9190615660565b935086838151811061265157612651615634565b6020026020010151887f16be1ab033a9347c799232ac4f36a27199e48d81dac92c2bb429182d06b3c1a78360405161269891906001600160801b0391909116815260200190565b60405180910390a3505080806126ad90615687565b9150506124e0565b506002830180548291906000906126d69084906001600160801b03166156a0565b92506101000a8154816001600160801b0302191690836001600160801b0316021790555080600b60108282829054906101000a90046001600160801b031661271e91906156a0565b92506101000a8154816001600160801b0302191690836001600160801b031602179055505050505050565b6000612754826141b2565b6001600160a01b03166327fda4de6040518163ffffffff1660e01b8152600401602060405180830381865afa158015612791573d6000803e3d6000fd5b505050506040513d601f19601f82011682018060405250810190610fb79190615a13565b600260205260009081526040902080546001820180549192916127d7906155fa565b80601f0160208091040260200160405190810160405280929190818152602001828054612803906155fa565b80156128505780601f1061282557610100808354040283529160200191612850565b820191906000526020600020905b81548152906001019060200180831161283357829003601f168201915b5050505050905082565b6128626145cf565b60005b81518110156128ac57600061288583838151811061158557611585615634565b600101805460ff60b01b1916600160b01b17905550806128a481615687565b915050612865565b507f9254840a31138efc80f83032ab4395d9581ff3d4965cf12c2a936a91ae63a1378160016040516115ec9291906157da565b6128e7613c64565b600054600160b01b900460ff16806129095750600054600160a81b900460ff16155b15612b1d57612916614618565b61291f8261458a565b600b546001600160801b038083169161294291600160801b8204811691166156a0565b6001600160801b031610156129995760405162461bcd60e51b815260206004820152601f60248201527f696e73756666696369656e742061737369676e61626c652072657761726473006044820152606401610e0b565b600b80548291906000906129b79084906001600160801b03166156a0565b92506101000a8154816001600160801b0302191690836001600160801b0316021790555080600d60008282829054906101000a90046001600160801b03166129ff9190615660565b92506101000a8154816001600160801b0302191690836001600160801b031602179055507f4bd5444026d69324862c7672167ce81f25889ccc877c7ed481e4276183b6948a8282604051612a719291906001600160a01b039290921682526001600160801b0316602082015260400190565b60405180910390a16000826001600160a01b0316826001600160801b031660405160006040518083038185875af1925050503d8060008114612acf576040519150601f19603f3d011682016040523d82523d6000602084013e612ad4565b606091505b5050905080612b175760405162461bcd60e51b815260206004820152600f60248201526e151c985b9cd9995c8819985a5b1959608a1b6044820152606401610e0b565b50612b28565b612b28600036614650565b6119ea61416b565b612b38614217565b600e54604051632571bd6960e11b81526001600160a01b0392831692634ae37ad2923492612b70929091169087908790600401615a2c565b6000604051808303818588803b158015612b8957600080fd5b505af115801561188d573d6000803e3d6000fd5b600a8054610d4a906155fa565b612bb261483e565b60005b8151811015612c00576000612bd583838151811061158557611585615634565b9050612be081614898565b600101805460ff60b01b1916905580612bf881615687565b915050612bb5565b507f9254840a31138efc80f83032ab4395d9581ff3d4965cf12c2a936a91ae63a1378160006040516115ec9291906157da565b612c3b613c64565b6000612c45614217565b600f546040516348a6394f60e01b81526001600160a01b0391821660048201527f000000000000000000000000000000000000000000000000000000000000000060248201526001600160801b038616604482015284151560648201529116906348a6394f906084016020604051808303816000875af1158015612ccd573d6000803e3d6000fd5b505050506040513d601f19601f82011682018060405250810190612cf191906156c0565b905080600c60108282829054906101000a90046001600160801b0316612d179190615660565b92506101000a8154816001600160801b0302191690836001600160801b0316021790555060006001600160a01b0316336001600160a01b03167fddf252ad1be2c89b69c2b068fc378daa952ba7f163c4a11628f55a4df523b3ef83604051612d8e91906001600160801b0391909116815260200190565b60405180910390a3506119ea61416b565b600080612dab846144c5565b6001810154909150600160b01b900460ff1615612dcc576000915050610fb7565b6000612dd6613cf6565b6001600160a01b0385166000908152600684016020526040812054600585015492935091612e059083906159e9565b90506000805b82811015612ebb576000866005018581548110612e2a57612e2a615634565b9060005260206000200154905080861015612e455750612ebb565b600081815260048801602090815260408083206001600160a01b038d168452600281019092529091208054612e8c906001600160801b03600160801b8204811691166156a0565b612e969086615660565b945086612ea281615687565b9750505050508080612eb390615687565b915050612e0b565b50979650505050505050565b6000611aeb6148fa565b7f714f205b2abd25bef1d06a1af944e38c113fe6160375c4e1d6d5cf28848e7719546001600160a01b0316336001600160a01b031614612f4a5760405162461bcd60e51b815260206004820152601460248201527337b7363c9030b2323932b9b9903ab83230ba32b960611b6044820152606401610e0b565b612fa2612f7e83836040518060400160405280600e81526020016d20b2323932b9b9aab83230ba32b960911b815250614919565b7f714f205b2abd25bef1d06a1af944e38c113fe6160375c4e1d6d5cf28848e771955565b6119ea82826149f4565b612fb461483e565b6000612fbf836144c5565b6001810154909150600160b01b900460ff166130155760405162461bcd60e51b815260206004820152601560248201527418db185a5b5a5b99c81b9bdd08191a5cd8589b1959605a1b6044820152606401610e0b565b6000805b835181101561316057600083600401600086848151811061303c5761303c615634565b60209081029190910181015182528101919091526040016000908120600181015481549193506001600160801b038082169261308692600160801b908190048316929104166156a0565b61309091906156a0565b9050808260010160108282829054906101000a90046001600160801b03166130b89190615660565b92506101000a8154816001600160801b0302191690836001600160801b0316021790555080846130e89190615660565b93508583815181106130fc576130fc615634565b6020026020010151877f33aa7fa8693d9d4619857267f831d8a7ec7183176c4e0a0759e7604c5771e3088360405161314391906001600160801b0391909116815260200190565b60405180910390a35050808061315890615687565b915050613019565b50808260030160108282829054906101000a90046001600160801b03166131879190615660565b92506101000a8154816001600160801b0302191690836001600160801b0316021790555080600b60108282829054906101000a90046001600160801b03166131cf91906156a0565b82546001600160801b039182166101009390930a9283029190920219909116179055506001828101805460ff60a81b1916600160a81b1790556040805182815280820190915260009160208083019080368337019050509050848160008151811061323c5761323c615634565b6020026020010181815250507fb70968995a4c1e44f87ceefe95859ff83302d137a4c16289b2852e6c9f3a598381600160405161327a9291906157da565b60405180910390a15050505050565b61329161483e565b61329a8161458a565b601280546001600160a01b0319166001600160a01b0392909216919091179055565b6000806000806132cb856141b2565b600f54604051632d985e7b60e21b81526001600160a01b03918216600482015291925082169063b66179ec90602401602060405180830381865afa158015613317573d6000803e3d6000fd5b505050506040513d601f19601f8201168201806040525081019061333b9190615a13565b9350806001600160a01b03166327fda4de6040518163ffffffff1660e01b8152600401602060405180830381865afa15801561337b573d6000803e3d6000fd5b505050506040513d601f19601f8201168201806040525081019061339f9190615a13565b6040516302b5eedb60e21b81527f000000000000000000000000000000000000000000000000000000000000000060048201529093506001600160a01b03821690630ad7bb6c90602401602060405180830381865afa158015613406573d6000803e3d6000fd5b505050506040513d601f19601f8201168201806040525081019061342a9190615a13565b93959294505050565b60145460609081906001600160401b0381111561345257613452614ed4565b60405190808252806020026020018201604052801561348557816020015b60608152602001906001900390816134705790505b506014549092506001600160401b038111156134a3576134a3614ed4565b6040519080825280602002602001820160405280156134cc578160200160208202803683370190505b50905060005b60145481101561360c57601481815481106134ef576134ef615634565b9060005260206000209060070201600001805461350b906155fa565b80601f0160208091040260200160405190810160405280929190818152602001828054613537906155fa565b80156135845780601f1061355957610100808354040283529160200191613584565b820191906000526020600020905b81548152906001019060200180831161356757829003601f168201915b505050505083828151811061359b5761359b615634565b6020026020010181905250601481815481106135b9576135b9615634565b906000526020600020906007020160010160169054906101000a900460ff168282815181106135ea576135ea615634565b911515602092830291909101909101528061360481615687565b9150506134d2565b509091565b6000806000806000613622876144c5565b60009687526004016020525050604090932080546001909101546001600160801b0380831697600160801b93849004821697508183169650929091041692509050565b61366d61483e565b60005b81518110156136bb57600061369083838151811061158557611585615634565b905061369b81614898565b600101805460ff60a81b19169055806136b381615687565b915050613670565b507fb70968995a4c1e44f87ceefe95859ff83302d137a4c16289b2852e6c9f3a59838160006040516115ec9291906157da565b60405162461bcd60e51b815260206004820152601760248201527f616c6c6f77616e6365206e6f7420737570706f727465640000000000000000006044820152600090606401610e0b565b6000611aeb613cf6565b61374b61478d565b600681905560035461375e908290615707565b600355426005556040518181527fcf636cc80b637bbb81f27bae78adac0fb5b5dee402042a20c6febb1630d5b81b906020016115ec565b60008054600160a01b900460ff168015610fb75750600054604051630debfda360e41b81526001600160a01b0384811660048301529091169063debfda3090602401602060405180830381865afa1580156137f4573d6000803e3d6000fd5b505050506040513d601f19601f82011682018060405250810190610fb79190615a51565b6138206145cf565b600061382b866144c5565b90506138368361458a565b80613842858783615892565b50600181018054831515600160a01b026001600160a81b03199091166001600160a01b0386161717905560405186907f505f02470b9795494019aba2982a68c1c6fea88fcbe5d80bafc28963fbe3bbab906138a490889088908890889061597b565b60405180910390a2505050505050565b600054600160a01b900460ff16156139055760405162461bcd60e51b8152602060048201526014602482015273696e697469616c6973656420213d2066616c736560601b6044820152606401610e0b565b6001600160a01b03821661395b5760405162461bcd60e51b815260206004820152601860248201527f676f7665726e616e63652073657474696e6773207a65726f00000000000000006044820152606401610e0b565b6001600160a01b0381166139a45760405162461bcd60e51b815260206004820152601060248201526f5f676f7665726e616e6365207a65726f60801b6044820152606401610e0b565b600080546001600160a01b038481166001600160a81b031990921691909117600160a01b17909155600180549183166001600160a01b0319909216821790556040519081527f9789733827840833afc031fb2ef9ab6894271f77bad2085687cf4ae5c7bee4db9060200160405180910390a15050565b613a2261483e565b600054600160a81b900460ff1615613a7c5760405162461bcd60e51b815260206004820152601a60248201527f616c726561647920696e2070726f64756374696f6e206d6f64650000000000006044820152606401610e0b565b600180546001600160a01b031916905560008054600160a81b60ff60a81b198216179091556040516001600160a01b0390911681527f83af113638b5422f9e977cebc0aaf0eaf2188eb9a8baae7f9d46c42b33a1560c9060200160405180910390a1565b606060008060008060008060008060606000613afb8c6144c5565b600181015460028201546003830154835493945084936001600160a01b0384169360ff600160a01b8204811694600160a81b8304821694600160b01b909304909116926001600160801b0380831693600160801b938490048216938183169391049091169060058a01908a90613b70906155fa565b80601f0160208091040260200160405190810160405280929190818152602001828054613b9c906155fa565b8015613be95780601f10613bbe57610100808354040283529160200191613be9565b820191906000526020600020905b815481529060010190602001808311613bcc57829003601f168201915b5050505050995080805480602002602001604051908101604052809291908181526020018280548015613c3b57602002820191906000526020600020905b815481526020019060010190808311613c27575b505050505090509a509a509a509a509a509a509a509a509a509a50509193959799509193959799565b600034613c6f6148fa565b613c799190615707565b90504781811115613cbc5761dead6108fc613c9484846159e9565b6040518115909202916000818181858888f19350505050158015612441573d6000803e3d6000fd5b818110156119ea576119ea615a6e565b600260085403613cef57604051633ee5aeb560e01b815260040160405180910390fd5b6002600855565b600062278d00613d267f0000000000000000000000000000000000000000000000000000000000000000426159e9565b611aeb9190615a84565b600080613d3c856144c5565b6001810154909150600160b01b900460ff1615613d8f5760405162461bcd60e51b815260206004820152601160248201527018db185a5b5a5b99c8191a5cd8589b1959607a1b6044820152606401610e0b565b3360009081526006820160205260408120546005830154909190613db49083906159e9565b90506000816001600160401b03811115613dd057613dd0614ed4565b604051908082528060200260200182016040528015613df9578160200160208202803683370190505b5090506000826001600160401b03811115613e1657613e16614ed4565b604051908082528060200260200182016040528015613e3f578160200160208202803683370190505b50905060005b8381101561402e576000866005018681548110613e6457613e64615634565b90600052602060002001549050808a1015613e7f575061402e565b600081815260048801602090815260408083203384526002810190925290912085518390879086908110613eb557613eb5615634565b60209081029190910101528054600090613ee1906001600160801b03600160801b8204811691166156a0565b9050613eed818c615660565b600184018054919c508291600090613f0f9084906001600160801b0316615660565b92506101000a8154816001600160801b0302191690836001600160801b03160217905550808260000160108282829054906101000a90046001600160801b0316613f599190615660565b92506101000a8154816001600160801b0302191690836001600160801b031602179055506000816001600160801b0316111561400a57806001600160801b0316868681518110613fab57613fab615634565b602002602001018181525050336001600160a01b0316848f7f991476c3a75b7c98873b2a3ff8ea47ece4cad28a0b122c8064f619d37787424a8460405161400191906001600160801b0391909116815260200190565b60405180910390a45b8861401481615687565b99505050505050808061402690615687565b915050613e45565b5060038501805487919060009061404f9084906001600160801b0316615660565b92506101000a8154816001600160801b0302191690836001600160801b031602179055505b6000841180156140b95750866005860161408f6001876159e9565b8154811061409f5761409f615634565b906000526020600020015460016140b69190615707565b10155b156140d057836140c8816159fc565b945050614074565b33600090815260068601602052604090208490556140ec614217565b600f54604051632b8f98e160e21b81526001600160a01b039283169263ae3e6384926001600160801b038b169261412d929091169087908790600401615aa6565b6000604051808303818588803b15801561414657600080fd5b505af115801561415a573d6000803e3d6000fd5b505050505050505050509392505050565b6141736148fa565b4714611a525760405162461bcd60e51b815260206004820152600e60248201526d6f7574206f662062616c616e636560901b6044820152606401610e0b565b6001600160a01b0380821660009081526015602052604090205416806142125760405162461bcd60e51b81526020600482015260156024820152741b9bc819195b1959d85d1a5bdb881858d8dbdd5b9d605a1b6044820152606401610e0b565b919050565b336000908152601560205260409020546001600160a01b031680156142395790565b6011546001600160a01b03166142915760405162461bcd60e51b815260206004820152601b60248201527f6c6962726172792061646472657373206e6f74207365742079657400000000006044820152606401610e0b565b6011546142a6906001600160a01b0316614b9f565b9050803b63ffffffff166142fc5760405162461bcd60e51b815260206004820152601e60248201527f636c6f6e65206e6f742063726561746564207375636365737366756c6c7900006044820152606401610e0b565b60405163485cc95560e01b81523360048201523060248201526001600160a01b0382169063485cc95590604401600060405180830381600087803b15801561434357600080fd5b505af1158015614357573d6000803e3d6000fd5b505050506001600160a01b03811660008181526016602090815260408083208054336001600160a01b031991821681179092558185526015845293829020805490941685179093558051928352908201929092527f8a41ba947a8eca5f62495513410edea4a9d7f98e2a91b17a1c1cc0303426446e910160405180910390a1600e54604051631c4aa8ff60e31b81523360048201526000916001600160a01b03169063e25547f890602401602060405180830381865afa15801561441f573d6000803e3d6000fd5b505050506040513d601f19601f820116820180604052508101906144439190615a13565b9050806000036144c157600e5460408051600081526020810191829052632571bd6960e11b9091526001600160a01b0384811692634ae37ad29261448e929091169060248101615ae6565b600060405180830381600087803b1580156144a857600080fd5b505af11580156144bc573d6000803e3d6000fd5b505050505b5090565b601454600090821061450e5760405162461bcd60e51b81526020600482015260126024820152711a5b9d985b1a59081c1c9bda9958dd081a5960721b6044820152606401610e0b565b6014828154811061452157614521615634565b90600052602060002090600702019050919050565b6001810154600160a81b900460ff161561111a5760405162461bcd60e51b8152602060048201526015602482015274191a5cdd1c9a589d5d1a5bdb88191a5cd8589b1959605a1b6044820152606401610e0b565b6001600160a01b03811661111a5760405162461bcd60e51b815260206004820152600c60248201526b61646472657373207a65726f60a01b6044820152606401610e0b565b6012546001600160a01b03163314611a525760405162461bcd60e51b815260206004820152600c60248201526b37b7363c9036b0b730b3b2b960a11b6044820152606401610e0b565b600054600160b01b900460ff16156146485733301461463957614639615a6e565b6000805460ff60b01b19169055565b611a5261483e565b61465861483e565b6000805460408051636221a54b60e01b81529051853593926001600160a01b031691636221a54b9160048083019260209291908290030181865afa1580156146a4573d6000803e3d6000fd5b505050506040513d601f19601f820116820180604052508101906146c89190615a13565b905060006146d68242615707565b9050604051806040016040528082815260200186868080601f01602080910402602001604051908101604052809392919081815260200183838082843760009201829052509390945250506001600160e01b031986168152600260209081526040909120835181559083015190915060018201906147549082615b42565b509050507fed948300a3694aa01d4a6b258bfd664350193d770c0b51f8387277f6d83ea3b68382878760405161327a9493929190615c01565b6007546001600160a01b03163314611a525760405162461bcd60e51b8152602060048201526013602482015272696e63656e7469766520706f6f6c206f6e6c7960681b6044820152606401610e0b565b600b80543491906000906147fb9084906001600160801b0316615660565b92506101000a8154816001600160801b0302191690836001600160801b03160217905550565b3d604051818101604052816000823e821561483a578181f35b8181fd5b614846611a54565b6001600160a01b0316336001600160a01b031614611a525760405162461bcd60e51b815260206004820152600f60248201526e6f6e6c7920676f7665726e616e636560881b6044820152606401610e0b565b6003810154600160801b90046001600160801b03161561111a5760405162461bcd60e51b815260206004820152601d60248201527f636c61696d696e67207065726d616e656e746c792064697361626c65640000006044820152606401610e0b565b600c54600b54600091610f9e916001600160801b0391821691166156a0565b6000808260405160200161492d9190614cdf565b6040516020818303038152906040528051906020012090506000805b86518110156149a55786818151811061496457614964615634565b602002602001015183036149935785818151811061498457614984615634565b602002602001015191506149a5565b8061499d81615687565b915050614949565b506001600160a01b0381166149eb5760405162461bcd60e51b815260206004820152600c60248201526b61646472657373207a65726f60a01b6044820152606401610e0b565b95945050505050565b600d54600160801b900460ff1615614a1057614a108282614bf1565b614a4482826040518060400160405280601181526020017021b630b4b6a9b2ba3ab826b0b730b3b2b960791b815250614919565b600e60006101000a8154816001600160a01b0302191690836001600160a01b031602179055506000614a9383836040518060400160405280600481526020016315d3985d60e21b815250614919565b600f549091506001600160a01b0316614ac657600f80546001600160a01b0319166001600160a01b038316179055614b18565b600f546001600160a01b03828116911614614b185760405162461bcd60e51b815260206004820152601260248201527177726f6e6720774e6174206164647265737360701b6044820152606401610e0b565b806001600160a01b0316638c2b8ae16040518163ffffffff1660e01b8152600401602060405180830381865afa158015614b56573d6000803e3d6000fd5b505050506040513d601f19601f82011682018060405250810190614b7a91906159b0565b601080546001600160a01b0319166001600160a01b0392909216919091179055505050565b6000808260601b9050604051733d602d80600a3d3981f3363d3d373d3d3d363d7360601b81528160148201526e5af43d82803e903d91602b57fd5bf360881b60288201526037816000f0949350505050565b614c2182826040518060400160405280600d81526020016c125b98d95b9d1a5d99541bdbdb609a1b815250614919565b600780546001600160a01b0319166001600160a01b03929092169190911790555050565b508054614c51906155fa565b6000825580601f10614c61575050565b601f01602090049060005260206000209081019061111a91905b808211156144c15760008155600101614c7b565b60005b83811015614caa578181015183820152602001614c92565b50506000910152565b60008151808452614ccb816020860160208601614c8f565b601f01601f19169290920160200192915050565b602081526000610f756020830184614cb3565b6001600160a01b038116811461111a57600080fd5b60008060408385031215614d1a57600080fd5b8235614d2581614cf2565b946020939093013593505050565b60008083601f840112614d4557600080fd5b5081356001600160401b03811115614d5c57600080fd5b6020830191508360208260051b8501011115614d7757600080fd5b9250929050565b600080600060408486031215614d9357600080fd5b83356001600160401b03811115614da957600080fd5b614db586828701614d33565b909790965060209590950135949350505050565b600060208284031215614ddb57600080fd5b8135610f7581614cf2565b801515811461111a57600080fd5b600060208284031215614e0657600080fd5b8135610f7581614de6565b600080600060608486031215614e2657600080fd5b8335614e3181614cf2565b92506020840135614e4181614cf2565b929592945050506040919091013590565b60008060008060008060808789031215614e6b57600080fd5b863595506020870135945060408701356001600160401b0380821115614e9057600080fd5b614e9c8a838b01614d33565b90965094506060890135915080821115614eb557600080fd5b50614ec289828a01614d33565b979a9699509497509295939492505050565b634e487b7160e01b600052604160045260246000fd5b604051601f8201601f191681016001600160401b0381118282101715614f1257614f12614ed4565b604052919050565b60006001600160401b03821115614f3357614f33614ed4565b5060051b60200190565b600082601f830112614f4e57600080fd5b81356020614f63614f5e83614f1a565b614eea565b82815260059290921b84018101918181019086841115614f8257600080fd5b8286015b84811015614f9d5780358352918301918301614f86565b509695505050505050565b600060208284031215614fba57600080fd5b81356001600160401b03811115614fd057600080fd5b614fdc84828501614f3d565b949350505050565b600080600060608486031215614ff957600080fd5b8335925060208401359150604084013561501281614cf2565b809150509250925092565b6000806000806000806060878903121561503657600080fd5b86356001600160401b038082111561504d57600080fd5b6150598a838b01614d33565b9098509650602089013591508082111561507257600080fd5b61507e8a838b01614d33565b90965094506040890135915080821115614eb557600080fd5b6000602082840312156150a957600080fd5b81356001600160e01b031981168114610f7557600080fd5b6000806000806000606086880312156150d957600080fd5b8535945060208601356001600160401b03808211156150f757600080fd5b61510389838a01614d33565b9096509450604088013591508082111561511c57600080fd5b5061512988828901614d33565b969995985093965092949392505050565b6000806040838503121561514d57600080fd5b8235915060208301356001600160401b0381111561516a57600080fd5b61517685828601614f3d565b9150509250929050565b828152604060208201526000614fdc6040830184614cb3565b6001600160801b038116811461111a57600080fd5b600080604083850312156151c157600080fd5b82356151cc81614cf2565b915060208301356151dc81615199565b809150509250929050565b600080602083850312156151fa57600080fd5b82356001600160401b0381111561521057600080fd5b61521c85828601614d33565b90969095509350505050565b6000806040838503121561523b57600080fd5b823561524681615199565b915060208301356151dc81614de6565b6000806040838503121561526957600080fd5b8235915060208301356151dc81614cf2565b600082601f83011261528c57600080fd5b8135602061529c614f5e83614f1a565b82815260059290921b840181019181810190868411156152bb57600080fd5b8286015b84811015614f9d5780356152d281614cf2565b83529183019183016152bf565b600080604083850312156152f257600080fd5b82356001600160401b038082111561530957600080fd5b818501915085601f83011261531d57600080fd5b8135602061532d614f5e83614f1a565b82815260059290921b8401810191818101908984111561534c57600080fd5b948201945b8386101561536a57853582529482019490820190615351565b9650508601359250508082111561538057600080fd5b506151768582860161527b565b6000604082016040835280855180835260608501915060608160051b8601019250602080880160005b838110156153e457605f198887030185526153d2868351614cb3565b955093820193908201906001016153b6565b50508584038187015286518085528782019482019350915060005b8281101561541d5784511515845293810193928101926001016153ff565b5091979650505050505050565b6000806040838503121561543d57600080fd5b50508035926020909101359150565b6000806040838503121561545f57600080fd5b823561546a81614cf2565b915060208301356151dc81614cf2565b60006020828403121561548c57600080fd5b5035919050565b6000806000806000608086880312156154ab57600080fd5b8535945060208601356001600160401b03808211156154c957600080fd5b818801915088601f8301126154dd57600080fd5b8135818111156154ec57600080fd5b8960208285010111156154fe57600080fd5b602083019650809550505050604086013561551881614cf2565b9150606086013561552881614de6565b809150509295509295909350565b600081518084526020808501945080840160005b838110156155665781518752958201959082019060010161554a565b509495945050505050565b60006101408083526155858184018e614cb3565b6001600160a01b038d1660208501528b151560408501528a1515606085015289151560808501526001600160801b0389811660a086015288811660c086015287811660e0860152861661010085015283810361012085015290506155e98185615536565b9d9c50505050505050505050505050565b600181811c9082168061560e57607f821691505b60208210810361562e57634e487b7160e01b600052602260045260246000fd5b50919050565b634e487b7160e01b600052603260045260246000fd5b634e487b7160e01b600052601160045260246000fd5b6001600160801b038181168382160190808211156156805761568061564a565b5092915050565b6000600182016156995761569961564a565b5060010190565b6001600160801b038281168282160390808211156156805761568061564a565b6000602082840312156156d257600080fd5b8151610f7581615199565b60208082526010908201526f0d8cadccee8d0e640dad2e6dac2e8c6d60831b604082015260600190565b80820180821115610fb757610fb761564a565b60006020828403121561572c57600080fd5b8135610f7581615199565b8183526000602080850194508260005b8581101561556657813561575a81614cf2565b6001600160a01b031687529582019590820190600101615747565b604081526000615789604083018688615737565b8281036020848101919091528482528591810160005b868110156157cd5783356157b281615199565b6001600160801b03168252928201929082019060010161579f565b5098975050505050505050565b6040815260006157ed6040830185615536565b905082151560208301529392505050565b6000808335601e1984360301811261581557600080fd5b8301803591506001600160401b0382111561582f57600080fd5b602001915036819003821315614d7757600080fd5b601f82111561244157600081815260208120601f850160051c8101602086101561586b5750805b601f850160051c820191505b8181101561588a57828155600101615877565b505050505050565b6001600160401b038311156158a9576158a9614ed4565b6158bd836158b783546155fa565b83615844565b6000601f8411600181146158f157600085156158d95750838201355b600019600387901b1c1916600186901b17835561594b565b600083815260209020601f19861690835b828110156159225786850135825560209485019460019092019101615902565b508682101561593f5760001960f88860031b161c19848701351681555b505060018560011b0183555b5050505050565b81835281816020850137506000828201602090810191909152601f909101601f19169091010190565b60608152600061598f606083018688615952565b6001600160a01b039490941660208301525090151560409091015292915050565b6000602082840312156159c257600080fd5b8151610f7581614cf2565b600082516159df818460208701614c8f565b9190910192915050565b81810381811115610fb757610fb761564a565b600081615a0b57615a0b61564a565b506000190190565b600060208284031215615a2557600080fd5b5051919050565b6001600160a01b03841681526040602082018190526000906149eb9083018486615737565b600060208284031215615a6357600080fd5b8151610f7581614de6565b634e487b7160e01b600052600160045260246000fd5b600082615aa157634e487b7160e01b600052601260045260246000fd5b500490565b6001600160a01b0384168152606060208201819052600090615aca90830185615536565b8281036040840152615adc8185615536565b9695505050505050565b6001600160a01b038381168252604060208084018290528451918401829052600092858201929091906060860190855b81811015615b34578551851683529483019491830191600101615b16565b509098975050505050505050565b81516001600160401b03811115615b5b57615b5b614ed4565b615b6f81615b6984546155fa565b84615844565b602080601f831160018114615ba45760008415615b8c5750858301515b600019600386901b1c1916600185901b17855561588a565b600085815260208120601f198616915b82811015615bd357888601518255948401946001909101908401615bb4565b5085821015615bf15787850151600019600388901b60f8161c191681555b5050505050600190811b01905550565b63ffffffff60e01b85168152836020820152606060408201526000615adc60608301848661595256fea2646970667358221220877806035f94f92f2b2454b2f3ced642b7b517e81b12539ca1333a1ed3b7fa8d64736f6c63430008140033",
  "linkReferences": {},
  "deployedLinkReferences": {}
}