{
  "_format": "hh-sol-artifact-1",
  "contractName": "RNat",
  "sourceName": "contracts/rNat/implementation/RNat.sol",
  "abi": [
    {
      "inputs": [
        {
          "internalType": "contract IGovernanceSettings",
          "name": "_governanceSettings",
          "type": "address"
        },
        {
          "internalType": "address",
          "name": "_initialGovernance",
          "type": "address"
        },
        {
          "internalType": "address",
          "name": "_addressUpdater",
          "type": "address"
        },
        {
          "internalType": "string",
          "name": "_name",
          "type": "string"
        },
        {
          "internalType": "string",
          "name": "_symbol",
          "type": "string"
        },
        {
          "internalType": "uint8",
          "name": "_decimals",
          "type": "uint8"
        },
        {
          "internalType": "address",
          "name": "_manager",
          "type": "address"
        },
        {
          "internalType": "address[]",
          "name": "_fundingAddresses",
          "type": "address[]"
        },
        {
          "internalType": "uint256",
          "name": "_firstMonthStartTs",
          "type": "uint256"
        }
      ],
      "stateMutability": "nonpayable",
      "type": "constructor"
    },
    {
      "inputs": [],
      "name": "ReentrancyGuardReentrantCall",
      "type": "error"
    },
    {
      "anonymous": false,
      "inputs": [
        {
          "indexed": true,
          "internalType": "address",
          "name": "owner",
          "type": "address"
        },
        {
          "indexed": true,
          "internalType": "address",
          "name": "spender",
          "type": "address"
        },
        {
          "indexed": false,
          "internalType": "uint256",
          "name": "value",
          "type": "uint256"
        }
      ],
      "name": "Approval",
      "type": "event"
    },
    {
      "anonymous": false,
      "inputs": [
        {
          "indexed": false,
          "internalType": "bytes4",
          "name": "selector",
          "type": "bytes4"
        },
        {
          "indexed": false,
          "internalType": "uint256",
          "name": "allowedAfterTimestamp",
          "type": "uint256"
        },
        {
          "indexed": false,
          "internalType": "bytes",
          "name": "encodedCall",
          "type": "bytes"
        }
      ],
      "name": "GovernanceCallTimelocked",
      "type": "event"
    },
    {
      "anonymous": false,
      "inputs": [
        {
          "indexed": false,
          "internalType": "address",
          "name": "initialGovernance",
          "type": "address"
        }
      ],
      "name": "GovernanceInitialised",
      "type": "event"
    },
    {
      "anonymous": false,
      "inputs": [
        {
          "indexed": false,
          "internalType": "address",
          "name": "governanceSettings",
          "type": "address"
        }
      ],
      "name": "GovernedProductionModeEntered",
      "type": "event"
    },
    {
      "anonymous": false,
      "inputs": [
        {
          "indexed": false,
          "internalType": "address",
          "name": "libraryAddress",
          "type": "address"
        }
      ],
      "name": "LibraryAddressSet",
      "type": "event"
    },
    {
      "anonymous": false,
      "inputs": [
        {
          "indexed": true,
          "internalType": "uint256",
          "name": "id",
          "type": "uint256"
        },
        {
          "indexed": false,
          "internalType": "string",
          "name": "name",
          "type": "string"
        },
        {
          "indexed": false,
          "internalType": "address",
          "name": "distributor",
          "type": "address"
        },
        {
          "indexed": false,
          "internalType": "bool",
          "name": "currentMonthDistributionEnabled",
          "type": "bool"
        }
      ],
      "name": "ProjectAdded",
      "type": "event"
    },
    {
      "anonymous": false,
      "inputs": [
        {
          "indexed": true,
          "internalType": "uint256",
          "name": "id",
          "type": "uint256"
        },
        {
          "indexed": false,
          "internalType": "string",
          "name": "name",
          "type": "string"
        },
        {
          "indexed": false,
          "internalType": "address",
          "name": "distributor",
          "type": "address"
        },
        {
          "indexed": false,
          "internalType": "bool",
          "name": "currentMonthDistributionEnabled",
          "type": "bool"
        }
      ],
      "name": "ProjectUpdated",
      "type": "event"
    },
    {
      "anonymous": false,
      "inputs": [
        {
          "indexed": false,
          "internalType": "address",
          "name": "owner",
          "type": "address"
        },
        {
          "indexed": false,
          "internalType": "contract IRNatDelegationAccount",
          "name": "delegationAccount",
          "type": "address"
        }
      ],
      "name": "RNatDelegationAccountCreated",
      "type": "event"
    },
    {
      "anonymous": false,
      "inputs": [
        {
          "indexed": true,
          "internalType": "uint256",
          "name": "projectId",
          "type": "uint256"
        },
        {
          "indexed": true,
          "internalType": "uint256",
          "name": "month",
          "type": "uint256"
        },
        {
          "indexed": false,
          "internalType": "uint128",
          "name": "amount",
          "type": "uint128"
        }
      ],
      "name": "RewardsAssigned",
      "type": "event"
    },
    {
      "anonymous": false,
      "inputs": [
        {
          "indexed": true,
          "internalType": "uint256",
          "name": "projectId",
          "type": "uint256"
        },
        {
          "indexed": true,
          "internalType": "uint256",
          "name": "month",
          "type": "uint256"
        },
        {
          "indexed": false,
          "internalType": "uint128",
          "name": "amount",
          "type": "uint128"
        }
      ],
      "name": "RewardsBurned",
      "type": "event"
    },
    {
      "anonymous": false,
      "inputs": [
        {
          "indexed": true,
          "internalType": "uint256",
          "name": "projectId",
          "type": "uint256"
        },
        {
          "indexed": true,
          "internalType": "uint256",
          "name": "month",
          "type": "uint256"
        },
        {
          "indexed": true,
          "internalType": "address",
          "name": "owner",
          "type": "address"
        },
        {
          "indexed": false,
          "internalType": "uint128",
          "name": "amount",
          "type": "uint128"
        }
      ],
      "name": "RewardsClaimed",
      "type": "event"
    },
    {
      "anonymous": false,
      "inputs": [
        {
          "indexed": true,
          "internalType": "uint256",
          "name": "projectId",
          "type": "uint256"
        },
        {
          "indexed": true,
          "internalType": "uint256",
          "name": "month",
          "type": "uint256"
        },
        {
          "indexed": false,
          "internalType": "address[]",
          "name": "recipients",
          "type": "address[]"
        },
        {
          "indexed": false,
          "internalType": "uint128[]",
          "name": "amounts",
          "type": "uint128[]"
        }
      ],
      "name": "RewardsDistributed",
      "type": "event"
    },
    {
      "anonymous": false,
      "inputs": [
        {
          "indexed": false,
          "internalType": "bytes4",
          "name": "selector",
          "type": "bytes4"
        },
        {
          "indexed": false,
          "internalType": "uint256",
          "name": "timestamp",
          "type": "uint256"
        }
      ],
      "name": "TimelockedGovernanceCallCanceled",
      "type": "event"
    },
    {
      "anonymous": false,
      "inputs": [
        {
          "indexed": false,
          "internalType": "bytes4",
          "name": "selector",
          "type": "bytes4"
        },
        {
          "indexed": false,
          "internalType": "uint256",
          "name": "timestamp",
          "type": "uint256"
        }
      ],
      "name": "TimelockedGovernanceCallExecuted",
      "type": "event"
    },
    {
      "anonymous": false,
      "inputs": [
        {
          "indexed": true,
          "internalType": "address",
          "name": "from",
          "type": "address"
        },
        {
          "indexed": true,
          "internalType": "address",
          "name": "to",
          "type": "address"
        },
        {
          "indexed": false,
          "internalType": "uint256",
          "name": "value",
          "type": "uint256"
        }
      ],
      "name": "Transfer",
      "type": "event"
    },
    {
      "inputs": [
        {
          "internalType": "string[]",
          "name": "_names",
          "type": "string[]"
        },
        {
          "internalType": "address[]",
          "name": "_distributors",
          "type": "address[]"
        },
        {
          "internalType": "bool[]",
          "name": "_currentMonthDistributionEnabledList",
          "type": "bool[]"
        }
      ],
      "name": "addProjects",
      "outputs": [],
      "stateMutability": "nonpayable",
      "type": "function"
    },
    {
      "inputs": [
        {
          "internalType": "address",
          "name": "",
          "type": "address"
        },
        {
          "internalType": "address",
          "name": "",
          "type": "address"
        }
      ],
      "name": "allowance",
      "outputs": [
        {
          "internalType": "uint256",
          "name": "",
          "type": "uint256"
        }
      ],
      "stateMutability": "pure",
      "type": "function"
    },
    {
      "inputs": [
        {
          "internalType": "address",
          "name": "",
          "type": "address"
        },
        {
          "internalType": "uint256",
          "name": "",
          "type": "uint256"
        }
      ],
      "name": "approve",
      "outputs": [
        {
          "internalType": "bool",
          "name": "",
          "type": "bool"
        }
      ],
      "stateMutability": "pure",
      "type": "function"
    },
    {
      "inputs": [
        {
          "internalType": "uint256",
          "name": "_month",
          "type": "uint256"
        },
        {
          "internalType": "uint256[]",
          "name": "_projectIds",
          "type": "uint256[]"
        },
        {
          "internalType": "uint128[]",
          "name": "_amounts",
          "type": "uint128[]"
        }
      ],
      "name": "assignRewards",
      "outputs": [],
      "stateMutability": "nonpayable",
      "type": "function"
    },
    {
      "inputs": [
        {
          "internalType": "address",
          "name": "_owner",
          "type": "address"
        }
      ],
      "name": "balanceOf",
      "outputs": [
        {
          "internalType": "uint256",
          "name": "",
          "type": "uint256"
        }
      ],
      "stateMutability": "view",
      "type": "function"
    },
    {
      "inputs": [
        {
          "internalType": "address[]",
          "name": "_delegatees",
          "type": "address[]"
        },
        {
          "internalType": "uint256[]",
          "name": "_bips",
          "type": "uint256[]"
        }
      ],
      "name": "batchDelegate",
      "outputs": [],
      "stateMutability": "nonpayable",
      "type": "function"
    },
    {
      "inputs": [
        {
          "internalType": "uint256",
          "name": "_projectId",
          "type": "uint256"
        },
        {
          "internalType": "uint256",
          "name": "_month",
          "type": "uint256"
        }
      ],
      "name": "burnUndistributedRewards",
      "outputs": [],
      "stateMutability": "nonpayable",
      "type": "function"
    },
    {
      "inputs": [
        {
          "internalType": "bytes4",
          "name": "_selector",
          "type": "bytes4"
        }
      ],
      "name": "cancelGovernanceCall",
      "outputs": [],
      "stateMutability": "nonpayable",
      "type": "function"
    },
    {
      "inputs": [
        {
          "internalType": "uint256[]",
          "name": "_projectIds",
          "type": "uint256[]"
        },
        {
          "internalType": "uint256",
          "name": "_month",
          "type": "uint256"
        }
      ],
      "name": "claimRewards",
      "outputs": [],
      "stateMutability": "nonpayable",
      "type": "function"
    },
    {
      "inputs": [],
      "name": "claimSetupManager",
      "outputs": [
        {
          "internalType": "contract IIClaimSetupManager",
          "name": "",
          "type": "address"
        }
      ],
      "stateMutability": "view",
      "type": "function"
    },
    {
      "inputs": [],
      "name": "decimals",
      "outputs": [
        {
          "internalType": "uint8",
          "name": "",
          "type": "uint8"
        }
      ],
      "stateMutability": "view",
      "type": "function"
    },
    {
      "inputs": [
        {
          "internalType": "address",
          "name": "_to",
          "type": "address"
        },
        {
          "internalType": "uint256",
          "name": "_bips",
          "type": "uint256"
        }
      ],
      "name": "delegate",
      "outputs": [],
      "stateMutability": "nonpayable",
      "type": "function"
    },
    {
      "inputs": [
        {
          "internalType": "address",
          "name": "_to",
          "type": "address"
        }
      ],
      "name": "delegateGovernance",
      "outputs": [],
      "stateMutability": "nonpayable",
      "type": "function"
    },
    {
      "inputs": [
        {
          "internalType": "uint256",
          "name": "_projectId",
          "type": "uint256"
        },
        {
          "internalType": "uint256",
          "name": "_month",
          "type": "uint256"
        },
        {
          "internalType": "address[]",
          "name": "_recipients",
          "type": "address[]"
        },
        {
          "internalType": "uint128[]",
          "name": "_amounts",
          "type": "uint128[]"
        }
      ],
      "name": "distributeRewards",
      "outputs": [],
      "stateMutability": "nonpayable",
      "type": "function"
    },
    {
      "inputs": [
        {
          "internalType": "bytes4",
          "name": "_selector",
          "type": "bytes4"
        }
      ],
      "name": "executeGovernanceCall",
      "outputs": [],
      "stateMutability": "nonpayable",
      "type": "function"
    },
    {
      "inputs": [],
      "name": "firstMonthStartTs",
      "outputs": [
        {
          "internalType": "uint256",
          "name": "",
          "type": "uint256"
        }
      ],
      "stateMutability": "view",
      "type": "function"
    },
    {
      "inputs": [],
      "name": "getAddressUpdater",
      "outputs": [
        {
          "internalType": "address",
          "name": "_addressUpdater",
          "type": "address"
        }
      ],
      "stateMutability": "view",
      "type": "function"
    },
    {
      "inputs": [
        {
          "internalType": "address",
          "name": "_owner",
          "type": "address"
        }
      ],
      "name": "getBalancesOf",
      "outputs": [
        {
          "internalType": "uint256",
          "name": "_wNatBalance",
          "type": "uint256"
        },
        {
          "internalType": "uint256",
          "name": "_rNatBalance",
          "type": "uint256"
        },
        {
          "internalType": "uint256",
          "name": "_lockedBalance",
          "type": "uint256"
        }
      ],
      "stateMutability": "view",
      "type": "function"
    },
    {
      "inputs": [
        {
          "internalType": "uint256",
          "name": "_projectId",
          "type": "uint256"
        },
        {
          "internalType": "address",
          "name": "_owner",
          "type": "address"
        }
      ],
      "name": "getClaimableRewards",
      "outputs": [
        {
          "internalType": "uint128",
          "name": "",
          "type": "uint128"
        }
      ],
      "stateMutability": "view",
      "type": "function"
    },
    {
      "inputs": [],
      "name": "getCurrentMonth",
      "outputs": [
        {
          "internalType": "uint256",
          "name": "",
          "type": "uint256"
        }
      ],
      "stateMutability": "view",
      "type": "function"
    },
    {
      "inputs": [],
      "name": "getFundingAddresses",
      "outputs": [
        {
          "internalType": "address[]",
          "name": "",
          "type": "address[]"
        }
      ],
      "stateMutability": "view",
      "type": "function"
    },
    {
      "inputs": [
        {
          "internalType": "uint256",
          "name": "_projectId",
          "type": "uint256"
        },
        {
          "internalType": "uint256",
          "name": "_month",
          "type": "uint256"
        },
        {
          "internalType": "address",
          "name": "_owner",
          "type": "address"
        }
      ],
      "name": "getOwnerRewardsInfo",
      "outputs": [
        {
          "internalType": "uint128",
          "name": "_assignedRewards",
          "type": "uint128"
        },
        {
          "internalType": "uint128",
          "name": "_claimedRewards",
          "type": "uint128"
        }
      ],
      "stateMutability": "view",
      "type": "function"
    },
    {
      "inputs": [
        {
          "internalType": "uint256",
          "name": "_projectId",
          "type": "uint256"
        }
      ],
      "name": "getProjectInfo",
      "outputs": [
        {
          "internalType": "string",
          "name": "_name",
          "type": "string"
        },
        {
          "internalType": "address",
          "name": "_distributor",
          "type": "address"
        },
        {
          "internalType": "uint128",
          "name": "_totalAssignedRewards",
          "type": "uint128"
        },
        {
          "internalType": "uint128",
          "name": "_totalDistributedRewards",
          "type": "uint128"
        },
        {
          "internalType": "uint128",
          "name": "_totalClaimedRewards",
          "type": "uint128"
        },
        {
          "internalType": "uint128",
          "name": "_totalBurnedRewards",
          "type": "uint128"
        },
        {
          "internalType": "uint256[]",
          "name": "monthsWithRewards",
          "type": "uint256[]"
        }
      ],
      "stateMutability": "view",
      "type": "function"
    },
    {
      "inputs": [],
      "name": "getProjectNames",
      "outputs": [
        {
          "internalType": "string[]",
          "name": "_names",
          "type": "string[]"
        }
      ],
      "stateMutability": "view",
      "type": "function"
    },
    {
      "inputs": [
        {
          "internalType": "uint256",
          "name": "_projectId",
          "type": "uint256"
        },
        {
          "internalType": "uint256",
          "name": "_month",
          "type": "uint256"
        }
      ],
      "name": "getProjectRewardsInfo",
      "outputs": [
        {
          "internalType": "uint128",
          "name": "_assignedRewards",
          "type": "uint128"
        },
        {
          "internalType": "uint128",
          "name": "_distributedRewards",
          "type": "uint128"
        },
        {
          "internalType": "uint128",
          "name": "_claimedRewards",
          "type": "uint128"
        },
        {
          "internalType": "uint128",
          "name": "_burnedRewards",
          "type": "uint128"
        }
      ],
      "stateMutability": "view",
      "type": "function"
    },
    {
      "inputs": [],
      "name": "getProjectsCount",
      "outputs": [
        {
          "internalType": "uint256",
          "name": "",
          "type": "uint256"
        }
      ],
      "stateMutability": "view",
      "type": "function"
    },
    {
      "inputs": [
        {
          "internalType": "address",
          "name": "_owner",
          "type": "address"
        }
      ],
      "name": "getRNatDelegationAccount",
      "outputs": [
        {
          "internalType": "contract IRNatDelegationAccount",
          "name": "",
          "type": "address"
        }
      ],
      "stateMutability": "view",
      "type": "function"
    },
    {
      "inputs": [],
      "name": "governance",
      "outputs": [
        {
          "internalType": "address",
          "name": "",
          "type": "address"
        }
      ],
      "stateMutability": "view",
      "type": "function"
    },
    {
      "inputs": [],
      "name": "governanceSettings",
      "outputs": [
        {
          "internalType": "contract IGovernanceSettings",
          "name": "",
          "type": "address"
        }
      ],
      "stateMutability": "view",
      "type": "function"
    },
    {
      "inputs": [],
      "name": "governanceVP",
      "outputs": [
        {
          "internalType": "contract IGovernanceVotePower",
          "name": "",
          "type": "address"
        }
      ],
      "stateMutability": "view",
      "type": "function"
    },
    {
      "inputs": [
        {
          "internalType": "contract IGovernanceSettings",
          "name": "_governanceSettings",
          "type": "address"
        },
        {
          "internalType": "address",
          "name": "_initialGovernance",
          "type": "address"
        }
      ],
      "name": "initialise",
      "outputs": [],
      "stateMutability": "nonpayable",
      "type": "function"
    },
    {
      "inputs": [
        {
          "internalType": "address",
          "name": "_address",
          "type": "address"
        }
      ],
      "name": "isExecutor",
      "outputs": [
        {
          "internalType": "bool",
          "name": "",
          "type": "bool"
        }
      ],
      "stateMutability": "view",
      "type": "function"
    },
    {
      "inputs": [],
      "name": "libraryAddress",
      "outputs": [
        {
          "internalType": "address",
          "name": "",
          "type": "address"
        }
      ],
      "stateMutability": "view",
      "type": "function"
    },
    {
      "inputs": [],
      "name": "manager",
      "outputs": [
        {
          "internalType": "address",
          "name": "",
          "type": "address"
        }
      ],
      "stateMutability": "view",
      "type": "function"
    },
    {
      "inputs": [],
      "name": "name",
      "outputs": [
        {
          "internalType": "string",
          "name": "",
          "type": "string"
        }
      ],
      "stateMutability": "view",
      "type": "function"
    },
    {
      "inputs": [],
      "name": "productionMode",
      "outputs": [
        {
          "internalType": "bool",
          "name": "",
          "type": "bool"
        }
      ],
      "stateMutability": "view",
      "type": "function"
    },
    {
      "inputs": [],
      "name": "receiveRewards",
      "outputs": [],
      "stateMutability": "payable",
      "type": "function"
    },
    {
      "inputs": [
        {
          "internalType": "address",
          "name": "_who",
          "type": "address"
        },
        {
          "internalType": "uint256",
          "name": "_blockNumber",
          "type": "uint256"
        }
      ],
      "name": "revokeDelegationAt",
      "outputs": [],
      "stateMutability": "nonpayable",
      "type": "function"
    },
    {
      "inputs": [
        {
          "internalType": "address[]",
          "name": "_fundingAddresses",
          "type": "address[]"
        }
      ],
      "name": "setFundingAddresses",
      "outputs": [],
      "stateMutability": "nonpayable",
      "type": "function"
    },
    {
      "inputs": [
        {
          "internalType": "address",
          "name": "_libraryAddress",
          "type": "address"
        }
      ],
      "name": "setLibraryAddress",
      "outputs": [],
      "stateMutability": "nonpayable",
      "type": "function"
    },
    {
      "inputs": [
        {
          "internalType": "address",
          "name": "_manager",
          "type": "address"
        }
      ],
      "name": "setManager",
      "outputs": [],
      "stateMutability": "nonpayable",
      "type": "function"
    },
    {
      "inputs": [],
      "name": "switchToProductionMode",
      "outputs": [],
      "stateMutability": "nonpayable",
      "type": "function"
    },
    {
      "inputs": [],
      "name": "symbol",
      "outputs": [
        {
          "internalType": "string",
          "name": "",
          "type": "string"
        }
      ],
      "stateMutability": "view",
      "type": "function"
    },
    {
      "inputs": [
        {
          "internalType": "bytes4",
          "name": "selector",
          "type": "bytes4"
        }
      ],
      "name": "timelockedCalls",
      "outputs": [
        {
          "internalType": "uint256",
          "name": "allowedAfterTimestamp",
          "type": "uint256"
        },
        {
          "internalType": "bytes",
          "name": "encodedCall",
          "type": "bytes"
        }
      ],
      "stateMutability": "view",
      "type": "function"
    },
    {
      "inputs": [],
      "name": "totalAssignableRewards",
      "outputs": [
        {
          "internalType": "uint128",
          "name": "",
          "type": "uint128"
        }
      ],
      "stateMutability": "view",
      "type": "function"
    },
    {
      "inputs": [],
      "name": "totalAssignedRewards",
      "outputs": [
        {
          "internalType": "uint128",
          "name": "",
          "type": "uint128"
        }
      ],
      "stateMutability": "view",
      "type": "function"
    },
    {
      "inputs": [],
      "name": "totalSupply",
      "outputs": [
        {
          "internalType": "uint256",
          "name": "",
          "type": "uint256"
        }
      ],
      "stateMutability": "view",
      "type": "function"
    },
    {
      "inputs": [
        {
          "internalType": "address",
          "name": "",
          "type": "address"
        },
        {
          "internalType": "uint256",
          "name": "",
          "type": "uint256"
        }
      ],
      "name": "transfer",
      "outputs": [
        {
          "internalType": "bool",
          "name": "",
          "type": "bool"
        }
      ],
      "stateMutability": "pure",
      "type": "function"
    },
    {
      "inputs": [
        {
          "internalType": "contract IERC20",
          "name": "_token",
          "type": "address"
        },
        {
          "internalType": "uint256",
          "name": "_amount",
          "type": "uint256"
        }
      ],
      "name": "transferExternalToken",
      "outputs": [],
      "stateMutability": "nonpayable",
      "type": "function"
    },
    {
      "inputs": [
        {
          "internalType": "address",
          "name": "",
          "type": "address"
        },
        {
          "internalType": "address",
          "name": "",
          "type": "address"
        },
        {
          "internalType": "uint256",
          "name": "",
          "type": "uint256"
        }
      ],
      "name": "transferFrom",
      "outputs": [
        {
          "internalType": "bool",
          "name": "",
          "type": "bool"
        }
      ],
      "stateMutability": "pure",
      "type": "function"
    },
    {
      "inputs": [],
      "name": "undelegateAll",
      "outputs": [],
      "stateMutability": "nonpayable",
      "type": "function"
    },
    {
      "inputs": [],
      "name": "undelegateGovernance",
      "outputs": [],
      "stateMutability": "nonpayable",
      "type": "function"
    },
    {
      "inputs": [
        {
          "internalType": "bytes32[]",
          "name": "_contractNameHashes",
          "type": "bytes32[]"
        },
        {
          "internalType": "address[]",
          "name": "_contractAddresses",
          "type": "address[]"
        }
      ],
      "name": "updateContractAddresses",
      "outputs": [],
      "stateMutability": "nonpayable",
      "type": "function"
    },
    {
      "inputs": [
        {
          "internalType": "uint256",
          "name": "_projectId",
          "type": "uint256"
        },
        {
          "internalType": "string",
          "name": "_name",
          "type": "string"
        },
        {
          "internalType": "address",
          "name": "_distributor",
          "type": "address"
        },
        {
          "internalType": "bool",
          "name": "_currentMonthDistributionEnabled",
          "type": "bool"
        }
      ],
      "name": "updateProject",
      "outputs": [],
      "stateMutability": "nonpayable",
      "type": "function"
    },
    {
      "inputs": [],
      "name": "wNat",
      "outputs": [
        {
          "internalType": "contract IWNat",
          "name": "",
          "type": "address"
        }
      ],
      "stateMutability": "view",
      "type": "function"
    },
    {
      "inputs": [
        {
          "internalType": "uint256",
          "name": "_amount",
          "type": "uint256"
        },
        {
          "internalType": "bool",
          "name": "_wrap",
          "type": "bool"
        }
      ],
      "name": "withdraw",
      "outputs": [],
      "stateMutability": "nonpayable",
      "type": "function"
    },
    {
      "inputs": [
        {
          "internalType": "bool",
          "name": "_wrap",
          "type": "bool"
        }
      ],
      "name": "withdrawAll",
      "outputs": [],
      "stateMutability": "nonpayable",
      "type": "function"
    },
    {
      "inputs": [
        {
          "internalType": "address",
          "name": "_recipient",
          "type": "address"
        }
      ],
      "name": "withdrawUnassignedRewards",
      "outputs": [],
      "stateMutability": "nonpayable",
      "type": "function"
    }
  ],
  "bytecode": "0x60c06040523480156200001157600080fd5b50604051620058913803806200589183398101604081905262000034916200055b565b86898962000043828262000182565b506200006f9050817f714f205b2abd25bef1d06a1af944e38c113fe6160375c4e1d6d5cf28848e771955565b50600160035542811115620000cb5760405162461bcd60e51b815260206004820152601f60248201527f6669727374206d6f6e746820737461727420696e20746865206675747572650060448201526064015b60405180910390fd5b6001600160a01b038316620001235760405162461bcd60e51b815260206004820152601460248201527f6d616e616765722061646472657373207a65726f0000000000000000000000006044820152606401620000c2565b6004620001318782620006e3565b506005620001408682620006e3565b5060ff841660a052600c80546001600160a01b0319166001600160a01b03851617905562000170600d83620002f7565b60805250620007ed9650505050505050565b600054600160a01b900460ff1615620001de5760405162461bcd60e51b815260206004820152601460248201527f696e697469616c6973656420213d2066616c73650000000000000000000000006044820152606401620000c2565b6001600160a01b038216620002365760405162461bcd60e51b815260206004820152601860248201527f676f7665726e616e63652073657474696e6773207a65726f00000000000000006044820152606401620000c2565b6001600160a01b038116620002815760405162461bcd60e51b815260206004820152601060248201526f5f676f7665726e616e6365207a65726f60801b6044820152606401620000c2565b600080546001600160a01b038481166001600160a81b031990921691909117600160a01b17909155600180549183166001600160a01b0319909216821790556040519081527f9789733827840833afc031fb2ef9ab6894271f77bad2085687cf4ae5c7bee4db9060200160405180910390a15050565b60005b8151811015620003475762000332838383815181106200031e576200031e620007af565b60200260200101516200034c60201b60201c565b806200033e81620007c5565b915050620002fa565b505050565b6001600160a01b03811660009081526001830160205260409020541562000371575050565b8154600181810184556000848152602080822090930180546001600160a01b039095166001600160a01b031990951685179055845493815293019052604090912055565b6001600160a01b0381168114620003cb57600080fd5b50565b8051620003db81620003b5565b919050565b634e487b7160e01b600052604160045260246000fd5b604051601f8201601f191681016001600160401b0381118282101715620004215762000421620003e0565b604052919050565b600082601f8301126200043b57600080fd5b81516001600160401b03811115620004575762000457620003e0565b60206200046d601f8301601f19168201620003f6565b82815285828487010111156200048257600080fd5b60005b83811015620004a257858101830151828201840152820162000485565b506000928101909101919091529392505050565b805160ff81168114620003db57600080fd5b600082601f830112620004da57600080fd5b815160206001600160401b03821115620004f857620004f8620003e0565b8160051b62000509828201620003f6565b92835284810182019282810190878511156200052457600080fd5b83870192505b84831015620005505782516200054081620003b5565b825291830191908301906200052a565b979650505050505050565b60008060008060008060008060006101208a8c0312156200057b57600080fd5b620005868a620003ce565b98506200059660208b01620003ce565b9750620005a660408b01620003ce565b60608b01519097506001600160401b0380821115620005c457600080fd5b620005d28d838e0162000429565b975060808c0151915080821115620005e957600080fd5b620005f78d838e0162000429565b96506200060760a08d01620004b6565b95506200061760c08d01620003ce565b945060e08c01519150808211156200062e57600080fd5b506200063d8c828d01620004c8565b9250506101008a015190509295985092959850929598565b600181811c908216806200066a57607f821691505b6020821081036200068b57634e487b7160e01b600052602260045260246000fd5b50919050565b601f8211156200034757600081815260208120601f850160051c81016020861015620006ba5750805b601f850160051c820191505b81811015620006db57828155600101620006c6565b505050505050565b81516001600160401b03811115620006ff57620006ff620003e0565b620007178162000710845462000655565b8462000691565b602080601f8311600181146200074f5760008415620007365750858301515b600019600386901b1c1916600185901b178555620006db565b600085815260208120601f198616915b8281101562000780578886015182559484019460019091019084016200075f565b50858210156200079f5787850151600019600388901b60f8161c191681555b5050505050600190811b01905550565b634e487b7160e01b600052603260045260246000fd5b600060018201620007e657634e487b7160e01b600052601160045260246000fd5b5060010190565b60805160a0516150626200082f600039600061056d01526000818161078401528181610fd20152818161154601528181612b8601526135f501526150626000f3fe6080604052600436106103815760003560e01c806374e6310e116101d1578063c4db961911610102578063debfda30116100a0578063eb23070e1161006f578063eb23070e14610b0e578063ef88bf1314610b2e578063f5a9838314610b4e578063fabf596814610b6357600080fd5b8063debfda3014610a98578063e17f212e14610ab8578063e4a8f18b14610ad9578063eaa71ab714610aee57600080fd5b8063d808f743116100dc578063d808f743146109f0578063dc4fcda714610a43578063dd62ed3e14610a63578063ddd1b67e14610a8357600080fd5b8063c4db961914610975578063d0ebdbe714610995578063d6ab3b7f146109b557600080fd5b80639edbf0071161016f578063b00c0b7611610149578063b00c0b7614610900578063b302f39314610920578063b816f51314610935578063bbd6fbf81461095557600080fd5b80639edbf007146108a5578063a9059cbb146108c5578063ab60df90146108e057600080fd5b806387a2a0dc116101ab57806387a2a0dc14610834578063899fd1641461084957806394f68a0c1461086957806395d89b411461089057600080fd5b806374e6310e146107c65780637a68a508146107f457806382ad7ba71461081457600080fd5b806338d07436116102b65780635aa6e6751161025457806367a3fde71161022357806367a3fde71461073257806367fc40291461075257806368e79c6f1461077257806370a08231146107a657600080fd5b80635aa6e675146106d55780635ff27079146106ea57806362354e031461070a578063631cbe3c1461072a57600080fd5b80634863ba17116102905780634863ba1714610641578063489a8a471461066157806351074011146106815780635267a15d146106a157600080fd5b806338d07436146105e15780633be976bf14610601578063481c6a751461062157600080fd5b806318160ddd1161032357806323b872dd116102fd57806323b872dd1461051b5780632dc573341461053b578063313ce5671461055b57806336116ad5146105a157600080fd5b806318160ddd1461049f578063190a3ba4146104c35780631c1c6fe5146104fb57600080fd5b80630d1f7d7f1161035f5780630d1f7d7f146104035780630e784624146104255780630f1d1e311461045d578063138e31101461047d57600080fd5b8063026e402b1461038657806306fdde03146103a8578063095ea7b3146103d3575b600080fd5b34801561039257600080fd5b506103a66103a1366004614182565b610b96565b005b3480156103b457600080fd5b506103bd610c10565b6040516103ca91906141fe565b60405180910390f35b3480156103df57600080fd5b506103f36103ee366004614182565b610c9e565b60405190151581526020016103ca565b34801561040f57600080fd5b50610418610ce7565b6040516103ca919061425c565b34801561043157600080fd5b50600654610445906001600160801b031681565b6040516001600160801b0390911681526020016103ca565b34801561046957600080fd5b506103a66104783660046142ba565b610d4c565b34801561048957600080fd5b50610492610e54565b6040516103ca9190614305565b3480156104ab57600080fd5b506104b560075481565b6040519081526020016103ca565b3480156104cf57600080fd5b506104e36104de366004614367565b610f95565b6040516001600160a01b0390911681526020016103ca565b34801561050757600080fd5b506103a6610516366004614392565b610fa6565b34801561052757600080fd5b506103f36105363660046143af565b6110a2565b34801561054757600080fd5b506103a66105563660046143f0565b6110e6565b34801561056757600080fd5b5061058f7f000000000000000000000000000000000000000000000000000000000000000081565b60405160ff90911681526020016103ca565b3480156105ad57600080fd5b506105c16105bc366004614472565b6114a4565b604080516001600160801b039384168152929091166020830152016103ca565b3480156105ed57600080fd5b506103a66105fc3660046144ab565b61151a565b34801561060d57600080fd5b506103a661061c3660046144db565b61161e565b34801561062d57600080fd5b50600c546104e3906001600160a01b031681565b34801561064d57600080fd5b506103a661065c366004614367565b61185d565b34801561066d57600080fd5b506103a661067c366004614182565b611939565b34801561068d57600080fd5b506103a661069c366004614632565b6119c4565b3480156106ad57600080fd5b507f714f205b2abd25bef1d06a1af944e38c113fe6160375c4e1d6d5cf28848e7719546104e3565b3480156106e157600080fd5b506104e36119fe565b3480156106f657600080fd5b506103a661070536600461466e565b611a9a565b34801561071657600080fd5b506000546104e3906001600160a01b031681565b6103a6611d20565b34801561073e57600080fd5b506103a661074d366004614698565b611dba565b34801561075e57600080fd5b506103a661076d36600461466e565b6122bf565b34801561077e57600080fd5b506104b57f000000000000000000000000000000000000000000000000000000000000000081565b3480156107b257600080fd5b506104b56107c1366004614367565b6123a0565b3480156107d257600080fd5b506107e66107e136600461466e565b61240c565b6040516103ca929190614711565b34801561080057600080fd5b506103a661080f366004614367565b6124b1565b34801561082057600080fd5b506103a661082f36600461472a565b612522565b34801561084057600080fd5b506103a6612725565b34801561085557600080fd5b50600a546104e3906001600160a01b031681565b34801561087557600080fd5b5060065461044590600160801b90046001600160801b031681565b34801561089c57600080fd5b506103bd612788565b3480156108b157600080fd5b506009546104e3906001600160a01b031681565b3480156108d157600080fd5b506103f3610536366004614182565b3480156108ec57600080fd5b506104456108fb36600461474c565b612795565b34801561090c57600080fd5b506103a661091b366004614771565b61289e565b34801561092c57600080fd5b506103a6612979565b34801561094157600080fd5b50600b546104e3906001600160a01b031681565b34801561096157600080fd5b506103a6610970366004614182565b6129b2565b34801561098157600080fd5b506008546104e3906001600160a01b031681565b3480156109a157600080fd5b506103a66109b0366004614367565b6129fa565b3480156109c157600080fd5b506109d56109d0366004614367565b612a94565b604080519384526020840192909252908201526060016103ca565b3480156109fc57600080fd5b50610a10610a0b36600461472a565b612c0b565b604080516001600160801b03958616815293851660208501529184169183019190915290911660608201526080016103ca565b348015610a4f57600080fd5b506103a6610a5e366004614829565b612c5f565b348015610a6f57600080fd5b506104b5610a7e3660046148e3565b612c9c565b348015610a8f57600080fd5b506104b5612ce7565b348015610aa457600080fd5b506103f3610ab3366004614367565b612cf1565b348015610ac457600080fd5b506000546103f390600160a81b900460ff1681565b348015610ae557600080fd5b50600f546104b5565b348015610afa57600080fd5b506103a6610b09366004614367565b612d74565b348015610b1a57600080fd5b506103a6610b29366004614911565b612ef2565b348015610b3a57600080fd5b506103a6610b493660046148e3565b612fa7565b348015610b5a57600080fd5b506103a661310d565b348015610b6f57600080fd5b50610b83610b7e3660046149b4565b6131d3565b6040516103ca97969594939291906149fd565b610b9e61332b565b60095460405163c26f3acf60e01b81526001600160a01b03918216600482015284821660248201526044810184905291169063c26f3acf906064015b600060405180830381600087803b158015610bf457600080fd5b505af1158015610c08573d6000803e3d6000fd5b505050505050565b60048054610c1d90614a66565b80601f0160208091040260200160405190810160405280929190818152602001828054610c4990614a66565b8015610c965780601f10610c6b57610100808354040283529160200191610c96565b820191906000526020600020905b815481529060010190602001808311610c7957829003601f168201915b505050505081565b60405162461bcd60e51b8152602060048201526016602482015275185c1c1c9bdd985b081b9bdd081cdd5c1c1bdc9d195960521b60448201526000906064015b60405180910390fd5b6060600d600001805480602002602001604051908101604052809291908181526020018280548015610d4257602002820191906000526020600020905b81546001600160a01b03168152600190910190602001808311610d24575b5050505050905090565b6000610d566135ea565b905080821115610d9e5760405162461bcd60e51b81526020600482015260136024820152726d6f6e746820696e207468652066757475726560681b6044820152606401610cde565b6000805b84811015610deb57610dcd868683818110610dbf57610dbf614aa0565b905060200201358585613624565b610dd79083614acc565b915080610de381614af3565b915050610da2565b50806001600160801b031660076000828254610e079190614b0c565b90915550506040516001600160801b038216815233906000907fddf252ad1be2c89b69c2b068fc378daa952ba7f163c4a11628f55a4df523b3ef9060200160405180910390a35050505050565b600f546060906001600160401b03811115610e7157610e71614555565b604051908082528060200260200182016040528015610ea457816020015b6060815260200190600190039081610e8f5790505b50905060005b600f54811015610f9157600f8181548110610ec757610ec7614aa0565b90600052602060002090600702016000018054610ee390614a66565b80601f0160208091040260200160405190810160405280929190818152602001828054610f0f90614a66565b8015610f5c5780601f10610f3157610100808354040283529160200191610f5c565b820191906000526020600020905b815481529060010190602001808311610f3f57829003601f168201915b5050505050828281518110610f7357610f73614aa0565b60200260200101819052508080610f8990614af3565b915050610eaa565b5090565b6000610fa082613a0d565b92915050565b6000610fb061332b565b600954604051631474538b60e21b81526001600160a01b0391821660048201527f0000000000000000000000000000000000000000000000000000000000000000602482015284151560448201529116906351d14e2c906064016020604051808303816000875af1158015611029573d6000803e3d6000fd5b505050506040513d601f19601f8201168201806040525081019061104d9190614b1f565b905080600760008282546110619190614b38565b909155505060405181815260009033907fddf252ad1be2c89b69c2b068fc378daa952ba7f163c4a11628f55a4df523b3ef9060200160405180910390a35050565b60405162461bcd60e51b81526020600482015260166024820152751d1c985b9cd9995c881b9bdd081cdd5c1c1bdc9d195960521b6044820152600090606401610cde565b8281146111445760405162461bcd60e51b815260206004820152602660248201527f726563697069656e747320616e6420616d6f756e7473206c656e677468206d696044820152650e6dac2e8c6d60d31b6064820152608401610cde565b600061114e6135ea565b9050600061115b88613a85565b9050611168876001614b0c565b82148061118a57506001810154600160a01b900460ff16801561118a57508682145b6111e75760405162461bcd60e51b815260206004820152602860248201527f646973747269627574696f6e206e6f7420656e61626c656420666f72206769766044820152670cadc40dadedce8d60c31b6064820152608401610cde565b60018101546001600160a01b031633146112435760405162461bcd60e51b815260206004820152601f60248201527f6f6e6c79206469737472696275746f72206f66207468652070726f6a656374006044820152606401610cde565b60008781526004820160205260408120815b8781101561134e5786868281811061126f5761126f614aa0565b90506020020160208101906112849190614b62565b8260020160008b8b8581811061129c5761129c614aa0565b90506020020160208101906112b19190614367565b6001600160a01b031681526020810191909152604001600090812080549091906112e59084906001600160801b0316614acc565b92506101000a8154816001600160801b0302191690836001600160801b0316021790555086868281811061131b5761131b614aa0565b90506020020160208101906113309190614b62565b61133a9084614acc565b92508061134681614af3565b915050611255565b5080546001600160801b0380821691611370918591600160801b900416614acc565b6001600160801b031611156113c75760405162461bcd60e51b815260206004820152601860248201527f657863656564732061737369676e6564207265776172647300000000000000006044820152606401610cde565b8054829082906010906113eb908490600160801b90046001600160801b0316614acc565b92506101000a8154816001600160801b0302191690836001600160801b03160217905550818360020160108282829054906101000a90046001600160801b03166114359190614acc565b92506101000a8154816001600160801b0302191690836001600160801b03160217905550888a7fd6d0645796a75512d193f0777de35db76867294cabe5495f80180876f6af2c518a8a8a8a6040516114909493929190614b7d565b60405180910390a350505050505050505050565b60008060006114b286613a85565b90506114bc6135ea565b8511156114d0576000809250925050611512565b60008581526004909101602090815260408083206001600160a01b03871684526002019091529020546001600160801b038082169350600160801b9091041690505b935093915050565b600061152461332b565b60095460405163234b674560e01b81526001600160a01b0391821660048201527f0000000000000000000000000000000000000000000000000000000000000000602482015260448101869052841515606482015291169063234b6745906084016020604051808303816000875af11580156115a4573d6000803e3d6000fd5b505050506040513d601f19601f820116820180604052508101906115c89190614b1f565b905080600760008282546115dc9190614b38565b909155505060405181815260009033907fddf252ad1be2c89b69c2b068fc378daa952ba7f163c4a11628f55a4df523b3ef9060200160405180910390a3505050565b600c546001600160a01b031633146116485760405162461bcd60e51b8152600401610cde90614c12565b848314801561165657508481145b6116955760405162461bcd60e51b815260206004820152601060248201526f0d8cadccee8d0e640dad2e6dac2e8c6d60831b6044820152606401610cde565b60005b8581101561185457600f8054600181018083556000838152919290839081106116c3576116c3614aa0565b906000526020600020906007020190508888848181106116e5576116e5614aa0565b90506020028101906116f79190614c38565b8291611704919083614cc4565b5086868481811061171757611717614aa0565b905060200201602081019061172c9190614367565b6001820180546001600160a01b0319166001600160a01b039290921691909117905584848481811061176057611760614aa0565b90506020020160208101906117759190614392565b600182018054911515600160a01b0260ff60a01b19909216919091179055817fbb0a7330b774a82e3f64257cf07307a3d9466d2c9c45cc6f2ba7c39b746301378a8a868181106117c7576117c7614aa0565b90506020028101906117d99190614c38565b8a8a888181106117eb576117eb614aa0565b90506020020160208101906118009190614367565b89898981811061181257611812614aa0565b90506020020160208101906118279190614392565b6040516118379493929190614dac565b60405180910390a25050808061184c90614af3565b915050611698565b50505050505050565b600054600160b01b900460ff168061187f5750600054600160a81b900460ff16155b1561192b5761188c613af6565b60408051808201909152600c81526b61646472657373207a65726f60a01b60208201526001600160a01b0382166118d65760405162461bcd60e51b8152600401610cde91906141fe565b50600b80546001600160a01b0319166001600160a01b0383169081179091556040519081527fe88d6753e299a05129ac6a16302484e9cf5aa95c7d045575196b97ec5282ee9d9060200160405180910390a150565b611936600036613b30565b50565b611941613c7c565b61194961332b565b6009546040516317de921960e11b81526001600160a01b039182166004820152848216602482015260448101849052911690632fbd243290606401600060405180830381600087803b15801561199e57600080fd5b505af11580156119b2573d6000803e3d6000fd5b505050506119c06001600355565b5050565b600054600160b01b900460ff16806119e65750600054600160a81b900460ff16155b1561192b576119f3613af6565b611936600d82613ca6565b60008054600160a81b900460ff16611a2057506001546001600160a01b031690565b60008054906101000a90046001600160a01b03166001600160a01b031663732524946040518163ffffffff1660e01b8152600401602060405180830381865afa158015611a71573d6000803e3d6000fd5b505050506040513d601f19601f82011682018060405250810190611a959190614de1565b905090565b611aa333612cf1565b611adf5760405162461bcd60e51b815260206004820152600d60248201526c37b7363c9032bc32b1baba37b960991b6044820152606401610cde565b6001600160e01b0319811660009081526002602052604081208054909103611b495760405162461bcd60e51b815260206004820152601a60248201527f74696d656c6f636b3a20696e76616c69642073656c6563746f720000000000006044820152606401610cde565b8054421015611b9a5760405162461bcd60e51b815260206004820152601960248201527f74696d656c6f636b3a206e6f7420616c6c6f77656420796574000000000000006044820152606401610cde565b6000816001018054611bab90614a66565b80601f0160208091040260200160405190810160405280929190818152602001828054611bd790614a66565b8015611c245780601f10611bf957610100808354040283529160200191611c24565b820191906000526020600020905b815481529060010190602001808311611c0757829003601f168201915b505050506001600160e01b0319851660009081526002602052604081208181559293509050611c566001830182614123565b50506000805460ff60b01b1916600160b01b1781556040513090611c7b908490614dfe565b6000604051808303816000865af19150503d8060008114611cb8576040519150601f19603f3d011682016040523d82523d6000602084013e611cbd565b606091505b50506000805460ff60b01b19169055604080516001600160e01b0319871681524260208201529192507fa7326b57fc9cfe267aaea5e7f0b01757154d265620a0585819416ee9ddd2c438910160405180910390a1611d1a81613cb9565b50505050565b336000908152600e60205260408120549003611d765760405162461bcd60e51b81526020600482015260156024820152746e6f7420612066756e64696e67206164647265737360581b6044820152606401610cde565b60068054349190600090611d949084906001600160801b0316614acc565b92506101000a8154816001600160801b0302191690836001600160801b03160217905550565b600c546001600160a01b03163314611de45760405162461bcd60e51b8152600401610cde90614c12565b611dec6135ea565b611df7866001614b0c565b1015611e455760405162461bcd60e51b815260206004820152601960248201527f6d6f6e746820746f6f2066617220696e207468652070617374000000000000006044820152606401610cde565b828114611ea35760405162461bcd60e51b815260206004820152602660248201527f70726f6a65637449647320616e6420616d6f756e7473206c656e677468206d696044820152650e6dac2e8c6d60d31b6064820152608401610cde565b6000805b848110156121f5576000611ed2878784818110611ec657611ec6614aa0565b90506020020135613a85565b9050848483818110611ee657611ee6614aa0565b9050602002016020810190611efb9190614b62565b600282018054600090611f189084906001600160801b0316614acc565b82546001600160801b039182166101009390930a92830291909202199091161790555060008881526004820160205260409020858584818110611f5d57611f5d614aa0565b9050602002016020810190611f729190614b62565b81548290600090611f8d9084906001600160801b0316614acc565b92506101000a8154816001600160801b0302191690836001600160801b03160217905550858584818110611fc357611fc3614aa0565b9050602002016020810190611fd89190614b62565b611fe29085614acc565b600583015490945080158061201f57508960058401612002600184614b38565b8154811061201257612012614aa0565b9060005260206000200154105b156120435760058301805460018101825560009182526020909120018a9055612162565b60008111801561207c5750896005840161205e600184614b38565b8154811061206e5761206e614aa0565b906000526020600020015410155b15612093578061208b81614e1a565b915050612043565b898360050182815481106120a9576120a9614aa0565b90600052602060002001541461216257600583018054600190810180835560009283526120d69190614b38565b90505b8181111561213e57600584016120f0600183614b38565b8154811061210057612100614aa0565b906000526020600020015484600501828154811061212057612120614aa0565b6000918252602090912001558061213681614e1a565b9150506120d9565b508983600501828154811061215557612155614aa0565b6000918252602090912001555b8989898681811061217557612175614aa0565b905060200201357fc9dfdb5ed8fa6de49575d26514d4301e875c50a796b1563948d63b5c99a453748989888181106121af576121af614aa0565b90506020020160208101906121c49190614b62565b6040516001600160801b03909116815260200160405180910390a350505080806121ed90614af3565b915050611ea7565b506006546001600160801b0380821691612218918491600160801b900416614acc565b6001600160801b0316111561226f5760405162461bcd60e51b815260206004820181905260248201527f6578636565647320746f74616c2061737369676e61626c6520726577617264736044820152606401610cde565b80600660108282829054906101000a90046001600160801b03166122939190614acc565b92506101000a8154816001600160801b0302191690836001600160801b03160217905550505050505050565b6122c7613cd6565b6001600160e01b03198116600090815260026020526040812054900361232f5760405162461bcd60e51b815260206004820152601a60248201527f74696d656c6f636b3a20696e76616c69642073656c6563746f720000000000006044820152606401610cde565b604080516001600160e01b0319831681524260208201527f7735b2391c38a81419c513e30ca578db7158eadd7101511b23e221c654d19cf8910160405180910390a16001600160e01b0319811660009081526002602052604081208181559061239b6001830182614123565b505050565b60006123ab82613a0d565b6001600160a01b03166327fda4de6040518163ffffffff1660e01b8152600401602060405180830381865afa1580156123e8573d6000803e3d6000fd5b505050506040513d601f19601f82011682018060405250810190610fa09190614b1f565b6002602052600090815260409020805460018201805491929161242e90614a66565b80601f016020809104026020016040519081016040528092919081815260200182805461245a90614a66565b80156124a75780601f1061247c576101008083540402835291602001916124a7565b820191906000526020600020905b81548152906001019060200180831161248a57829003601f168201915b5050505050905082565b6124b961332b565b600a54604051630ebaf21560e11b81526001600160a01b0391821660048201528382166024820152911690631d75e42a90604401600060405180830381600087803b15801561250757600080fd5b505af115801561251b573d6000803e3d6000fd5b5050505050565b61252a6135ea565b612535826001614b0c565b1061257a5760405162461bcd60e51b81526020600482015260156024820152741b5bdb9d1a081b9bdd08195e1c1a5c9959081e595d605a1b6044820152606401610cde565b600061258583613a85565b600083815260048201602052604081208054929350916125b7906001600160801b03600160801b820481169116614e31565b90506000816001600160801b0316116126125760405162461bcd60e51b815260206004820152601860248201527f6e6f20756e6469737472696275746564207265776172647300000000000000006044820152606401610cde565b808260010160108282829054906101000a90046001600160801b03166126389190614acc565b92506101000a8154816001600160801b0302191690836001600160801b03160217905550808360030160108282829054906101000a90046001600160801b03166126829190614acc565b92506101000a8154816001600160801b0302191690836001600160801b0316021790555083857f5170133d96ff82949ee915dbb90c7b205c5b36a8288dc77776ca87138776df7c836040516126e691906001600160801b0391909116815260200190565b60405180910390a360405161dead906001600160801b03831680156108fc02916000818181858888f19350505050158015610c08573d6000803e3d6000fd5b61272d61332b565b600a546040516312f9391f60e31b81526001600160a01b0391821660048201529116906397c9c8f8906024015b600060405180830381600087803b15801561277457600080fd5b505af1158015611d1a573d6000803e3d6000fd5b60058054610c1d90614a66565b6000806127a06135ea565b905060006127ad85613a85565b6001600160a01b03851660009081526006820160205260408120546005830154929350916127dc908390614b38565b90506000805b8281101561289257600085600501858154811061280157612801614aa0565b906000526020600020015490508087101561281c5750612892565b600081815260048701602090815260408083206001600160a01b038d168452600281019092529091208054612863906001600160801b03600160801b820481169116614e31565b61286d9086614acc565b94508661287981614af3565b975050505050808061288a90614af3565b9150506127e2565b50979650505050505050565b7f714f205b2abd25bef1d06a1af944e38c113fe6160375c4e1d6d5cf28848e7719546001600160a01b0316336001600160a01b0316146129175760405162461bcd60e51b815260206004820152601460248201527337b7363c9030b2323932b9b9903ab83230ba32b960611b6044820152606401610cde565b61296f61294b83836040518060400160405280600e81526020016d20b2323932b9b9aab83230ba32b960911b815250613d30565b7f714f205b2abd25bef1d06a1af944e38c113fe6160375c4e1d6d5cf28848e771955565b6119c08282613e0b565b61298161332b565b600954604051635eb71cfb60e01b81526001600160a01b039182166004820152911690635eb71cfb9060240161275a565b6129ba61332b565b60095460405163a3ea6d1b60e01b81526001600160a01b03918216600482015284821660248201526044810184905291169063a3ea6d1b90606401610bda565b600054600160b01b900460ff1680612a1c5750600054600160a81b900460ff16155b1561192b57612a29613af6565b6001600160a01b038116612a765760405162461bcd60e51b81526020600482015260146024820152736d616e616765722061646472657373207a65726f60601b6044820152606401610cde565b600c80546001600160a01b0319166001600160a01b03831617905550565b600080600080612aa385613a0d565b600954604051632d985e7b60e21b81526001600160a01b03918216600482015291925082169063b66179ec90602401602060405180830381865afa158015612aef573d6000803e3d6000fd5b505050506040513d601f19601f82011682018060405250810190612b139190614b1f565b9350806001600160a01b03166327fda4de6040518163ffffffff1660e01b8152600401602060405180830381865afa158015612b53573d6000803e3d6000fd5b505050506040513d601f19601f82011682018060405250810190612b779190614b1f565b6040516302b5eedb60e21b81527f000000000000000000000000000000000000000000000000000000000000000060048201529093506001600160a01b03821690630ad7bb6c90602401602060405180830381865afa158015612bde573d6000803e3d6000fd5b505050506040513d601f19601f82011682018060405250810190612c029190614b1f565b93959294505050565b6000806000806000612c1c87613a85565b60009687526004016020525050604090932080546001909101546001600160801b0380831697600160801b93849004821697508183169650929091041692509050565b612c6761332b565b600954604051635d3a94a760e11b81526001600160a01b039283169263ba75294e92610bda9291169086908690600401614e51565b60405162461bcd60e51b815260206004820152601760248201527f616c6c6f77616e6365206e6f7420737570706f727465640000000000000000006044820152600090606401610cde565b6000611a956135ea565b60008054600160a01b900460ff168015610fa05750600054604051630debfda360e41b81526001600160a01b0384811660048301529091169063debfda3090602401602060405180830381865afa158015612d50573d6000803e3d6000fd5b505050506040513d601f19601f82011682018060405250810190610fa09190614e91565b600054600160b01b900460ff1680612d965750600054600160a81b900460ff16155b1561192b57612da3613af6565b60408051808201909152600c81526b61646472657373207a65726f60a01b60208201526001600160a01b038216612ded5760405162461bcd60e51b8152600401610cde91906141fe565b50600654600090612e10906001600160801b03600160801b820481169116614e31565b600680549192508291600090612e309084906001600160801b0316614e31565b92506101000a8154816001600160801b0302191690836001600160801b031602179055506000826001600160a01b0316826001600160801b031660405160006040518083038185875af1925050503d8060008114612eaa576040519150601f19603f3d011682016040523d82523d6000602084013e612eaf565b606091505b505090508061239b5760405162461bcd60e51b815260206004820152600f60248201526e151c985b9cd9995c8819985a5b1959608a1b6044820152606401610cde565b600c546001600160a01b03163314612f1c5760405162461bcd60e51b8152600401610cde90614c12565b6000612f2786613a85565b905080612f35858783614cc4565b50600181018054831515600160a01b026001600160a81b03199091166001600160a01b0386161717905560405186907f505f02470b9795494019aba2982a68c1c6fea88fcbe5d80bafc28963fbe3bbab90612f97908890889088908890614dac565b60405180910390a2505050505050565b600054600160a01b900460ff1615612ff85760405162461bcd60e51b8152602060048201526014602482015273696e697469616c6973656420213d2066616c736560601b6044820152606401610cde565b6001600160a01b03821661304e5760405162461bcd60e51b815260206004820152601860248201527f676f7665726e616e63652073657474696e6773207a65726f00000000000000006044820152606401610cde565b6001600160a01b0381166130975760405162461bcd60e51b815260206004820152601060248201526f5f676f7665726e616e6365207a65726f60801b6044820152606401610cde565b600080546001600160a01b038481166001600160a81b031990921691909117600160a01b17909155600180549183166001600160a01b0319909216821790556040519081527f9789733827840833afc031fb2ef9ab6894271f77bad2085687cf4ae5c7bee4db9060200160405180910390a15050565b613115613cd6565b600054600160a81b900460ff161561316f5760405162461bcd60e51b815260206004820152601a60248201527f616c726561647920696e2070726f64756374696f6e206d6f64650000000000006044820152606401610cde565b600180546001600160a01b031916905560008054600160a81b60ff60a81b198216179091556040516001600160a01b0390911681527f83af113638b5422f9e977cebc0aaf0eaf2188eb9a8baae7f9d46c42b33a1560c9060200160405180910390a1565b60606000806000806000606060006131ea89613a85565b600181015460028201546003830154835493945084936001600160a01b03909316926001600160801b0380841693600160801b9081900482169380831693919004909116906005870190879061323f90614a66565b80601f016020809104026020016040519081016040528092919081815260200182805461326b90614a66565b80156132b85780601f1061328d576101008083540402835291602001916132b8565b820191906000526020600020905b81548152906001019060200180831161329b57829003601f168201915b505050505096508080548060200260200160405190810160405280929190818152602001828054801561330a57602002820191906000526020600020905b8154815260200190600101908083116132f6575b50505050509050975097509750975097509750975050919395979092949650565b336000908152601060205260409020546001600160a01b0316801561334d5790565b600b5460408051808201909152601b81527f6c6962726172792061646472657373206e6f74207365742079657400000000006020820152906001600160a01b03166133ab5760405162461bcd60e51b8152600401610cde91906141fe565b50600b546133c1906001600160a01b0316613f9d565b9050803b63ffffffff1615156040518060400160405280601e81526020017f636c6f6e65206e6f74207375636365737366756c6c7920637265617465640000815250906134215760405162461bcd60e51b8152600401610cde91906141fe565b5060405163485cc95560e01b81523360048201523060248201526001600160a01b0382169063485cc95590604401600060405180830381600087803b15801561346957600080fd5b505af115801561347d573d6000803e3d6000fd5b505050506001600160a01b03811660008181526011602090815260408083208054336001600160a01b031991821681179092558185526010845293829020805490941685179093558051928352908201929092527f8a41ba947a8eca5f62495513410edea4a9d7f98e2a91b17a1c1cc0303426446e910160405180910390a1600854604051631c4aa8ff60e31b81523360048201526000916001600160a01b03169063e25547f890602401602060405180830381865afa158015613545573d6000803e3d6000fd5b505050506040513d601f19601f820116820180604052508101906135699190614b1f565b905080600003610f915760085460408051600081526020810191829052632571bd6960e11b9091526001600160a01b0384811692634ae37ad2926135b4929091169060248101614eae565b600060405180830381600087803b1580156135ce57600080fd5b505af11580156135e2573d6000803e3d6000fd5b505050505090565b600062278d0061361a7f000000000000000000000000000000000000000000000000000000000000000042614b38565b611a959190614ed2565b60008061363085613a85565b336000908152600682016020526040812054600583015492935091613656908390614b38565b90506000816001600160401b0381111561367257613672614555565b60405190808252806020026020018201604052801561369b578160200160208202803683370190505b5090506000826001600160401b038111156136b8576136b8614555565b6040519080825280602002602001820160405280156136e1578160200160208202803683370190505b50905060005b838110156138d057600086600501868154811061370657613706614aa0565b90600052602060002001549050808a101561372157506138d0565b60008181526004880160209081526040808320338452600281019092529091208551839087908690811061375757613757614aa0565b60209081029190910101528054600090613783906001600160801b03600160801b820481169116614e31565b905061378f818c614acc565b600184018054919c5082916000906137b19084906001600160801b0316614acc565b92506101000a8154816001600160801b0302191690836001600160801b03160217905550808260000160108282829054906101000a90046001600160801b03166137fb9190614acc565b92506101000a8154816001600160801b0302191690836001600160801b031602179055506000816001600160801b031611156138ac57806001600160801b031686868151811061384d5761384d614aa0565b602002602001018181525050336001600160a01b0316848f7f991476c3a75b7c98873b2a3ff8ea47ece4cad28a0b122c8064f619d37787424a846040516138a391906001600160801b0391909116815260200190565b60405180910390a45b886138b681614af3565b9950505050505080806138c890614af3565b9150506136e7565b506003850180548791906000906138f19084906001600160801b0316614acc565b92506101000a8154816001600160801b0302191690836001600160801b031602179055505b60008411801561395b57508660058601613931600187614b38565b8154811061394157613941614aa0565b906000526020600020015460016139589190614b0c565b10155b15613972578361396a81614e1a565b945050613916565b336000908152600686016020526040902084905561398e61332b565b600954604051632b8f98e160e21b81526001600160a01b039283169263ae3e6384926001600160801b038b16926139cf929091169087908790600401614ef4565b6000604051808303818588803b1580156139e857600080fd5b505af11580156139fc573d6000803e3d6000fd5b505050505050505050509392505050565b6001600160a01b038082166000908152601060205260409020541680613a805760405162461bcd60e51b815260206004820152602260248201527f64656c65676174696f6e206163636f756e74206e6f7420637265617465642079604482015261195d60f21b6064820152608401610cde565b919050565b600f546000908210613ace5760405162461bcd60e51b81526020600482015260126024820152711a5b9d985b1a59081c1c9bda9958dd081a5960721b6044820152606401610cde565b600f8281548110613ae157613ae1614aa0565b90600052602060002090600702019050919050565b600054600160b01b900460ff1615613b2657333014613b1757613b17614f18565b6000805460ff60b01b19169055565b613b2e613cd6565b565b613b38613cd6565b6000805460408051636221a54b60e01b81529051853593926001600160a01b031691636221a54b9160048083019260209291908290030181865afa158015613b84573d6000803e3d6000fd5b505050506040513d601f19601f82011682018060405250810190613ba89190614b1f565b90506000613bb68242614b0c565b9050604051806040016040528082815260200186868080601f01602080910402602001604051908101604052809392919081815260200183838082843760009201829052509390945250506001600160e01b03198616815260026020908152604090912083518155908301519091506001820190613c349082614f2e565b509050507fed948300a3694aa01d4a6b258bfd664350193d770c0b51f8387277f6d83ea3b683828787604051613c6d9493929190614fed565b60405180910390a15050505050565b600260035403613c9f57604051633ee5aeb560e01b815260040160405180910390fd5b6002600355565b613caf82613fef565b6119c0828261407a565b3d604051818101604052816000823e8215613cd2578181f35b8181fd5b613cde6119fe565b6001600160a01b0316336001600160a01b031614613b2e5760405162461bcd60e51b815260206004820152600f60248201526e6f6e6c7920676f7665726e616e636560881b6044820152606401610cde565b60008082604051602001613d4491906141fe565b6040516020818303038152906040528051906020012090506000805b8651811015613dbc57868181518110613d7b57613d7b614aa0565b60200260200101518303613daa57858181518110613d9b57613d9b614aa0565b60200260200101519150613dbc565b80613db481614af3565b915050613d60565b506001600160a01b038116613e025760405162461bcd60e51b815260206004820152600c60248201526b61646472657373207a65726f60a01b6044820152606401610cde565b95945050505050565b613e3f82826040518060400160405280601181526020017021b630b4b6a9b2ba3ab826b0b730b3b2b960791b815250613d30565b600860006101000a8154816001600160a01b0302191690836001600160a01b031602179055506000613e8e83836040518060400160405280600481526020016315d3985d60e21b815250613d30565b6009549091506001600160a01b0316613ec157600980546001600160a01b0319166001600160a01b038316179055613f16565b6009546001600160a01b03828116911614613f1657604080518082018252601281527177726f6e6720774e6174206164647265737360701b6020820152905162461bcd60e51b8152610cde91906004016141fe565b806001600160a01b0316638c2b8ae16040518163ffffffff1660e01b8152600401602060405180830381865afa158015613f54573d6000803e3d6000fd5b505050506040513d601f19601f82011682018060405250810190613f789190614de1565b600a80546001600160a01b0319166001600160a01b0392909216919091179055505050565b6000808260601b9050604051733d602d80600a3d3981f3363d3d373d3d3d363d7360601b81528160148201526e5af43d82803e903d91602b57fd5bf360881b60288201526037816000f0949350505050565b805415611936578054600180830191600091849161400d9190614b38565b8154811061401d5761401d614aa0565b60009182526020808320909101546001600160a01b03168352820192909252604001812055805481908061405357614053615016565b600082815260209020810160001990810180546001600160a01b0319169055019055613fef565b60005b815181101561239b576140a98383838151811061409c5761409c614aa0565b60200260200101516140bb565b806140b381614af3565b91505061407d565b6001600160a01b0381166000908152600183016020526040902054156140df575050565b8154600181810184556000848152602080822090930180546001600160a01b039095166001600160a01b031990951685179055845493815293019052604090912055565b50805461412f90614a66565b6000825580601f1061413f575050565b601f01602090049060005260206000209081019061193691905b80821115610f915760008155600101614159565b6001600160a01b038116811461193657600080fd5b6000806040838503121561419557600080fd5b82356141a08161416d565b946020939093013593505050565b60005b838110156141c95781810151838201526020016141b1565b50506000910152565b600081518084526141ea8160208601602086016141ae565b601f01601f19169290920160200192915050565b60208152600061421160208301846141d2565b9392505050565b600081518084526020808501945080840160005b838110156142515781516001600160a01b03168752958201959082019060010161422c565b509495945050505050565b6020815260006142116020830184614218565b60008083601f84011261428157600080fd5b5081356001600160401b0381111561429857600080fd5b6020830191508360208260051b85010111156142b357600080fd5b9250929050565b6000806000604084860312156142cf57600080fd5b83356001600160401b038111156142e557600080fd5b6142f18682870161426f565b909790965060209590950135949350505050565b6000602080830181845280855180835260408601915060408160051b870101925083870160005b8281101561435a57603f198886030184526143488583516141d2565b9450928501929085019060010161432c565b5092979650505050505050565b60006020828403121561437957600080fd5b81356142118161416d565b801515811461193657600080fd5b6000602082840312156143a457600080fd5b813561421181614384565b6000806000606084860312156143c457600080fd5b83356143cf8161416d565b925060208401356143df8161416d565b929592945050506040919091013590565b6000806000806000806080878903121561440957600080fd5b863595506020870135945060408701356001600160401b038082111561442e57600080fd5b61443a8a838b0161426f565b9096509450606089013591508082111561445357600080fd5b5061446089828a0161426f565b979a9699509497509295939492505050565b60008060006060848603121561448757600080fd5b833592506020840135915060408401356144a08161416d565b809150509250925092565b600080604083850312156144be57600080fd5b8235915060208301356144d081614384565b809150509250929050565b600080600080600080606087890312156144f457600080fd5b86356001600160401b038082111561450b57600080fd5b6145178a838b0161426f565b9098509650602089013591508082111561453057600080fd5b61453c8a838b0161426f565b9096509450604089013591508082111561445357600080fd5b634e487b7160e01b600052604160045260246000fd5b604051601f8201601f191681016001600160401b038111828210171561459357614593614555565b604052919050565b60006001600160401b038211156145b4576145b4614555565b5060051b60200190565b600082601f8301126145cf57600080fd5b813560206145e46145df8361459b565b61456b565b82815260059290921b8401810191818101908684111561460357600080fd5b8286015b8481101561462757803561461a8161416d565b8352918301918301614607565b509695505050505050565b60006020828403121561464457600080fd5b81356001600160401b0381111561465a57600080fd5b614666848285016145be565b949350505050565b60006020828403121561468057600080fd5b81356001600160e01b03198116811461421157600080fd5b6000806000806000606086880312156146b057600080fd5b8535945060208601356001600160401b03808211156146ce57600080fd5b6146da89838a0161426f565b909650945060408801359150808211156146f357600080fd5b506147008882890161426f565b969995985093965092949392505050565b82815260406020820152600061466660408301846141d2565b6000806040838503121561473d57600080fd5b50508035926020909101359150565b6000806040838503121561475f57600080fd5b8235915060208301356144d08161416d565b6000806040838503121561478457600080fd5b82356001600160401b038082111561479b57600080fd5b818501915085601f8301126147af57600080fd5b813560206147bf6145df8361459b565b82815260059290921b840181019181810190898411156147de57600080fd5b948201945b838610156147fc578535825294820194908201906147e3565b9650508601359250508082111561481257600080fd5b5061481f858286016145be565b9150509250929050565b6000806040838503121561483c57600080fd5b82356001600160401b038082111561485357600080fd5b61485f868387016145be565b935060209150818501358181111561487657600080fd5b85019050601f8101861361488957600080fd5b80356148976145df8261459b565b81815260059190911b820183019083810190888311156148b657600080fd5b928401925b828410156148d4578335825292840192908401906148bb565b80955050505050509250929050565b600080604083850312156148f657600080fd5b82356149018161416d565b915060208301356144d08161416d565b60008060008060006080868803121561492957600080fd5b8535945060208601356001600160401b038082111561494757600080fd5b818801915088601f83011261495b57600080fd5b81358181111561496a57600080fd5b89602082850101111561497c57600080fd5b60208301965080955050505060408601356149968161416d565b915060608601356149a681614384565b809150509295509295909350565b6000602082840312156149c657600080fd5b5035919050565b600081518084526020808501945080840160005b83811015614251578151875295820195908201906001016149e1565b60e081526000614a1060e083018a6141d2565b6001600160a01b03891660208401526001600160801b03888116604085015287811660608501528681166080850152851660a084015282810360c0840152614a5881856149cd565b9a9950505050505050505050565b600181811c90821680614a7a57607f821691505b602082108103614a9a57634e487b7160e01b600052602260045260246000fd5b50919050565b634e487b7160e01b600052603260045260246000fd5b634e487b7160e01b600052601160045260246000fd5b6001600160801b03818116838216019080821115614aec57614aec614ab6565b5092915050565b600060018201614b0557614b05614ab6565b5060010190565b80820180821115610fa057610fa0614ab6565b600060208284031215614b3157600080fd5b5051919050565b81810381811115610fa057610fa0614ab6565b80356001600160801b0381168114613a8057600080fd5b600060208284031215614b7457600080fd5b61421182614b4b565b6040808252810184905260008560608301825b87811015614bc0578235614ba38161416d565b6001600160a01b0316825260209283019290910190600101614b90565b5083810360208581019190915285825291508590820160005b86811015614c05576001600160801b03614bf284614b4b565b1682529183019190830190600101614bd9565b5098975050505050505050565b6020808252600c908201526b37b7363c9036b0b730b3b2b960a11b604082015260600190565b6000808335601e19843603018112614c4f57600080fd5b8301803591506001600160401b03821115614c6957600080fd5b6020019150368190038213156142b357600080fd5b601f82111561239b57600081815260208120601f850160051c81016020861015614ca55750805b601f850160051c820191505b81811015610c0857828155600101614cb1565b6001600160401b03831115614cdb57614cdb614555565b614cef83614ce98354614a66565b83614c7e565b6000601f841160018114614d235760008515614d0b5750838201355b600019600387901b1c1916600186901b17835561251b565b600083815260209020601f19861690835b82811015614d545786850135825560209485019460019092019101614d34565b5086821015614d715760001960f88860031b161c19848701351681555b505060018560011b0183555050505050565b81835281816020850137506000828201602090810191909152601f909101601f19169091010190565b606081526000614dc0606083018688614d83565b6001600160a01b039490941660208301525090151560409091015292915050565b600060208284031215614df357600080fd5b81516142118161416d565b60008251614e108184602087016141ae565b9190910192915050565b600081614e2957614e29614ab6565b506000190190565b6001600160801b03828116828216039080821115614aec57614aec614ab6565b6001600160a01b0384168152606060208201819052600090614e7590830185614218565b8281036040840152614e8781856149cd565b9695505050505050565b600060208284031215614ea357600080fd5b815161421181614384565b6001600160a01b038316815260406020820181905260009061466690830184614218565b600082614eef57634e487b7160e01b600052601260045260246000fd5b500490565b6001600160a01b0384168152606060208201819052600090614e75908301856149cd565b634e487b7160e01b600052600160045260246000fd5b81516001600160401b03811115614f4757614f47614555565b614f5b81614f558454614a66565b84614c7e565b602080601f831160018114614f905760008415614f785750858301515b600019600386901b1c1916600185901b178555610c08565b600085815260208120601f198616915b82811015614fbf57888601518255948401946001909101908401614fa0565b5085821015614fdd5787850151600019600388901b60f8161c191681555b5050505050600190811b01905550565b63ffffffff60e01b85168152836020820152606060408201526000614e87606083018486614d83565b634e487b7160e01b600052603160045260246000fdfea2646970667358221220cc01776e55b0762ea2e107fe55c6f903051cc8eec9b49575b367a05b920bac6364736f6c63430008140033",
  "linkReferences": {},
  "deployedLinkReferences": {}
}