{
  "_format": "hh-sol-artifact-1",
  "contractName": "RNat",
  "sourceName": "contracts/rNat/implementation/RNat.sol",
  "abi": [
    {
      "inputs": [
        {
          "internalType": "contract IGovernanceSettings",
          "name": "_governanceSettings",
          "type": "address"
        },
        {
          "internalType": "address",
          "name": "_initialGovernance",
          "type": "address"
        },
        {
          "internalType": "address",
          "name": "_addressUpdater",
          "type": "address"
        },
        {
          "internalType": "string",
          "name": "_name",
          "type": "string"
        },
        {
          "internalType": "string",
          "name": "_symbol",
          "type": "string"
        },
        {
          "internalType": "uint8",
          "name": "_decimals",
          "type": "uint8"
        },
        {
          "internalType": "address",
          "name": "_manager",
          "type": "address"
        },
        {
          "internalType": "uint256",
          "name": "_firstMonthStartTs",
          "type": "uint256"
        }
      ],
      "stateMutability": "nonpayable",
      "type": "constructor"
    },
    {
      "inputs": [],
      "name": "ReentrancyGuardReentrantCall",
      "type": "error"
    },
    {
      "anonymous": false,
      "inputs": [
        {
          "indexed": true,
          "internalType": "address",
          "name": "owner",
          "type": "address"
        },
        {
          "indexed": true,
          "internalType": "address",
          "name": "spender",
          "type": "address"
        },
        {
          "indexed": false,
          "internalType": "uint256",
          "name": "value",
          "type": "uint256"
        }
      ],
      "name": "Approval",
      "type": "event"
    },
    {
      "anonymous": false,
      "inputs": [
        {
          "indexed": false,
          "internalType": "uint256[]",
          "name": "projectIds",
          "type": "uint256[]"
        },
        {
          "indexed": false,
          "internalType": "bool",
          "name": "disabled",
          "type": "bool"
        }
      ],
      "name": "ClaimingPermissionUpdated",
      "type": "event"
    },
    {
      "anonymous": false,
      "inputs": [
        {
          "indexed": false,
          "internalType": "uint256",
          "name": "authorizedAmountWei",
          "type": "uint256"
        }
      ],
      "name": "DailyAuthorizedIncentiveSet",
      "type": "event"
    },
    {
      "anonymous": false,
      "inputs": [
        {
          "indexed": false,
          "internalType": "uint256[]",
          "name": "projectIds",
          "type": "uint256[]"
        },
        {
          "indexed": false,
          "internalType": "bool",
          "name": "disabled",
          "type": "bool"
        }
      ],
      "name": "DistributionPermissionUpdated",
      "type": "event"
    },
    {
      "anonymous": false,
      "inputs": [
        {
          "indexed": false,
          "internalType": "bytes4",
          "name": "selector",
          "type": "bytes4"
        },
        {
          "indexed": false,
          "internalType": "uint256",
          "name": "allowedAfterTimestamp",
          "type": "uint256"
        },
        {
          "indexed": false,
          "internalType": "bytes",
          "name": "encodedCall",
          "type": "bytes"
        }
      ],
      "name": "GovernanceCallTimelocked",
      "type": "event"
    },
    {
      "anonymous": false,
      "inputs": [
        {
          "indexed": false,
          "internalType": "address",
          "name": "initialGovernance",
          "type": "address"
        }
      ],
      "name": "GovernanceInitialised",
      "type": "event"
    },
    {
      "anonymous": false,
      "inputs": [
        {
          "indexed": false,
          "internalType": "address",
          "name": "governanceSettings",
          "type": "address"
        }
      ],
      "name": "GovernedProductionModeEntered",
      "type": "event"
    },
    {
      "anonymous": false,
      "inputs": [
        {
          "indexed": false,
          "internalType": "uint256",
          "name": "amountReceivedWei",
          "type": "uint256"
        }
      ],
      "name": "IncentiveReceived",
      "type": "event"
    },
    {
      "anonymous": false,
      "inputs": [
        {
          "indexed": false,
          "internalType": "address",
          "name": "libraryAddress",
          "type": "address"
        }
      ],
      "name": "LibraryAddressSet",
      "type": "event"
    },
    {
      "anonymous": false,
      "inputs": [
        {
          "indexed": true,
          "internalType": "uint256",
          "name": "id",
          "type": "uint256"
        },
        {
          "indexed": false,
          "internalType": "string",
          "name": "name",
          "type": "string"
        },
        {
          "indexed": false,
          "internalType": "address",
          "name": "distributor",
          "type": "address"
        },
        {
          "indexed": false,
          "internalType": "bool",
          "name": "currentMonthDistributionEnabled",
          "type": "bool"
        }
      ],
      "name": "ProjectAdded",
      "type": "event"
    },
    {
      "anonymous": false,
      "inputs": [
        {
          "indexed": true,
          "internalType": "uint256",
          "name": "id",
          "type": "uint256"
        },
        {
          "indexed": false,
          "internalType": "string",
          "name": "name",
          "type": "string"
        },
        {
          "indexed": false,
          "internalType": "address",
          "name": "distributor",
          "type": "address"
        },
        {
          "indexed": false,
          "internalType": "bool",
          "name": "currentMonthDistributionEnabled",
          "type": "bool"
        }
      ],
      "name": "ProjectUpdated",
      "type": "event"
    },
    {
      "anonymous": false,
      "inputs": [
        {
          "indexed": false,
          "internalType": "address",
          "name": "owner",
          "type": "address"
        },
        {
          "indexed": false,
          "internalType": "contract IRNatAccount",
          "name": "rNatAccount",
          "type": "address"
        }
      ],
      "name": "RNatAccountCreated",
      "type": "event"
    },
    {
      "anonymous": false,
      "inputs": [
        {
          "indexed": true,
          "internalType": "uint256",
          "name": "projectId",
          "type": "uint256"
        },
        {
          "indexed": true,
          "internalType": "uint256",
          "name": "month",
          "type": "uint256"
        },
        {
          "indexed": false,
          "internalType": "uint128",
          "name": "amount",
          "type": "uint128"
        }
      ],
      "name": "RewardsAssigned",
      "type": "event"
    },
    {
      "anonymous": false,
      "inputs": [
        {
          "indexed": true,
          "internalType": "uint256",
          "name": "projectId",
          "type": "uint256"
        },
        {
          "indexed": true,
          "internalType": "uint256",
          "name": "month",
          "type": "uint256"
        },
        {
          "indexed": true,
          "internalType": "address",
          "name": "owner",
          "type": "address"
        },
        {
          "indexed": false,
          "internalType": "uint128",
          "name": "amount",
          "type": "uint128"
        }
      ],
      "name": "RewardsClaimed",
      "type": "event"
    },
    {
      "anonymous": false,
      "inputs": [
        {
          "indexed": true,
          "internalType": "uint256",
          "name": "projectId",
          "type": "uint256"
        },
        {
          "indexed": true,
          "internalType": "uint256",
          "name": "month",
          "type": "uint256"
        },
        {
          "indexed": false,
          "internalType": "address[]",
          "name": "recipients",
          "type": "address[]"
        },
        {
          "indexed": false,
          "internalType": "uint128[]",
          "name": "amounts",
          "type": "uint128[]"
        }
      ],
      "name": "RewardsDistributed",
      "type": "event"
    },
    {
      "anonymous": false,
      "inputs": [
        {
          "indexed": true,
          "internalType": "uint256",
          "name": "projectId",
          "type": "uint256"
        },
        {
          "indexed": true,
          "internalType": "uint256",
          "name": "month",
          "type": "uint256"
        },
        {
          "indexed": false,
          "internalType": "uint128",
          "name": "amount",
          "type": "uint128"
        }
      ],
      "name": "RewardsUnassigned",
      "type": "event"
    },
    {
      "anonymous": false,
      "inputs": [
        {
          "indexed": false,
          "internalType": "bytes4",
          "name": "selector",
          "type": "bytes4"
        },
        {
          "indexed": false,
          "internalType": "uint256",
          "name": "timestamp",
          "type": "uint256"
        }
      ],
      "name": "TimelockedGovernanceCallCanceled",
      "type": "event"
    },
    {
      "anonymous": false,
      "inputs": [
        {
          "indexed": false,
          "internalType": "bytes4",
          "name": "selector",
          "type": "bytes4"
        },
        {
          "indexed": false,
          "internalType": "uint256",
          "name": "timestamp",
          "type": "uint256"
        }
      ],
      "name": "TimelockedGovernanceCallExecuted",
      "type": "event"
    },
    {
      "anonymous": false,
      "inputs": [
        {
          "indexed": true,
          "internalType": "address",
          "name": "from",
          "type": "address"
        },
        {
          "indexed": true,
          "internalType": "address",
          "name": "to",
          "type": "address"
        },
        {
          "indexed": false,
          "internalType": "uint256",
          "name": "value",
          "type": "uint256"
        }
      ],
      "name": "Transfer",
      "type": "event"
    },
    {
      "anonymous": false,
      "inputs": [
        {
          "indexed": false,
          "internalType": "address",
          "name": "recipient",
          "type": "address"
        },
        {
          "indexed": false,
          "internalType": "uint128",
          "name": "amount",
          "type": "uint128"
        }
      ],
      "name": "UnassignedRewardsWithdrawn",
      "type": "event"
    },
    {
      "anonymous": false,
      "inputs": [
        {
          "indexed": true,
          "internalType": "uint256",
          "name": "projectId",
          "type": "uint256"
        },
        {
          "indexed": true,
          "internalType": "uint256",
          "name": "month",
          "type": "uint256"
        },
        {
          "indexed": false,
          "internalType": "uint128",
          "name": "amount",
          "type": "uint128"
        }
      ],
      "name": "UnclaimedRewardsUnassigned",
      "type": "event"
    },
    {
      "inputs": [],
      "name": "MONTH",
      "outputs": [
        {
          "internalType": "uint256",
          "name": "",
          "type": "uint256"
        }
      ],
      "stateMutability": "view",
      "type": "function"
    },
    {
      "inputs": [
        {
          "internalType": "string[]",
          "name": "_names",
          "type": "string[]"
        },
        {
          "internalType": "address[]",
          "name": "_distributors",
          "type": "address[]"
        },
        {
          "internalType": "bool[]",
          "name": "_currentMonthDistributionEnabledList",
          "type": "bool[]"
        }
      ],
      "name": "addProjects",
      "outputs": [],
      "stateMutability": "nonpayable",
      "type": "function"
    },
    {
      "inputs": [
        {
          "internalType": "address",
          "name": "",
          "type": "address"
        },
        {
          "internalType": "address",
          "name": "",
          "type": "address"
        }
      ],
      "name": "allowance",
      "outputs": [
        {
          "internalType": "uint256",
          "name": "",
          "type": "uint256"
        }
      ],
      "stateMutability": "pure",
      "type": "function"
    },
    {
      "inputs": [
        {
          "internalType": "address",
          "name": "",
          "type": "address"
        },
        {
          "internalType": "uint256",
          "name": "",
          "type": "uint256"
        }
      ],
      "name": "approve",
      "outputs": [
        {
          "internalType": "bool",
          "name": "",
          "type": "bool"
        }
      ],
      "stateMutability": "pure",
      "type": "function"
    },
    {
      "inputs": [
        {
          "internalType": "uint256",
          "name": "_month",
          "type": "uint256"
        },
        {
          "internalType": "uint256[]",
          "name": "_projectIds",
          "type": "uint256[]"
        },
        {
          "internalType": "uint128[]",
          "name": "_amountsWei",
          "type": "uint128[]"
        }
      ],
      "name": "assignRewards",
      "outputs": [],
      "stateMutability": "nonpayable",
      "type": "function"
    },
    {
      "inputs": [
        {
          "internalType": "address",
          "name": "_owner",
          "type": "address"
        }
      ],
      "name": "balanceOf",
      "outputs": [
        {
          "internalType": "uint256",
          "name": "",
          "type": "uint256"
        }
      ],
      "stateMutability": "view",
      "type": "function"
    },
    {
      "inputs": [
        {
          "internalType": "bytes4",
          "name": "_selector",
          "type": "bytes4"
        }
      ],
      "name": "cancelGovernanceCall",
      "outputs": [],
      "stateMutability": "nonpayable",
      "type": "function"
    },
    {
      "inputs": [
        {
          "internalType": "uint256[]",
          "name": "_projectIds",
          "type": "uint256[]"
        },
        {
          "internalType": "uint256",
          "name": "_month",
          "type": "uint256"
        }
      ],
      "name": "claimRewards",
      "outputs": [
        {
          "internalType": "uint128",
          "name": "_claimedRewardsWei",
          "type": "uint128"
        }
      ],
      "stateMutability": "nonpayable",
      "type": "function"
    },
    {
      "inputs": [],
      "name": "claimSetupManager",
      "outputs": [
        {
          "internalType": "contract IIClaimSetupManager",
          "name": "",
          "type": "address"
        }
      ],
      "stateMutability": "view",
      "type": "function"
    },
    {
      "inputs": [],
      "name": "decimals",
      "outputs": [
        {
          "internalType": "uint8",
          "name": "",
          "type": "uint8"
        }
      ],
      "stateMutability": "view",
      "type": "function"
    },
    {
      "inputs": [
        {
          "internalType": "uint256[]",
          "name": "_projectIds",
          "type": "uint256[]"
        }
      ],
      "name": "disableClaiming",
      "outputs": [],
      "stateMutability": "nonpayable",
      "type": "function"
    },
    {
      "inputs": [
        {
          "internalType": "uint256[]",
          "name": "_projectIds",
          "type": "uint256[]"
        }
      ],
      "name": "disableDistribution",
      "outputs": [],
      "stateMutability": "nonpayable",
      "type": "function"
    },
    {
      "inputs": [
        {
          "internalType": "uint256",
          "name": "_projectId",
          "type": "uint256"
        },
        {
          "internalType": "uint256",
          "name": "_month",
          "type": "uint256"
        },
        {
          "internalType": "address[]",
          "name": "_recipients",
          "type": "address[]"
        },
        {
          "internalType": "uint128[]",
          "name": "_amountsWei",
          "type": "uint128[]"
        }
      ],
      "name": "distributeRewards",
      "outputs": [],
      "stateMutability": "nonpayable",
      "type": "function"
    },
    {
      "inputs": [
        {
          "internalType": "uint256[]",
          "name": "_projectIds",
          "type": "uint256[]"
        }
      ],
      "name": "enableClaiming",
      "outputs": [],
      "stateMutability": "nonpayable",
      "type": "function"
    },
    {
      "inputs": [
        {
          "internalType": "uint256[]",
          "name": "_projectIds",
          "type": "uint256[]"
        }
      ],
      "name": "enableDistribution",
      "outputs": [],
      "stateMutability": "nonpayable",
      "type": "function"
    },
    {
      "inputs": [],
      "name": "enableIncentivePool",
      "outputs": [],
      "stateMutability": "nonpayable",
      "type": "function"
    },
    {
      "inputs": [
        {
          "internalType": "bytes4",
          "name": "_selector",
          "type": "bytes4"
        }
      ],
      "name": "executeGovernanceCall",
      "outputs": [],
      "stateMutability": "nonpayable",
      "type": "function"
    },
    {
      "inputs": [],
      "name": "firstMonthStartTs",
      "outputs": [
        {
          "internalType": "uint256",
          "name": "",
          "type": "uint256"
        }
      ],
      "stateMutability": "view",
      "type": "function"
    },
    {
      "inputs": [],
      "name": "fundingAddress",
      "outputs": [
        {
          "internalType": "address",
          "name": "",
          "type": "address"
        }
      ],
      "stateMutability": "view",
      "type": "function"
    },
    {
      "inputs": [],
      "name": "getAddressUpdater",
      "outputs": [
        {
          "internalType": "address",
          "name": "_addressUpdater",
          "type": "address"
        }
      ],
      "stateMutability": "view",
      "type": "function"
    },
    {
      "inputs": [
        {
          "internalType": "address",
          "name": "_owner",
          "type": "address"
        }
      ],
      "name": "getBalancesOf",
      "outputs": [
        {
          "internalType": "uint256",
          "name": "_wNatBalance",
          "type": "uint256"
        },
        {
          "internalType": "uint256",
          "name": "_rNatBalance",
          "type": "uint256"
        },
        {
          "internalType": "uint256",
          "name": "_lockedBalance",
          "type": "uint256"
        }
      ],
      "stateMutability": "view",
      "type": "function"
    },
    {
      "inputs": [
        {
          "internalType": "uint256",
          "name": "_projectId",
          "type": "uint256"
        },
        {
          "internalType": "address",
          "name": "_owner",
          "type": "address"
        }
      ],
      "name": "getClaimableRewards",
      "outputs": [
        {
          "internalType": "uint128",
          "name": "",
          "type": "uint128"
        }
      ],
      "stateMutability": "view",
      "type": "function"
    },
    {
      "inputs": [],
      "name": "getContractName",
      "outputs": [
        {
          "internalType": "string",
          "name": "",
          "type": "string"
        }
      ],
      "stateMutability": "pure",
      "type": "function"
    },
    {
      "inputs": [],
      "name": "getCurrentMonth",
      "outputs": [
        {
          "internalType": "uint256",
          "name": "",
          "type": "uint256"
        }
      ],
      "stateMutability": "view",
      "type": "function"
    },
    {
      "inputs": [],
      "name": "getExpectedBalance",
      "outputs": [
        {
          "internalType": "uint256",
          "name": "",
          "type": "uint256"
        }
      ],
      "stateMutability": "view",
      "type": "function"
    },
    {
      "inputs": [],
      "name": "getIncentivePoolAddress",
      "outputs": [
        {
          "internalType": "address",
          "name": "",
          "type": "address"
        }
      ],
      "stateMutability": "view",
      "type": "function"
    },
    {
      "inputs": [],
      "name": "getIncentivePoolReceiverInfo",
      "outputs": [
        {
          "internalType": "uint256",
          "name": "_totalIncentiveAuthorizedWei",
          "type": "uint256"
        },
        {
          "internalType": "uint256",
          "name": "_totalIncentiveReceivedWei",
          "type": "uint256"
        },
        {
          "internalType": "uint256",
          "name": "_lastIncentiveAuthorizationReceivedTs",
          "type": "uint256"
        },
        {
          "internalType": "uint256",
          "name": "_dailyAuthorizedIncentive",
          "type": "uint256"
        }
      ],
      "stateMutability": "view",
      "type": "function"
    },
    {
      "inputs": [
        {
          "internalType": "uint256",
          "name": "_projectId",
          "type": "uint256"
        },
        {
          "internalType": "uint256",
          "name": "_month",
          "type": "uint256"
        },
        {
          "internalType": "address",
          "name": "_owner",
          "type": "address"
        }
      ],
      "name": "getOwnerRewardsInfo",
      "outputs": [
        {
          "internalType": "uint128",
          "name": "_assignedRewards",
          "type": "uint128"
        },
        {
          "internalType": "uint128",
          "name": "_claimedRewards",
          "type": "uint128"
        },
        {
          "internalType": "bool",
          "name": "_claimable",
          "type": "bool"
        }
      ],
      "stateMutability": "view",
      "type": "function"
    },
    {
      "inputs": [
        {
          "internalType": "uint256",
          "name": "_projectId",
          "type": "uint256"
        }
      ],
      "name": "getProjectInfo",
      "outputs": [
        {
          "internalType": "string",
          "name": "_name",
          "type": "string"
        },
        {
          "internalType": "address",
          "name": "_distributor",
          "type": "address"
        },
        {
          "internalType": "bool",
          "name": "_currentMonthDistributionEnabled",
          "type": "bool"
        },
        {
          "internalType": "bool",
          "name": "_distributionDisabled",
          "type": "bool"
        },
        {
          "internalType": "bool",
          "name": "_claimingDisabled",
          "type": "bool"
        },
        {
          "internalType": "uint128",
          "name": "_totalAssignedRewards",
          "type": "uint128"
        },
        {
          "internalType": "uint128",
          "name": "_totalDistributedRewards",
          "type": "uint128"
        },
        {
          "internalType": "uint128",
          "name": "_totalClaimedRewards",
          "type": "uint128"
        },
        {
          "internalType": "uint128",
          "name": "_totalUnassignedUnclaimedRewards",
          "type": "uint128"
        },
        {
          "internalType": "uint256[]",
          "name": "_monthsWithRewards",
          "type": "uint256[]"
        }
      ],
      "stateMutability": "view",
      "type": "function"
    },
    {
      "inputs": [
        {
          "internalType": "uint256",
          "name": "_projectId",
          "type": "uint256"
        },
        {
          "internalType": "uint256",
          "name": "_month",
          "type": "uint256"
        }
      ],
      "name": "getProjectRewardsInfo",
      "outputs": [
        {
          "internalType": "uint128",
          "name": "_assignedRewards",
          "type": "uint128"
        },
        {
          "internalType": "uint128",
          "name": "_distributedRewards",
          "type": "uint128"
        },
        {
          "internalType": "uint128",
          "name": "_claimedRewards",
          "type": "uint128"
        },
        {
          "internalType": "uint128",
          "name": "_unassignedUnclaimedRewards",
          "type": "uint128"
        }
      ],
      "stateMutability": "view",
      "type": "function"
    },
    {
      "inputs": [],
      "name": "getProjectsBasicInfo",
      "outputs": [
        {
          "internalType": "string[]",
          "name": "_names",
          "type": "string[]"
        },
        {
          "internalType": "bool[]",
          "name": "_claimingDisabled",
          "type": "bool[]"
        }
      ],
      "stateMutability": "view",
      "type": "function"
    },
    {
      "inputs": [],
      "name": "getProjectsCount",
      "outputs": [
        {
          "internalType": "uint256",
          "name": "",
          "type": "uint256"
        }
      ],
      "stateMutability": "view",
      "type": "function"
    },
    {
      "inputs": [
        {
          "internalType": "address",
          "name": "_owner",
          "type": "address"
        }
      ],
      "name": "getRNatAccount",
      "outputs": [
        {
          "internalType": "contract IRNatAccount",
          "name": "",
          "type": "address"
        }
      ],
      "stateMutability": "view",
      "type": "function"
    },
    {
      "inputs": [],
      "name": "getRewardsInfo",
      "outputs": [
        {
          "internalType": "uint256",
          "name": "_totalAssignableRewards",
          "type": "uint256"
        },
        {
          "internalType": "uint256",
          "name": "_totalAssignedRewards",
          "type": "uint256"
        },
        {
          "internalType": "uint256",
          "name": "_totalClaimedRewards",
          "type": "uint256"
        },
        {
          "internalType": "uint256",
          "name": "_totalWithdrawnRewards",
          "type": "uint256"
        },
        {
          "internalType": "uint256",
          "name": "_totalWithdrawnAssignableRewards",
          "type": "uint256"
        }
      ],
      "stateMutability": "view",
      "type": "function"
    },
    {
      "inputs": [],
      "name": "getTokenPoolSupplyData",
      "outputs": [
        {
          "internalType": "uint256",
          "name": "_lockedFundsWei",
          "type": "uint256"
        },
        {
          "internalType": "uint256",
          "name": "_totalInflationAuthorizedWei",
          "type": "uint256"
        },
        {
          "internalType": "uint256",
          "name": "_totalClaimedWei",
          "type": "uint256"
        }
      ],
      "stateMutability": "view",
      "type": "function"
    },
    {
      "inputs": [],
      "name": "governance",
      "outputs": [
        {
          "internalType": "address",
          "name": "",
          "type": "address"
        }
      ],
      "stateMutability": "view",
      "type": "function"
    },
    {
      "inputs": [],
      "name": "governanceSettings",
      "outputs": [
        {
          "internalType": "contract IGovernanceSettings",
          "name": "",
          "type": "address"
        }
      ],
      "stateMutability": "view",
      "type": "function"
    },
    {
      "inputs": [],
      "name": "incentivePoolEnabled",
      "outputs": [
        {
          "internalType": "bool",
          "name": "",
          "type": "bool"
        }
      ],
      "stateMutability": "view",
      "type": "function"
    },
    {
      "inputs": [
        {
          "internalType": "contract IGovernanceSettings",
          "name": "_governanceSettings",
          "type": "address"
        },
        {
          "internalType": "address",
          "name": "_initialGovernance",
          "type": "address"
        }
      ],
      "name": "initialise",
      "outputs": [],
      "stateMutability": "nonpayable",
      "type": "function"
    },
    {
      "inputs": [
        {
          "internalType": "address",
          "name": "_address",
          "type": "address"
        }
      ],
      "name": "isExecutor",
      "outputs": [
        {
          "internalType": "bool",
          "name": "",
          "type": "bool"
        }
      ],
      "stateMutability": "view",
      "type": "function"
    },
    {
      "inputs": [],
      "name": "libraryAddress",
      "outputs": [
        {
          "internalType": "address",
          "name": "",
          "type": "address"
        }
      ],
      "stateMutability": "view",
      "type": "function"
    },
    {
      "inputs": [],
      "name": "manager",
      "outputs": [
        {
          "internalType": "address",
          "name": "",
          "type": "address"
        }
      ],
      "stateMutability": "view",
      "type": "function"
    },
    {
      "inputs": [],
      "name": "name",
      "outputs": [
        {
          "internalType": "string",
          "name": "",
          "type": "string"
        }
      ],
      "stateMutability": "view",
      "type": "function"
    },
    {
      "inputs": [],
      "name": "productionMode",
      "outputs": [
        {
          "internalType": "bool",
          "name": "",
          "type": "bool"
        }
      ],
      "stateMutability": "view",
      "type": "function"
    },
    {
      "inputs": [],
      "name": "receiveIncentive",
      "outputs": [],
      "stateMutability": "payable",
      "type": "function"
    },
    {
      "inputs": [],
      "name": "receiveRewards",
      "outputs": [],
      "stateMutability": "payable",
      "type": "function"
    },
    {
      "inputs": [
        {
          "internalType": "address[]",
          "name": "_executors",
          "type": "address[]"
        }
      ],
      "name": "setClaimExecutors",
      "outputs": [],
      "stateMutability": "payable",
      "type": "function"
    },
    {
      "inputs": [
        {
          "internalType": "uint256",
          "name": "_toAuthorizeWei",
          "type": "uint256"
        }
      ],
      "name": "setDailyAuthorizedIncentive",
      "outputs": [],
      "stateMutability": "nonpayable",
      "type": "function"
    },
    {
      "inputs": [
        {
          "internalType": "address",
          "name": "_fundingAddress",
          "type": "address"
        }
      ],
      "name": "setFundingAddress",
      "outputs": [],
      "stateMutability": "nonpayable",
      "type": "function"
    },
    {
      "inputs": [
        {
          "internalType": "address",
          "name": "_libraryAddress",
          "type": "address"
        }
      ],
      "name": "setLibraryAddress",
      "outputs": [],
      "stateMutability": "nonpayable",
      "type": "function"
    },
    {
      "inputs": [
        {
          "internalType": "address",
          "name": "_manager",
          "type": "address"
        }
      ],
      "name": "setManager",
      "outputs": [],
      "stateMutability": "nonpayable",
      "type": "function"
    },
    {
      "inputs": [],
      "name": "switchToProductionMode",
      "outputs": [],
      "stateMutability": "nonpayable",
      "type": "function"
    },
    {
      "inputs": [],
      "name": "symbol",
      "outputs": [
        {
          "internalType": "string",
          "name": "",
          "type": "string"
        }
      ],
      "stateMutability": "view",
      "type": "function"
    },
    {
      "inputs": [
        {
          "internalType": "bytes4",
          "name": "selector",
          "type": "bytes4"
        }
      ],
      "name": "timelockedCalls",
      "outputs": [
        {
          "internalType": "uint256",
          "name": "allowedAfterTimestamp",
          "type": "uint256"
        },
        {
          "internalType": "bytes",
          "name": "encodedCall",
          "type": "bytes"
        }
      ],
      "stateMutability": "view",
      "type": "function"
    },
    {
      "inputs": [],
      "name": "totalSupply",
      "outputs": [
        {
          "internalType": "uint256",
          "name": "",
          "type": "uint256"
        }
      ],
      "stateMutability": "view",
      "type": "function"
    },
    {
      "inputs": [
        {
          "internalType": "address",
          "name": "",
          "type": "address"
        },
        {
          "internalType": "uint256",
          "name": "",
          "type": "uint256"
        }
      ],
      "name": "transfer",
      "outputs": [
        {
          "internalType": "bool",
          "name": "",
          "type": "bool"
        }
      ],
      "stateMutability": "pure",
      "type": "function"
    },
    {
      "inputs": [
        {
          "internalType": "contract IERC20",
          "name": "_token",
          "type": "address"
        },
        {
          "internalType": "uint256",
          "name": "_amount",
          "type": "uint256"
        }
      ],
      "name": "transferExternalToken",
      "outputs": [],
      "stateMutability": "nonpayable",
      "type": "function"
    },
    {
      "inputs": [
        {
          "internalType": "address",
          "name": "",
          "type": "address"
        },
        {
          "internalType": "address",
          "name": "",
          "type": "address"
        },
        {
          "internalType": "uint256",
          "name": "",
          "type": "uint256"
        }
      ],
      "name": "transferFrom",
      "outputs": [
        {
          "internalType": "bool",
          "name": "",
          "type": "bool"
        }
      ],
      "stateMutability": "pure",
      "type": "function"
    },
    {
      "inputs": [
        {
          "internalType": "uint256",
          "name": "_projectId",
          "type": "uint256"
        },
        {
          "internalType": "uint256[]",
          "name": "_months",
          "type": "uint256[]"
        }
      ],
      "name": "unassignRewards",
      "outputs": [],
      "stateMutability": "nonpayable",
      "type": "function"
    },
    {
      "inputs": [
        {
          "internalType": "uint256",
          "name": "_projectId",
          "type": "uint256"
        },
        {
          "internalType": "uint256[]",
          "name": "_months",
          "type": "uint256[]"
        }
      ],
      "name": "unassignUnclaimedRewards",
      "outputs": [],
      "stateMutability": "nonpayable",
      "type": "function"
    },
    {
      "inputs": [
        {
          "internalType": "bytes32[]",
          "name": "_contractNameHashes",
          "type": "bytes32[]"
        },
        {
          "internalType": "address[]",
          "name": "_contractAddresses",
          "type": "address[]"
        }
      ],
      "name": "updateContractAddresses",
      "outputs": [],
      "stateMutability": "nonpayable",
      "type": "function"
    },
    {
      "inputs": [
        {
          "internalType": "uint256",
          "name": "_projectId",
          "type": "uint256"
        },
        {
          "internalType": "string",
          "name": "_name",
          "type": "string"
        },
        {
          "internalType": "address",
          "name": "_distributor",
          "type": "address"
        },
        {
          "internalType": "bool",
          "name": "_currentMonthDistributionEnabled",
          "type": "bool"
        }
      ],
      "name": "updateProject",
      "outputs": [],
      "stateMutability": "nonpayable",
      "type": "function"
    },
    {
      "inputs": [],
      "name": "wNat",
      "outputs": [
        {
          "internalType": "contract IWNat",
          "name": "",
          "type": "address"
        }
      ],
      "stateMutability": "view",
      "type": "function"
    },
    {
      "inputs": [
        {
          "internalType": "uint128",
          "name": "_amount",
          "type": "uint128"
        },
        {
          "internalType": "bool",
          "name": "_wrap",
          "type": "bool"
        }
      ],
      "name": "withdraw",
      "outputs": [],
      "stateMutability": "nonpayable",
      "type": "function"
    },
    {
      "inputs": [
        {
          "internalType": "bool",
          "name": "_wrap",
          "type": "bool"
        }
      ],
      "name": "withdrawAll",
      "outputs": [],
      "stateMutability": "nonpayable",
      "type": "function"
    },
    {
      "inputs": [
        {
          "internalType": "address",
          "name": "_recipient",
          "type": "address"
        },
        {
          "internalType": "uint128",
          "name": "_amount",
          "type": "uint128"
        }
      ],
      "name": "withdrawUnassignedRewards",
      "outputs": [],
      "stateMutability": "nonpayable",
      "type": "function"
    }
  ],
  "bytecode": "0x60c06040523480156200001157600080fd5b5060405162006202380380620062028339810160408190526200003491620003da565b858089896200004482826200012e565b50620000709050817f714f205b2abd25bef1d06a1af944e38c113fe6160375c4e1d6d5cf28848e771955565b5050600160085542811115620000cd5760405162461bcd60e51b815260206004820152601f60248201527f6669727374206d6f6e746820737461727420696e20746865206675747572650060448201526064015b60405180910390fd5b620000d882620002a3565b6009620000e686826200054a565b50600a620000f585826200054a565b5060ff90921660a052601180546001600160a01b039092166001600160a01b031990921691909117905560805250620006169350505050565b600054600160a01b900460ff16156200018a5760405162461bcd60e51b815260206004820152601460248201527f696e697469616c6973656420213d2066616c73650000000000000000000000006044820152606401620000c4565b6001600160a01b038216620001e25760405162461bcd60e51b815260206004820152601860248201527f676f7665726e616e63652073657474696e6773207a65726f00000000000000006044820152606401620000c4565b6001600160a01b0381166200022d5760405162461bcd60e51b815260206004820152601060248201526f5f676f7665726e616e6365207a65726f60801b6044820152606401620000c4565b600080546001600160a01b038481166001600160a81b031990921691909117600160a01b17909155600180549183166001600160a01b0319909216821790556040519081527f9789733827840833afc031fb2ef9ab6894271f77bad2085687cf4ae5c7bee4db9060200160405180910390a15050565b6001600160a01b038116620002ea5760405162461bcd60e51b815260206004820152600c60248201526b61646472657373207a65726f60a01b6044820152606401620000c4565b50565b6001600160a01b0381168114620002ea57600080fd5b80516200031081620002ed565b919050565b634e487b7160e01b600052604160045260246000fd5b600082601f8301126200033d57600080fd5b81516001600160401b03808211156200035a576200035a62000315565b604051601f8301601f19908116603f0116810190828211818310171562000385576200038562000315565b81604052838152602092508683858801011115620003a257600080fd5b600091505b83821015620003c65785820183015181830184015290820190620003a7565b600093810190920192909252949350505050565b600080600080600080600080610100898b031215620003f857600080fd5b88516200040581620002ed565b60208a01519098506200041881620002ed565b60408a01519097506200042b81620002ed565b60608a01519096506001600160401b03808211156200044957600080fd5b620004578c838d016200032b565b965060808b01519150808211156200046e57600080fd5b506200047d8b828c016200032b565b94505060a089015160ff811681146200049557600080fd5b9250620004a560c08a0162000303565b915060e089015190509295985092959890939650565b600181811c90821680620004d057607f821691505b602082108103620004f157634e487b7160e01b600052602260045260246000fd5b50919050565b601f8211156200054557600081815260208120601f850160051c81016020861015620005205750805b601f850160051c820191505b8181101562000541578281556001016200052c565b5050505b505050565b81516001600160401b0381111562000566576200056662000315565b6200057e81620005778454620004bb565b84620004f7565b602080601f831160018114620005b657600084156200059d5750858301515b600019600386901b1c1916600185901b17855562000541565b600085815260208120601f198616915b82811015620005e757888601518255948401946001909101908401620005c6565b5085821015620006065787850151600019600388901b60f8161c191681555b5050505050600190811b01905550565b60805160a051615baa62000658600039600061058a0152600081816107e701528181610fb501528181612c3c015281816133830152613cd60152615baa6000f3fe6080604052600436106103d95760003560e01c80638f2b3605116101fd578063d3b7bfb411610118578063de6feb78116100ab578063eb23070e1161007a578063eb23070e14610c5a578063ef88bf1314610c7a578063f5a9838314610c9a578063f5f5ba7214610caf578063fabf596814610cdc57600080fd5b8063de6feb7814610be4578063debfda3014610c04578063e17f212e14610c24578063e4a8f18b14610c4557600080fd5b8063d808f743116100e7578063d808f74314610b3c578063dc905d5b14610b8f578063dd62ed3e14610baf578063ddd1b67e14610bcf57600080fd5b8063d3b7bfb414610ac2578063d5999a5c14610ae2578063d6ab3b7f14610af9578063d7dd16ff14610b1957600080fd5b8063ad523fe111610190578063b92f3d541161015f578063b92f3d5414610a29578063c4db961914610a49578063cb12b3a014610a69578063d0ebdbe714610aa257600080fd5b8063ad523fe11461097a578063af04cd3b146109d4578063b00c0b76146109e9578063b816f51314610a0957600080fd5b80639edbf007116101cc5780639edbf007146108ff578063a50d5f3d1461091f578063a9059cbb1461093f578063ab60df901461095a57600080fd5b80638f2b3605146108975780639119c494146108b757806395d89b41146108ca5780639cb93f57146108df57600080fd5b80634863ba17116102f8578063631cbe3c1161028b57806368e79c6f1161025a57806368e79c6f146107d55780636f76339c1461080957806370a082311461082957806374e6310e146108495780638a3147261461087757600080fd5b8063631cbe3c1461076d578063679adc881461077557806367a3fde71461079557806367fc4029146107b557600080fd5b80635aa6e675116102c75780635aa6e675146107035780635c039af2146107185780635ff270791461072d57806362354e031461074d57600080fd5b80634863ba1714610687578063489a8a47146106a75780635267a15d146106c757806353b1e258146106fb57600080fd5b80632dc57334116103705780633bd4fbc61161033f5780633bd4fbc6146106065780633be976bf146106265780633e6afd7b14610646578063481c6a751461066757600080fd5b80632dc573341461053857806330147b7714610558578063313ce5671461057857806336116ad5146105be57600080fd5b806318160ddd116103ac57806318160ddd146104a35780631c1c6fe5146104c657806323b872dd146104e85780632dafdbbf1461050857600080fd5b806306fdde03146103de578063095ea7b3146104095780630ac4d982146104395780630f1d1e311461046b575b600080fd5b3480156103ea57600080fd5b506103f3610d12565b6040516104009190614c29565b60405180910390f35b34801561041557600080fd5b50610429610424366004614c51565b610da0565b6040519015158152602001610400565b34801561044557600080fd5b506007546001600160a01b03165b6040516001600160a01b039091168152602001610400565b34801561047757600080fd5b5061048b610486366004614cc8565b610de9565b6040516001600160801b039091168152602001610400565b3480156104af57600080fd5b506104b8610f51565b604051908152602001610400565b3480156104d257600080fd5b506104e66104e1366004614d21565b610f81565b005b3480156104f457600080fd5b50610429610503366004614d3e565b6110e1565b34801561051457600080fd5b5061051d611125565b60408051938452602084019290925290820152606001610400565b34801561054457600080fd5b506104e6610553366004614d7f565b611185565b34801561056457600080fd5b506104e6610573366004614ed5565b61151e565b34801561058457600080fd5b506105ac7f000000000000000000000000000000000000000000000000000000000000000081565b60405160ff9091168152602001610400565b3480156105ca57600080fd5b506105de6105d9366004614f11565b6115bb565b604080516001600160801b039485168152939092166020840152151590820152606001610400565b34801561061257600080fd5b50610453610621366004614f4a565b61164b565b34801561063257600080fd5b506104e6610641366004614f67565b61165c565b34801561065257600080fd5b50600d5461042990600160801b900460ff1681565b34801561067357600080fd5b50601154610453906001600160a01b031681565b34801561069357600080fd5b506104e66106a2366004614f4a565b61186b565b3480156106b357600080fd5b506104e66106c2366004614c51565b611938565b3480156106d357600080fd5b507f714f205b2abd25bef1d06a1af944e38c113fe6160375c4e1d6d5cf28848e771954610453565b6104e66119c3565b34801561070f57600080fd5b50610453611a29565b34801561072457600080fd5b506104e6611ac5565b34801561073957600080fd5b506104e6610748366004614fe1565b611b14565b34801561075957600080fd5b50600054610453906001600160a01b031681565b6104e6611d9a565b34801561078157600080fd5b506104e6610790366004614f4a565b611e3e565b3480156107a157600080fd5b506104e66107b036600461500b565b611e8d565b3480156107c157600080fd5b506104e66107d0366004614fe1565b61233a565b3480156107e157600080fd5b506104b87f000000000000000000000000000000000000000000000000000000000000000081565b34801561081557600080fd5b506104e6610824366004615084565b61241b565b34801561083557600080fd5b506104b8610844366004614f4a565b61271e565b34801561085557600080fd5b50610869610864366004614fe1565b61278a565b6040516104009291906150ca565b34801561088357600080fd5b506104e6610892366004614ed5565b61282f565b3480156108a357600080fd5b506104e66108b23660046150f8565b6128b4565b6104e66108c5366004615131565b612b05565b3480156108d657600080fd5b506103f3612b72565b3480156108eb57600080fd5b506104e66108fa366004614ed5565b612b7f565b34801561090b57600080fd5b50600f54610453906001600160a01b031681565b34801561092b57600080fd5b506104e661093a366004615172565b612c08565b34801561094b57600080fd5b50610429610503366004614c51565b34801561096657600080fd5b5061048b6109753660046151a0565b612d74565b34801561098657600080fd5b50600b54600c54600d54604080516001600160801b038086168252600160801b958690048116602083015280851692820192909252939092048216606084015216608082015260a001610400565b3480156109e057600080fd5b506104b8612e9c565b3480156109f557600080fd5b506104e6610a04366004615229565b612ea6565b348015610a1557600080fd5b50601054610453906001600160a01b031681565b348015610a3557600080fd5b506104e6610a44366004615084565b612f81565b348015610a5557600080fd5b50600e54610453906001600160a01b031681565b348015610a7557600080fd5b50600354600454600554600654604080519485526020850193909352918301526060820152608001610400565b348015610aae57600080fd5b506104e6610abd366004614f4a565b61325e565b348015610ace57600080fd5b50601254610453906001600160a01b031681565b348015610aee57600080fd5b506104b862278d0081565b348015610b0557600080fd5b5061051d610b14366004614f4a565b613291565b348015610b2557600080fd5b50610b2e613408565b6040516104009291906152d7565b348015610b4857600080fd5b50610b5c610b57366004615374565b6135e6565b604080516001600160801b0395861681529385166020850152918416918301919091529091166060820152608001610400565b348015610b9b57600080fd5b506104e6610baa366004614ed5565b61363a565b348015610bbb57600080fd5b506104b8610bca366004615396565b6136c3565b348015610bdb57600080fd5b506104b861370e565b348015610bf057600080fd5b506104e6610bff3660046153c4565b613718565b348015610c1057600080fd5b50610429610c1f366004614f4a565b61376a565b348015610c3057600080fd5b5060005461042990600160a81b900460ff1681565b348015610c5157600080fd5b506013546104b8565b348015610c6657600080fd5b506104e6610c753660046153dd565b6137ed565b348015610c8657600080fd5b506104e6610c95366004615396565b613889565b348015610ca657600080fd5b506104e66139ef565b348015610cbb57600080fd5b506040805180820190915260048152631493985d60e21b60208201526103f3565b348015610ce857600080fd5b50610cfc610cf73660046153c4565b613ab5565b6040516104009a999897969594939291906154bb565b60098054610d1f90615544565b80601f0160208091040260200160405190810160405280929190818152602001828054610d4b90615544565b8015610d985780601f10610d6d57610100808354040283529160200191610d98565b820191906000526020600020905b815481529060010190602001808311610d7b57829003601f168201915b505050505081565b60405162461bcd60e51b8152602060048201526016602482015275185c1c1c9bdd985b081b9bdd081cdd5c1c1bdc9d195960521b60448201526000906064015b60405180910390fd5b6000610df3613c39565b610dfb613ca1565b6000610e05613ccb565b905080831115610e4d5760405162461bcd60e51b81526020600482015260136024820152726d6f6e746820696e207468652066757475726560681b6044820152606401610de0565b60005b84811015610e9957610e7b868683818110610e6d57610e6d61557e565b905060200201358584613d05565b610e8590846155aa565b925080610e91816155d1565b915050610e50565b50600c8054839190600090610eb89084906001600160801b03166155aa565b92506101000a8154816001600160801b0302191690836001600160801b03160217905550336001600160a01b031660006001600160a01b03167fddf252ad1be2c89b69c2b068fc378daa952ba7f163c4a11628f55a4df523b3ef84604051610f2f91906001600160801b0391909116815260200190565b60405180910390a350610f426001600855565b610f4a614140565b9392505050565b600c54600090610f73906001600160801b03600160801b8204811691166155ea565b6001600160801b0316905090565b610f89613c39565b6000610f93614187565b600f54604051631474538b60e21b81526001600160a01b0391821660048201527f0000000000000000000000000000000000000000000000000000000000000000602482015284151560448201529116906351d14e2c906064016020604051808303816000875af115801561100c573d6000803e3d6000fd5b505050506040513d601f19601f82011682018060405250810190611030919061560a565b905080600c60108282829054906101000a90046001600160801b031661105691906155aa565b92506101000a8154816001600160801b0302191690836001600160801b0316021790555060006001600160a01b0316336001600160a01b03167fddf252ad1be2c89b69c2b068fc378daa952ba7f163c4a11628f55a4df523b3ef836040516110cd91906001600160801b0391909116815260200190565b60405180910390a3506110de614140565b50565b60405162461bcd60e51b81526020600482015260166024820152751d1c985b9cd9995c881b9bdd081cdd5c1c1bdc9d195960521b6044820152600090606401610de0565b600d54600b5460009182918291611148916001600160801b0391821691166155aa565b600d54600c546001600160801b039283169550600094506111759291821691600160801b909104166155aa565b6001600160801b03169050909192565b8281146111a45760405162461bcd60e51b8152600401610de090615627565b60006111af87614435565b90506111ba816144a6565b60006111c4613ccb565b90506111d1876001615651565b8114806111f357506001820154600160a01b900460ff1680156111f357508681145b61123f5760405162461bcd60e51b815260206004820152601f60248201527f646973747269627574696f6e20666f72206d6f6e74682064697361626c6564006044820152606401610de0565b60018201546001600160a01b0316331461128e5760405162461bcd60e51b815260206004820152601060248201526f37b7363c903234b9ba3934b13aba37b960811b6044820152606401610de0565b60008781526004830160205260408120815b878110156113c8576112d78989838181106112bd576112bd61557e565b90506020020160208101906112d29190614f4a565b6144fa565b8686828181106112e9576112e961557e565b90506020020160208101906112fe9190615664565b8260020160008b8b858181106113165761131661557e565b905060200201602081019061132b9190614f4a565b6001600160a01b0316815260208101919091526040016000908120805490919061135f9084906001600160801b03166155aa565b92506101000a8154816001600160801b0302191690836001600160801b031602179055508686828181106113955761139561557e565b90506020020160208101906113aa9190615664565b6113b490846155aa565b9250806113c0816155d1565b9150506112a0565b5080546001600160801b03808216916113ea918591600160801b9004166155aa565b6001600160801b031611156114415760405162461bcd60e51b815260206004820152601860248201527f657863656564732061737369676e6564207265776172647300000000000000006044820152606401610de0565b805482908290601090611465908490600160801b90046001600160801b03166155aa565b92506101000a8154816001600160801b0302191690836001600160801b03160217905550818460020160108282829054906101000a90046001600160801b03166114af91906155aa565b92506101000a8154816001600160801b0302191690836001600160801b03160217905550888a7fd6d0645796a75512d193f0777de35db76867294cabe5495f80180876f6af2c518a8a8a8a60405161150a94939291906156bf565b60405180910390a350505050505050505050565b61152661453f565b60005b815181101561157d5760006115568383815181106115495761154961557e565b6020026020010151614435565b600101805460ff60a81b1916600160a81b1790555080611575816155d1565b915050611529565b507fb70968995a4c1e44f87ceefe95859ff83302d137a4c16289b2852e6c9f3a59838160016040516115b0929190615724565b60405180910390a150565b6000806000806115ca87614435565b90506115d4613ccb565b8611156115ec57600080600093509350935050611642565b600086815260048201602090815260408083206001600160a01b03891684526002019091529020546001909101546001600160801b038083169550600160801b9092049091169250600160b01b900460ff161590505b93509350939050565b600061165682614588565b92915050565b61166461453f565b848314801561167257508481145b61168e5760405162461bcd60e51b8152600401610de090615627565b60005b85811015611862576116ae8585838181106112bd576112bd61557e565b60138054600181018083556000838152919290839081106116d1576116d161557e565b906000526020600020906007020190508888848181106116f3576116f361557e565b90506020028101906117059190615748565b82916117129190836157dc565b508686848181106117255761172561557e565b905060200201602081019061173a9190614f4a565b6001820180546001600160a01b0319166001600160a01b039290921691909117905584848481811061176e5761176e61557e565b90506020020160208101906117839190614d21565b600182018054911515600160a01b0260ff60a01b19909216919091179055817fbb0a7330b774a82e3f64257cf07307a3d9466d2c9c45cc6f2ba7c39b746301378a8a868181106117d5576117d561557e565b90506020028101906117e79190615748565b8a8a888181106117f9576117f961557e565b905060200201602081019061180e9190614f4a565b8989898181106118205761182061557e565b90506020020160208101906118359190614d21565b60405161184594939291906158c5565b60405180910390a25050808061185a906155d1565b915050611691565b50505050505050565b600054600160b01b900460ff168061188d5750600054600160a81b900460ff16155b1561192d5761189a6145e7565b803b63ffffffff166118df5760405162461bcd60e51b815260206004820152600e60248201526d1b9bdd08184818dbdb9d1c9858dd60921b6044820152606401610de0565b601080546001600160a01b0319166001600160a01b0383169081179091556040519081527fe88d6753e299a05129ac6a16302484e9cf5aa95c7d045575196b97ec5282ee9d906020016115b0565b6110de60003661461f565b611940613ca1565b611948614187565b600f546040516317de921960e11b81526001600160a01b039182166004820152848216602482015260448101849052911690632fbd243290606401600060405180830381600087803b15801561199d57600080fd5b505af11580156119b1573d6000803e3d6000fd5b505050506119bf6001600855565b5050565b6119cb613c39565b6119d361475c565b346004546119e19190615651565b6004556119ec6147ac565b6040513481527f315f313628a86fd313dacf173d9ea6d987a528c9c0c7161c5571099645198b4d9060200160405180910390a1611a27614140565b565b60008054600160a81b900460ff16611a4b57506001546001600160a01b031690565b60008054906101000a90046001600160a01b03166001600160a01b031663732524946040518163ffffffff1660e01b8152600401602060405180830381865afa158015611a9c573d6000803e3d6000fd5b505050506040513d601f19601f82011682018060405250810190611ac091906158fa565b905090565b600054600160b01b900460ff1680611ae75750600054600160a81b900460ff16155b15611b0957611af46145e7565b600d805460ff60801b1916600160801b179055565b611a2760003661461f565b611b1d3361376a565b611b595760405162461bcd60e51b815260206004820152600d60248201526c37b7363c9032bc32b1baba37b960991b6044820152606401610de0565b6001600160e01b0319811660009081526002602052604081208054909103611bc35760405162461bcd60e51b815260206004820152601a60248201527f74696d656c6f636b3a20696e76616c69642073656c6563746f720000000000006044820152606401610de0565b8054421015611c145760405162461bcd60e51b815260206004820152601960248201527f74696d656c6f636b3a206e6f7420616c6c6f77656420796574000000000000006044820152606401610de0565b6000816001018054611c2590615544565b80601f0160208091040260200160405190810160405280929190818152602001828054611c5190615544565b8015611c9e5780601f10611c7357610100808354040283529160200191611c9e565b820191906000526020600020905b815481529060010190602001808311611c8157829003601f168201915b505050506001600160e01b0319851660009081526002602052604081208181559293509050611cd06001830182614b8f565b50506000805460ff60b01b1916600160b01b1781556040513090611cf5908490615917565b6000604051808303816000865af19150503d8060008114611d32576040519150601f19603f3d011682016040523d82523d6000602084013e611d37565b606091505b50506000805460ff60b01b19169055604080516001600160e01b0319871681524260208201529192507fa7326b57fc9cfe267aaea5e7f0b01757154d265620a0585819416ee9ddd2c438910160405180910390a1611d94816147f0565b50505050565b611da2613c39565b6012546001600160a01b03163314611df45760405162461bcd60e51b81526020600482015260156024820152746e6f7420612066756e64696e67206164647265737360581b6044820152606401610de0565b600b8054349190600090611e129084906001600160801b03166155aa565b92506101000a8154816001600160801b0302191690836001600160801b03160217905550611a27614140565b600054600160b01b900460ff1680611e605750600054600160a81b900460ff16155b1561192d57611e6d6145e7565b601280546001600160a01b0383166001600160a01b031990911617905550565b611e9561453f565b611e9d613ccb565b611ea8866001615651565b1015611ef65760405162461bcd60e51b815260206004820152601960248201527f6d6f6e746820746f6f2066617220696e207468652070617374000000000000006044820152606401610de0565b828114611f155760405162461bcd60e51b8152600401610de090615627565b6000805b84811015612270576000611f44878784818110611f3857611f3861557e565b90506020020135614435565b9050611f4f816144a6565b848483818110611f6157611f6161557e565b9050602002016020810190611f769190615664565b600282018054600090611f939084906001600160801b03166155aa565b82546001600160801b039182166101009390930a92830291909202199091161790555060008881526004820160205260409020858584818110611fd857611fd861557e565b9050602002016020810190611fed9190615664565b815482906000906120089084906001600160801b03166155aa565b92506101000a8154816001600160801b0302191690836001600160801b0316021790555085858481811061203e5761203e61557e565b90506020020160208101906120539190615664565b61205d90856155aa565b600583015490945080158061209a5750896005840161207d600184615933565b8154811061208d5761208d61557e565b9060005260206000200154105b156120be5760058301805460018101825560009182526020909120018a90556121dd565b6000811180156120f7575089600584016120d9600184615933565b815481106120e9576120e961557e565b906000526020600020015410155b1561210e578061210681615946565b9150506120be565b898360050182815481106121245761212461557e565b9060005260206000200154146121dd57600583018054600190810180835560009283526121519190615933565b90505b818111156121b9576005840161216b600183615933565b8154811061217b5761217b61557e565b906000526020600020015484600501828154811061219b5761219b61557e565b600091825260209091200155806121b181615946565b915050612154565b50898360050182815481106121d0576121d061557e565b6000918252602090912001555b898989868181106121f0576121f061557e565b905060200201357fc9dfdb5ed8fa6de49575d26514d4301e875c50a796b1563948d63b5c99a4537489898881811061222a5761222a61557e565b905060200201602081019061223f9190615664565b6040516001600160801b03909116815260200160405180910390a35050508080612268906155d1565b915050611f19565b50600b546001600160801b0380821691612293918491600160801b9004166155aa565b6001600160801b031611156122ea5760405162461bcd60e51b815260206004820152601a60248201527f657863656564732061737369676e61626c6520726577617264730000000000006044820152606401610de0565b80600b60108282829054906101000a90046001600160801b031661230e91906155aa565b92506101000a8154816001600160801b0302191690836001600160801b03160217905550505050505050565b61234261480d565b6001600160e01b0319811660009081526002602052604081205490036123aa5760405162461bcd60e51b815260206004820152601a60248201527f74696d656c6f636b3a20696e76616c69642073656c6563746f720000000000006044820152606401610de0565b604080516001600160e01b0319831681524260208201527f7735b2391c38a81419c513e30ca578db7158eadd7101511b23e221c654d19cf8910160405180910390a16001600160e01b031981166000908152600260205260408120818155906124166001830182614b8f565b505050565b6011546001600160a01b031633148061244c5750612437611a29565b6001600160a01b0316336001600160a01b0316145b6124985760405162461bcd60e51b815260206004820152601a60248201527f6f6e6c79206d616e61676572206f7220676f7665726e616e63650000000000006044820152606401610de0565b60006124a383614435565b905060006124af613ccb565b90506000805b845181101561268a57828582815181106124d1576124d161557e565b602002602001015160016124e59190615651565b108061251f57506001840154600160a81b900460ff16801561251f575061250a611a29565b6001600160a01b0316336001600160a01b0316145b61256b5760405162461bcd60e51b815260206004820152601860248201527f756e61737369676e6d656e74206e6f7420616c6c6f77656400000000000000006044820152606401610de0565b60008460040160008784815181106125855761258561557e565b6020908102919091018101518252810191909152604001600090812080549092506125c2906001600160801b03600160801b8204811691166155ea565b8254909150819083906000906125e29084906001600160801b03166155ea565b92506101000a8154816001600160801b0302191690836001600160801b03160217905550808461261291906155aa565b93508683815181106126265761262661557e565b6020026020010151887f16be1ab033a9347c799232ac4f36a27199e48d81dac92c2bb429182d06b3c1a78360405161266d91906001600160801b0391909116815260200190565b60405180910390a350508080612682906155d1565b9150506124b5565b506002830180548291906000906126ab9084906001600160801b03166155ea565b92506101000a8154816001600160801b0302191690836001600160801b0316021790555080600b60108282829054906101000a90046001600160801b03166126f391906155ea565b92506101000a8154816001600160801b0302191690836001600160801b031602179055505050505050565b600061272982614588565b6001600160a01b03166327fda4de6040518163ffffffff1660e01b8152600401602060405180830381865afa158015612766573d6000803e3d6000fd5b505050506040513d601f19601f82011682018060405250810190611656919061595d565b600260205260009081526040902080546001820180549192916127ac90615544565b80601f01602080910402602001604051908101604052809291908181526020018280546127d890615544565b80156128255780601f106127fa57610100808354040283529160200191612825565b820191906000526020600020905b81548152906001019060200180831161280857829003601f168201915b5050505050905082565b61283761453f565b60005b815181101561288157600061285a8383815181106115495761154961557e565b600101805460ff60b01b1916600160b01b1790555080612879816155d1565b91505061283a565b507f9254840a31138efc80f83032ab4395d9581ff3d4965cf12c2a936a91ae63a1378160016040516115b0929190615724565b6128bc613c39565b600054600160b01b900460ff16806128de5750600054600160a81b900460ff16155b15612af2576128eb6145e7565b6128f4826144fa565b600b546001600160801b038083169161291791600160801b8204811691166155ea565b6001600160801b0316101561296e5760405162461bcd60e51b815260206004820152601f60248201527f696e73756666696369656e742061737369676e61626c652072657761726473006044820152606401610de0565b600b805482919060009061298c9084906001600160801b03166155ea565b92506101000a8154816001600160801b0302191690836001600160801b0316021790555080600d60008282829054906101000a90046001600160801b03166129d491906155aa565b92506101000a8154816001600160801b0302191690836001600160801b031602179055507f4bd5444026d69324862c7672167ce81f25889ccc877c7ed481e4276183b6948a8282604051612a469291906001600160a01b039290921682526001600160801b0316602082015260400190565b60405180910390a16000826001600160a01b0316826001600160801b031660405160006040518083038185875af1925050503d8060008114612aa4576040519150601f19603f3d011682016040523d82523d6000602084013e612aa9565b606091505b5050905080612aec5760405162461bcd60e51b815260206004820152600f60248201526e151c985b9cd9995c8819985a5b1959608a1b6044820152606401610de0565b50612afd565b612afd60003661461f565b6119bf614140565b612b0d614187565b600e54604051632571bd6960e11b81526001600160a01b0392831692634ae37ad2923492612b45929091169087908790600401615976565b6000604051808303818588803b158015612b5e57600080fd5b505af1158015611862573d6000803e3d6000fd5b600a8054610d1f90615544565b612b8761480d565b60005b8151811015612bd5576000612baa8383815181106115495761154961557e565b9050612bb581614867565b600101805460ff60b01b1916905580612bcd816155d1565b915050612b8a565b507f9254840a31138efc80f83032ab4395d9581ff3d4965cf12c2a936a91ae63a1378160006040516115b0929190615724565b612c10613c39565b6000612c1a614187565b600f546040516348a6394f60e01b81526001600160a01b0391821660048201527f000000000000000000000000000000000000000000000000000000000000000060248201526001600160801b038616604482015284151560648201529116906348a6394f906084016020604051808303816000875af1158015612ca2573d6000803e3d6000fd5b505050506040513d601f19601f82011682018060405250810190612cc6919061560a565b905080600c60108282829054906101000a90046001600160801b0316612cec91906155aa565b92506101000a8154816001600160801b0302191690836001600160801b0316021790555060006001600160a01b0316336001600160a01b03167fddf252ad1be2c89b69c2b068fc378daa952ba7f163c4a11628f55a4df523b3ef83604051612d6391906001600160801b0391909116815260200190565b60405180910390a3506119bf614140565b600080612d8084614435565b6001810154909150600160b01b900460ff1615612da1576000915050611656565b6000612dab613ccb565b6001600160a01b0385166000908152600684016020526040812054600585015492935091612dda908390615933565b90506000805b82811015612e90576000866005018581548110612dff57612dff61557e565b9060005260206000200154905080861015612e1a5750612e90565b600081815260048801602090815260408083206001600160a01b038d168452600281019092529091208054612e61906001600160801b03600160801b8204811691166155ea565b612e6b90866155aa565b945086612e77816155d1565b9750505050508080612e88906155d1565b915050612de0565b50979650505050505050565b6000611ac06148c9565b7f714f205b2abd25bef1d06a1af944e38c113fe6160375c4e1d6d5cf28848e7719546001600160a01b0316336001600160a01b031614612f1f5760405162461bcd60e51b815260206004820152601460248201527337b7363c9030b2323932b9b9903ab83230ba32b960611b6044820152606401610de0565b612f77612f5383836040518060400160405280600e81526020016d20b2323932b9b9aab83230ba32b960911b8152506148e8565b7f714f205b2abd25bef1d06a1af944e38c113fe6160375c4e1d6d5cf28848e771955565b6119bf82826149c3565b612f8961480d565b6000612f9483614435565b6001810154909150600160b01b900460ff16612fea5760405162461bcd60e51b815260206004820152601560248201527418db185a5b5a5b99c81b9bdd08191a5cd8589b1959605a1b6044820152606401610de0565b6000805b83518110156131355760008360040160008684815181106130115761301161557e565b60209081029190910181015182528101919091526040016000908120600181015481549193506001600160801b038082169261305b92600160801b908190048316929104166155ea565b61306591906155ea565b9050808260010160108282829054906101000a90046001600160801b031661308d91906155aa565b92506101000a8154816001600160801b0302191690836001600160801b0316021790555080846130bd91906155aa565b93508583815181106130d1576130d161557e565b6020026020010151877f33aa7fa8693d9d4619857267f831d8a7ec7183176c4e0a0759e7604c5771e3088360405161311891906001600160801b0391909116815260200190565b60405180910390a35050808061312d906155d1565b915050612fee565b50808260030160108282829054906101000a90046001600160801b031661315c91906155aa565b92506101000a8154816001600160801b0302191690836001600160801b0316021790555080600b60108282829054906101000a90046001600160801b03166131a491906155ea565b82546001600160801b039182166101009390930a9283029190920219909116179055506001828101805460ff60a81b1916600160a81b179055604080518281528082019091526000916020808301908036833701905050905084816000815181106132115761321161557e565b6020026020010181815250507fb70968995a4c1e44f87ceefe95859ff83302d137a4c16289b2852e6c9f3a598381600160405161324f929190615724565b60405180910390a15050505050565b61326661480d565b61326f816144fa565b601180546001600160a01b0319166001600160a01b0392909216919091179055565b6000806000806132a085614588565b600f54604051632d985e7b60e21b81526001600160a01b03918216600482015291925082169063b66179ec90602401602060405180830381865afa1580156132ec573d6000803e3d6000fd5b505050506040513d601f19601f82011682018060405250810190613310919061595d565b9350806001600160a01b03166327fda4de6040518163ffffffff1660e01b8152600401602060405180830381865afa158015613350573d6000803e3d6000fd5b505050506040513d601f19601f82011682018060405250810190613374919061595d565b6040516302b5eedb60e21b81527f000000000000000000000000000000000000000000000000000000000000000060048201529093506001600160a01b03821690630ad7bb6c90602401602060405180830381865afa1580156133db573d6000803e3d6000fd5b505050506040513d601f19601f820116820180604052508101906133ff919061595d565b93959294505050565b60135460609081906001600160401b0381111561342757613427614e01565b60405190808252806020026020018201604052801561345a57816020015b60608152602001906001900390816134455790505b506013549092506001600160401b0381111561347857613478614e01565b6040519080825280602002602001820160405280156134a1578160200160208202803683370190505b50905060005b6013548110156135e157601381815481106134c4576134c461557e565b906000526020600020906007020160000180546134e090615544565b80601f016020809104026020016040519081016040528092919081815260200182805461350c90615544565b80156135595780601f1061352e57610100808354040283529160200191613559565b820191906000526020600020905b81548152906001019060200180831161353c57829003601f168201915b50505050508382815181106135705761357061557e565b60200260200101819052506013818154811061358e5761358e61557e565b906000526020600020906007020160010160169054906101000a900460ff168282815181106135bf576135bf61557e565b91151560209283029190910190910152806135d9816155d1565b9150506134a7565b509091565b60008060008060006135f787614435565b60009687526004016020525050604090932080546001909101546001600160801b0380831697600160801b93849004821697508183169650929091041692509050565b61364261480d565b60005b81518110156136905760006136658383815181106115495761154961557e565b905061367081614867565b600101805460ff60a81b1916905580613688816155d1565b915050613645565b507fb70968995a4c1e44f87ceefe95859ff83302d137a4c16289b2852e6c9f3a59838160006040516115b0929190615724565b60405162461bcd60e51b815260206004820152601760248201527f616c6c6f77616e6365206e6f7420737570706f727465640000000000000000006044820152600090606401610de0565b6000611ac0613ccb565b61372061475c565b6006819055600354613733908290615651565b600355426005556040518181527fcf636cc80b637bbb81f27bae78adac0fb5b5dee402042a20c6febb1630d5b81b906020016115b0565b60008054600160a01b900460ff1680156116565750600054604051630debfda360e41b81526001600160a01b0384811660048301529091169063debfda3090602401602060405180830381865afa1580156137c9573d6000803e3d6000fd5b505050506040513d601f19601f82011682018060405250810190611656919061599b565b6137f561453f565b600061380086614435565b905061380b836144fa565b806138178587836157dc565b50600181018054831515600160a01b026001600160a81b03199091166001600160a01b0386161717905560405186907f505f02470b9795494019aba2982a68c1c6fea88fcbe5d80bafc28963fbe3bbab906138799088908890889088906158c5565b60405180910390a2505050505050565b600054600160a01b900460ff16156138da5760405162461bcd60e51b8152602060048201526014602482015273696e697469616c6973656420213d2066616c736560601b6044820152606401610de0565b6001600160a01b0382166139305760405162461bcd60e51b815260206004820152601860248201527f676f7665726e616e63652073657474696e6773207a65726f00000000000000006044820152606401610de0565b6001600160a01b0381166139795760405162461bcd60e51b815260206004820152601060248201526f5f676f7665726e616e6365207a65726f60801b6044820152606401610de0565b600080546001600160a01b038481166001600160a81b031990921691909117600160a01b17909155600180549183166001600160a01b0319909216821790556040519081527f9789733827840833afc031fb2ef9ab6894271f77bad2085687cf4ae5c7bee4db9060200160405180910390a15050565b6139f761480d565b600054600160a81b900460ff1615613a515760405162461bcd60e51b815260206004820152601a60248201527f616c726561647920696e2070726f64756374696f6e206d6f64650000000000006044820152606401610de0565b600180546001600160a01b031916905560008054600160a81b60ff60a81b198216179091556040516001600160a01b0390911681527f83af113638b5422f9e977cebc0aaf0eaf2188eb9a8baae7f9d46c42b33a1560c9060200160405180910390a1565b606060008060008060008060008060606000613ad08c614435565b600181015460028201546003830154835493945084936001600160a01b0384169360ff600160a01b8204811694600160a81b8304821694600160b01b909304909116926001600160801b0380831693600160801b938490048216938183169391049091169060058a01908a90613b4590615544565b80601f0160208091040260200160405190810160405280929190818152602001828054613b7190615544565b8015613bbe5780601f10613b9357610100808354040283529160200191613bbe565b820191906000526020600020905b815481529060010190602001808311613ba157829003601f168201915b5050505050995080805480602002602001604051908101604052809291908181526020018280548015613c1057602002820191906000526020600020905b815481526020019060010190808311613bfc575b505050505090509a509a509a509a509a509a509a509a509a509a50509193959799509193959799565b600034613c446148c9565b613c4e9190615651565b90504781811115613c915761dead6108fc613c698484615933565b6040518115909202916000818181858888f19350505050158015612416573d6000803e3d6000fd5b818110156119bf576119bf6159b8565b600260085403613cc457604051633ee5aeb560e01b815260040160405180910390fd5b6002600855565b600062278d00613cfb7f000000000000000000000000000000000000000000000000000000000000000042615933565b611ac091906159ce565b600080613d1185614435565b6001810154909150600160b01b900460ff1615613d645760405162461bcd60e51b815260206004820152601160248201527018db185a5b5a5b99c8191a5cd8589b1959607a1b6044820152606401610de0565b3360009081526006820160205260408120546005830154909190613d89908390615933565b90506000816001600160401b03811115613da557613da5614e01565b604051908082528060200260200182016040528015613dce578160200160208202803683370190505b5090506000826001600160401b03811115613deb57613deb614e01565b604051908082528060200260200182016040528015613e14578160200160208202803683370190505b50905060005b83811015614003576000866005018681548110613e3957613e3961557e565b90600052602060002001549050808a1015613e545750614003565b600081815260048801602090815260408083203384526002810190925290912085518390879086908110613e8a57613e8a61557e565b60209081029190910101528054600090613eb6906001600160801b03600160801b8204811691166155ea565b9050613ec2818c6155aa565b600184018054919c508291600090613ee49084906001600160801b03166155aa565b92506101000a8154816001600160801b0302191690836001600160801b03160217905550808260000160108282829054906101000a90046001600160801b0316613f2e91906155aa565b92506101000a8154816001600160801b0302191690836001600160801b031602179055506000816001600160801b03161115613fdf57806001600160801b0316868681518110613f8057613f8061557e565b602002602001018181525050336001600160a01b0316848f7f991476c3a75b7c98873b2a3ff8ea47ece4cad28a0b122c8064f619d37787424a84604051613fd691906001600160801b0391909116815260200190565b60405180910390a45b88613fe9816155d1565b995050505050508080613ffb906155d1565b915050613e1a565b506003850180548791906000906140249084906001600160801b03166155aa565b92506101000a8154816001600160801b0302191690836001600160801b031602179055505b60008411801561408e57508660058601614064600187615933565b815481106140745761407461557e565b9060005260206000200154600161408b9190615651565b10155b156140a5578361409d81615946565b945050614049565b33600090815260068601602052604090208490556140c1614187565b600f54604051632b8f98e160e21b81526001600160a01b039283169263ae3e6384926001600160801b038b16926141029290911690879087906004016159f0565b6000604051808303818588803b15801561411b57600080fd5b505af115801561412f573d6000803e3d6000fd5b505050505050505050509392505050565b6141486148c9565b4714611a275760405162461bcd60e51b815260206004820152600e60248201526d6f7574206f662062616c616e636560901b6044820152606401610de0565b336000908152601460205260409020546001600160a01b031680156141a95790565b6010546001600160a01b03166142015760405162461bcd60e51b815260206004820152601b60248201527f6c6962726172792061646472657373206e6f74207365742079657400000000006044820152606401610de0565b601054614216906001600160a01b0316614ae9565b9050803b63ffffffff1661426c5760405162461bcd60e51b815260206004820152601e60248201527f636c6f6e65206e6f742063726561746564207375636365737366756c6c7900006044820152606401610de0565b60405163485cc95560e01b81523360048201523060248201526001600160a01b0382169063485cc95590604401600060405180830381600087803b1580156142b357600080fd5b505af11580156142c7573d6000803e3d6000fd5b505050506001600160a01b03811660008181526015602090815260408083208054336001600160a01b031991821681179092558185526014845293829020805490941685179093558051928352908201929092527fc96ec7c29cf26f4d6ae403b80302646eb294d9eabdf83f1e9dcf0d5b30e5ae9e910160405180910390a1600e54604051631c4aa8ff60e31b81523360048201526000916001600160a01b03169063e25547f890602401602060405180830381865afa15801561438f573d6000803e3d6000fd5b505050506040513d601f19601f820116820180604052508101906143b3919061595d565b90508060000361443157600e5460408051600081526020810191829052632571bd6960e11b9091526001600160a01b0384811692634ae37ad2926143fe929091169060248101615a30565b600060405180830381600087803b15801561441857600080fd5b505af115801561442c573d6000803e3d6000fd5b505050505b5090565b601354600090821061447e5760405162461bcd60e51b81526020600482015260126024820152711a5b9d985b1a59081c1c9bda9958dd081a5960721b6044820152606401610de0565b601382815481106144915761449161557e565b90600052602060002090600702019050919050565b6001810154600160a81b900460ff16156110de5760405162461bcd60e51b8152602060048201526015602482015274191a5cdd1c9a589d5d1a5bdb88191a5cd8589b1959605a1b6044820152606401610de0565b6001600160a01b0381166110de5760405162461bcd60e51b815260206004820152600c60248201526b61646472657373207a65726f60a01b6044820152606401610de0565b6011546001600160a01b03163314611a275760405162461bcd60e51b815260206004820152600c60248201526b37b7363c9036b0b730b3b2b960a11b6044820152606401610de0565b6001600160a01b0380821660009081526014602052604090205416806145e25760405162461bcd60e51b815260206004820152600f60248201526e1b9bc81493985d081858d8dbdd5b9d608a1b6044820152606401610de0565b919050565b600054600160b01b900460ff161561461757333014614608576146086159b8565b6000805460ff60b01b19169055565b611a2761480d565b61462761480d565b6000805460408051636221a54b60e01b81529051853593926001600160a01b031691636221a54b9160048083019260209291908290030181865afa158015614673573d6000803e3d6000fd5b505050506040513d601f19601f82011682018060405250810190614697919061595d565b905060006146a58242615651565b9050604051806040016040528082815260200186868080601f01602080910402602001604051908101604052809392919081815260200183838082843760009201829052509390945250506001600160e01b031986168152600260209081526040909120835181559083015190915060018201906147239082615a8c565b509050507fed948300a3694aa01d4a6b258bfd664350193d770c0b51f8387277f6d83ea3b68382878760405161324f9493929190615b4b565b6007546001600160a01b03163314611a275760405162461bcd60e51b8152602060048201526013602482015272696e63656e7469766520706f6f6c206f6e6c7960681b6044820152606401610de0565b600b80543491906000906147ca9084906001600160801b03166155aa565b92506101000a8154816001600160801b0302191690836001600160801b03160217905550565b3d604051818101604052816000823e8215614809578181f35b8181fd5b614815611a29565b6001600160a01b0316336001600160a01b031614611a275760405162461bcd60e51b815260206004820152600f60248201526e6f6e6c7920676f7665726e616e636560881b6044820152606401610de0565b6003810154600160801b90046001600160801b0316156110de5760405162461bcd60e51b815260206004820152601d60248201527f636c61696d696e67207065726d616e656e746c792064697361626c65640000006044820152606401610de0565b600c54600b54600091610f73916001600160801b0391821691166155ea565b600080826040516020016148fc9190614c29565b6040516020818303038152906040528051906020012090506000805b8651811015614974578681815181106149335761493361557e565b60200260200101518303614962578581815181106149535761495361557e565b60200260200101519150614974565b8061496c816155d1565b915050614918565b506001600160a01b0381166149ba5760405162461bcd60e51b815260206004820152600c60248201526b61646472657373207a65726f60a01b6044820152606401610de0565b95945050505050565b600d54600160801b900460ff16156149df576149df8282614b3b565b614a1382826040518060400160405280601181526020017021b630b4b6a9b2ba3ab826b0b730b3b2b960791b8152506148e8565b600e60006101000a8154816001600160a01b0302191690836001600160a01b031602179055506000614a6283836040518060400160405280600481526020016315d3985d60e21b8152506148e8565b600f549091506001600160a01b0316614a9757600f80546001600160a01b0383166001600160a01b0319909116179055505050565b600f546001600160a01b038281169116146124165760405162461bcd60e51b815260206004820152601260248201527177726f6e6720774e6174206164647265737360701b6044820152606401610de0565b6000808260601b9050604051733d602d80600a3d3981f3363d3d373d3d3d363d7360601b81528160148201526e5af43d82803e903d91602b57fd5bf360881b60288201526037816000f0949350505050565b614b6b82826040518060400160405280600d81526020016c125b98d95b9d1a5d99541bdbdb609a1b8152506148e8565b600780546001600160a01b0319166001600160a01b03929092169190911790555050565b508054614b9b90615544565b6000825580601f10614bab575050565b601f0160209004906000526020600020908101906110de91905b808211156144315760008155600101614bc5565b60005b83811015614bf4578181015183820152602001614bdc565b50506000910152565b60008151808452614c15816020860160208601614bd9565b601f01601f19169290920160200192915050565b602081526000610f4a6020830184614bfd565b6001600160a01b03811681146110de57600080fd5b60008060408385031215614c6457600080fd5b8235614c6f81614c3c565b946020939093013593505050565b60008083601f840112614c8f57600080fd5b5081356001600160401b03811115614ca657600080fd5b6020830191508360208260051b8501011115614cc157600080fd5b9250929050565b600080600060408486031215614cdd57600080fd5b83356001600160401b03811115614cf357600080fd5b614cff86828701614c7d565b909790965060209590950135949350505050565b80151581146110de57600080fd5b600060208284031215614d3357600080fd5b8135610f4a81614d13565b600080600060608486031215614d5357600080fd5b8335614d5e81614c3c565b92506020840135614d6e81614c3c565b929592945050506040919091013590565b60008060008060008060808789031215614d9857600080fd5b863595506020870135945060408701356001600160401b0380821115614dbd57600080fd5b614dc98a838b01614c7d565b90965094506060890135915080821115614de257600080fd5b50614def89828a01614c7d565b979a9699509497509295939492505050565b634e487b7160e01b600052604160045260246000fd5b604051601f8201601f191681016001600160401b0381118282101715614e3f57614e3f614e01565b604052919050565b60006001600160401b03821115614e6057614e60614e01565b5060051b60200190565b600082601f830112614e7b57600080fd5b81356020614e90614e8b83614e47565b614e17565b82815260059290921b84018101918181019086841115614eaf57600080fd5b8286015b84811015614eca5780358352918301918301614eb3565b509695505050505050565b600060208284031215614ee757600080fd5b81356001600160401b03811115614efd57600080fd5b614f0984828501614e6a565b949350505050565b600080600060608486031215614f2657600080fd5b83359250602084013591506040840135614f3f81614c3c565b809150509250925092565b600060208284031215614f5c57600080fd5b8135610f4a81614c3c565b60008060008060008060608789031215614f8057600080fd5b86356001600160401b0380821115614f9757600080fd5b614fa38a838b01614c7d565b90985096506020890135915080821115614fbc57600080fd5b614fc88a838b01614c7d565b90965094506040890135915080821115614de257600080fd5b600060208284031215614ff357600080fd5b81356001600160e01b031981168114610f4a57600080fd5b60008060008060006060868803121561502357600080fd5b8535945060208601356001600160401b038082111561504157600080fd5b61504d89838a01614c7d565b9096509450604088013591508082111561506657600080fd5b5061507388828901614c7d565b969995985093965092949392505050565b6000806040838503121561509757600080fd5b8235915060208301356001600160401b038111156150b457600080fd5b6150c085828601614e6a565b9150509250929050565b828152604060208201526000614f096040830184614bfd565b6001600160801b03811681146110de57600080fd5b6000806040838503121561510b57600080fd5b823561511681614c3c565b91506020830135615126816150e3565b809150509250929050565b6000806020838503121561514457600080fd5b82356001600160401b0381111561515a57600080fd5b61516685828601614c7d565b90969095509350505050565b6000806040838503121561518557600080fd5b8235615190816150e3565b9150602083013561512681614d13565b600080604083850312156151b357600080fd5b82359150602083013561512681614c3c565b600082601f8301126151d657600080fd5b813560206151e6614e8b83614e47565b82815260059290921b8401810191818101908684111561520557600080fd5b8286015b84811015614eca57803561521c81614c3c565b8352918301918301615209565b6000806040838503121561523c57600080fd5b82356001600160401b038082111561525357600080fd5b818501915085601f83011261526757600080fd5b81356020615277614e8b83614e47565b82815260059290921b8401810191818101908984111561529657600080fd5b948201945b838610156152b45785358252948201949082019061529b565b965050860135925050808211156152ca57600080fd5b506150c0858286016151c5565b6000604082016040835280855180835260608501915060608160051b8601019250602080880160005b8381101561532e57605f1988870301855261531c868351614bfd565b95509382019390820190600101615300565b50508584038187015286518085528782019482019350915060005b82811015615367578451151584529381019392810192600101615349565b5091979650505050505050565b6000806040838503121561538757600080fd5b50508035926020909101359150565b600080604083850312156153a957600080fd5b82356153b481614c3c565b9150602083013561512681614c3c565b6000602082840312156153d657600080fd5b5035919050565b6000806000806000608086880312156153f557600080fd5b8535945060208601356001600160401b038082111561541357600080fd5b818801915088601f83011261542757600080fd5b81358181111561543657600080fd5b89602082850101111561544857600080fd5b602083019650809550505050604086013561546281614c3c565b9150606086013561547281614d13565b809150509295509295909350565b600081518084526020808501945080840160005b838110156154b057815187529582019590820190600101615494565b509495945050505050565b60006101408083526154cf8184018e614bfd565b6001600160a01b038d1660208501528b151560408501528a1515606085015289151560808501526001600160801b0389811660a086015288811660c086015287811660e0860152861661010085015283810361012085015290506155338185615480565b9d9c50505050505050505050505050565b600181811c9082168061555857607f821691505b60208210810361557857634e487b7160e01b600052602260045260246000fd5b50919050565b634e487b7160e01b600052603260045260246000fd5b634e487b7160e01b600052601160045260246000fd5b6001600160801b038181168382160190808211156155ca576155ca615594565b5092915050565b6000600182016155e3576155e3615594565b5060010190565b6001600160801b038281168282160390808211156155ca576155ca615594565b60006020828403121561561c57600080fd5b8151610f4a816150e3565b60208082526010908201526f0d8cadccee8d0e640dad2e6dac2e8c6d60831b604082015260600190565b8082018082111561165657611656615594565b60006020828403121561567657600080fd5b8135610f4a816150e3565b8183526000602080850194508260005b858110156154b05781356156a481614c3c565b6001600160a01b031687529582019590820190600101615691565b6040815260006156d3604083018688615681565b8281036020848101919091528482528591810160005b868110156157175783356156fc816150e3565b6001600160801b0316825292820192908201906001016156e9565b5098975050505050505050565b6040815260006157376040830185615480565b905082151560208301529392505050565b6000808335601e1984360301811261575f57600080fd5b8301803591506001600160401b0382111561577957600080fd5b602001915036819003821315614cc157600080fd5b601f82111561241657600081815260208120601f850160051c810160208610156157b55750805b601f850160051c820191505b818110156157d4578281556001016157c1565b505050505050565b6001600160401b038311156157f3576157f3614e01565b615807836158018354615544565b8361578e565b6000601f84116001811461583b57600085156158235750838201355b600019600387901b1c1916600186901b178355615895565b600083815260209020601f19861690835b8281101561586c578685013582556020948501946001909201910161584c565b50868210156158895760001960f88860031b161c19848701351681555b505060018560011b0183555b5050505050565b81835281816020850137506000828201602090810191909152601f909101601f19169091010190565b6060815260006158d960608301868861589c565b6001600160a01b039490941660208301525090151560409091015292915050565b60006020828403121561590c57600080fd5b8151610f4a81614c3c565b60008251615929818460208701614bd9565b9190910192915050565b8181038181111561165657611656615594565b60008161595557615955615594565b506000190190565b60006020828403121561596f57600080fd5b5051919050565b6001600160a01b03841681526040602082018190526000906149ba9083018486615681565b6000602082840312156159ad57600080fd5b8151610f4a81614d13565b634e487b7160e01b600052600160045260246000fd5b6000826159eb57634e487b7160e01b600052601260045260246000fd5b500490565b6001600160a01b0384168152606060208201819052600090615a1490830185615480565b8281036040840152615a268185615480565b9695505050505050565b6001600160a01b038381168252604060208084018290528451918401829052600092858201929091906060860190855b81811015615a7e578551851683529483019491830191600101615a60565b509098975050505050505050565b81516001600160401b03811115615aa557615aa5614e01565b615ab981615ab38454615544565b8461578e565b602080601f831160018114615aee5760008415615ad65750858301515b600019600386901b1c1916600185901b1785556157d4565b600085815260208120601f198616915b82811015615b1d57888601518255948401946001909101908401615afe565b5085821015615b3b5787850151600019600388901b60f8161c191681555b5050505050600190811b01905550565b63ffffffff60e01b85168152836020820152606060408201526000615a2660608301848661589c56fea2646970667358221220053d741b5e952a60ac3666d6bfc44450bcd4599c39c4523f9d62ad14510ea43c64736f6c63430008140033",
  "linkReferences": {},
  "deployedLinkReferences": {}
}